
PWM_1.elf:     file format elf32-littlearm

Sections:
Idx Name          Size      VMA       LMA       File off  Algn
  0 .isr_vector   00000194  08000000  08000000  00010000  2**0
                  CONTENTS, ALLOC, LOAD, READONLY, DATA
  1 .text         00001954  08000194  08000194  00010194  2**2
                  CONTENTS, ALLOC, LOAD, READONLY, CODE
  2 .rodata       00000018  08001ae8  08001ae8  00011ae8  2**0
                  CONTENTS, ALLOC, LOAD, READONLY, DATA
  3 .ARM          00000008  08001b00  08001b00  00011b00  2**2
                  CONTENTS, ALLOC, LOAD, READONLY, DATA
  4 .init_array   00000004  08001b08  08001b08  00011b08  2**2
                  CONTENTS, ALLOC, LOAD, DATA
  5 .fini_array   00000004  08001b0c  08001b0c  00011b0c  2**2
                  CONTENTS, ALLOC, LOAD, DATA
  6 .data         0000000c  20000000  08001b10  00020000  2**2
                  CONTENTS, ALLOC, LOAD, DATA
  7 .bss          0000009c  2000000c  08001b1c  0002000c  2**2
                  ALLOC
  8 ._user_heap_stack 00000600  200000a8  08001b1c  000200a8  2**0
                  ALLOC
  9 .ARM.attributes 00000030  00000000  00000000  0002000c  2**0
                  CONTENTS, READONLY
 10 .debug_info   00010d9b  00000000  00000000  0002003c  2**0
                  CONTENTS, READONLY, DEBUGGING
 11 .debug_abbrev 00001fe4  00000000  00000000  00030dd7  2**0
                  CONTENTS, READONLY, DEBUGGING
 12 .debug_loc    00005b07  00000000  00000000  00032dbb  2**0
                  CONTENTS, READONLY, DEBUGGING
 13 .debug_aranges 00000800  00000000  00000000  000388c8  2**3
                  CONTENTS, READONLY, DEBUGGING
 14 .debug_ranges 00000a18  00000000  00000000  000390c8  2**3
                  CONTENTS, READONLY, DEBUGGING
 15 .debug_line   00004484  00000000  00000000  00039ae0  2**0
                  CONTENTS, READONLY, DEBUGGING
 16 .debug_str    000034ba  00000000  00000000  0003df64  2**0
                  CONTENTS, READONLY, DEBUGGING
 17 .comment      0000007c  00000000  00000000  0004141e  2**0
                  CONTENTS, READONLY
 18 .debug_frame  00001760  00000000  00000000  0004149c  2**2
                  CONTENTS, READONLY, DEBUGGING

Disassembly of section .text:

08000194 <__do_global_dtors_aux>:
 8000194:	b510      	push	{r4, lr}
 8000196:	4c05      	ldr	r4, [pc, #20]	; (80001ac <__do_global_dtors_aux+0x18>)
 8000198:	7823      	ldrb	r3, [r4, #0]
 800019a:	b933      	cbnz	r3, 80001aa <__do_global_dtors_aux+0x16>
 800019c:	4b04      	ldr	r3, [pc, #16]	; (80001b0 <__do_global_dtors_aux+0x1c>)
 800019e:	b113      	cbz	r3, 80001a6 <__do_global_dtors_aux+0x12>
 80001a0:	4804      	ldr	r0, [pc, #16]	; (80001b4 <__do_global_dtors_aux+0x20>)
 80001a2:	f3af 8000 	nop.w
 80001a6:	2301      	movs	r3, #1
 80001a8:	7023      	strb	r3, [r4, #0]
 80001aa:	bd10      	pop	{r4, pc}
 80001ac:	2000000c 	.word	0x2000000c
 80001b0:	00000000 	.word	0x00000000
 80001b4:	08001ad0 	.word	0x08001ad0

080001b8 <frame_dummy>:
 80001b8:	b508      	push	{r3, lr}
 80001ba:	4b03      	ldr	r3, [pc, #12]	; (80001c8 <frame_dummy+0x10>)
 80001bc:	b11b      	cbz	r3, 80001c6 <frame_dummy+0xe>
 80001be:	4903      	ldr	r1, [pc, #12]	; (80001cc <frame_dummy+0x14>)
 80001c0:	4803      	ldr	r0, [pc, #12]	; (80001d0 <frame_dummy+0x18>)
 80001c2:	f3af 8000 	nop.w
 80001c6:	bd08      	pop	{r3, pc}
 80001c8:	00000000 	.word	0x00000000
 80001cc:	20000010 	.word	0x20000010
 80001d0:	08001ad0 	.word	0x08001ad0

080001d4 <__aeabi_uldivmod>:
 80001d4:	b953      	cbnz	r3, 80001ec <__aeabi_uldivmod+0x18>
 80001d6:	b94a      	cbnz	r2, 80001ec <__aeabi_uldivmod+0x18>
 80001d8:	2900      	cmp	r1, #0
 80001da:	bf08      	it	eq
 80001dc:	2800      	cmpeq	r0, #0
 80001de:	bf1c      	itt	ne
 80001e0:	f04f 31ff 	movne.w	r1, #4294967295
 80001e4:	f04f 30ff 	movne.w	r0, #4294967295
 80001e8:	f000 b97a 	b.w	80004e0 <__aeabi_idiv0>
 80001ec:	f1ad 0c08 	sub.w	ip, sp, #8
 80001f0:	e96d ce04 	strd	ip, lr, [sp, #-16]!
 80001f4:	f000 f806 	bl	8000204 <__udivmoddi4>
 80001f8:	f8dd e004 	ldr.w	lr, [sp, #4]
 80001fc:	e9dd 2302 	ldrd	r2, r3, [sp, #8]
 8000200:	b004      	add	sp, #16
 8000202:	4770      	bx	lr

08000204 <__udivmoddi4>:
 8000204:	e92d 47f0 	stmdb	sp!, {r4, r5, r6, r7, r8, r9, sl, lr}
 8000208:	468c      	mov	ip, r1
 800020a:	460d      	mov	r5, r1
 800020c:	4604      	mov	r4, r0
 800020e:	9e08      	ldr	r6, [sp, #32]
 8000210:	2b00      	cmp	r3, #0
 8000212:	d151      	bne.n	80002b8 <__udivmoddi4+0xb4>
 8000214:	428a      	cmp	r2, r1
 8000216:	4617      	mov	r7, r2
 8000218:	d96d      	bls.n	80002f6 <__udivmoddi4+0xf2>
 800021a:	fab2 fe82 	clz	lr, r2
 800021e:	f1be 0f00 	cmp.w	lr, #0
 8000222:	d00b      	beq.n	800023c <__udivmoddi4+0x38>
 8000224:	f1ce 0c20 	rsb	ip, lr, #32
 8000228:	fa01 f50e 	lsl.w	r5, r1, lr
 800022c:	fa20 fc0c 	lsr.w	ip, r0, ip
 8000230:	fa02 f70e 	lsl.w	r7, r2, lr
 8000234:	ea4c 0c05 	orr.w	ip, ip, r5
 8000238:	fa00 f40e 	lsl.w	r4, r0, lr
 800023c:	ea4f 4a17 	mov.w	sl, r7, lsr #16
 8000240:	0c25      	lsrs	r5, r4, #16
 8000242:	fbbc f8fa 	udiv	r8, ip, sl
 8000246:	fa1f f987 	uxth.w	r9, r7
 800024a:	fb0a cc18 	mls	ip, sl, r8, ip
 800024e:	ea45 450c 	orr.w	r5, r5, ip, lsl #16
 8000252:	fb08 f309 	mul.w	r3, r8, r9
 8000256:	42ab      	cmp	r3, r5
 8000258:	d90a      	bls.n	8000270 <__udivmoddi4+0x6c>
 800025a:	19ed      	adds	r5, r5, r7
 800025c:	f108 32ff 	add.w	r2, r8, #4294967295
 8000260:	f080 8123 	bcs.w	80004aa <__udivmoddi4+0x2a6>
 8000264:	42ab      	cmp	r3, r5
 8000266:	f240 8120 	bls.w	80004aa <__udivmoddi4+0x2a6>
 800026a:	f1a8 0802 	sub.w	r8, r8, #2
 800026e:	443d      	add	r5, r7
 8000270:	1aed      	subs	r5, r5, r3
 8000272:	b2a4      	uxth	r4, r4
 8000274:	fbb5 f0fa 	udiv	r0, r5, sl
 8000278:	fb0a 5510 	mls	r5, sl, r0, r5
 800027c:	ea44 4405 	orr.w	r4, r4, r5, lsl #16
 8000280:	fb00 f909 	mul.w	r9, r0, r9
 8000284:	45a1      	cmp	r9, r4
 8000286:	d909      	bls.n	800029c <__udivmoddi4+0x98>
 8000288:	19e4      	adds	r4, r4, r7
 800028a:	f100 33ff 	add.w	r3, r0, #4294967295
 800028e:	f080 810a 	bcs.w	80004a6 <__udivmoddi4+0x2a2>
 8000292:	45a1      	cmp	r9, r4
 8000294:	f240 8107 	bls.w	80004a6 <__udivmoddi4+0x2a2>
 8000298:	3802      	subs	r0, #2
 800029a:	443c      	add	r4, r7
 800029c:	eba4 0409 	sub.w	r4, r4, r9
 80002a0:	ea40 4008 	orr.w	r0, r0, r8, lsl #16
 80002a4:	2100      	movs	r1, #0
 80002a6:	2e00      	cmp	r6, #0
 80002a8:	d061      	beq.n	800036e <__udivmoddi4+0x16a>
 80002aa:	fa24 f40e 	lsr.w	r4, r4, lr
 80002ae:	2300      	movs	r3, #0
 80002b0:	6034      	str	r4, [r6, #0]
 80002b2:	6073      	str	r3, [r6, #4]
 80002b4:	e8bd 87f0 	ldmia.w	sp!, {r4, r5, r6, r7, r8, r9, sl, pc}
 80002b8:	428b      	cmp	r3, r1
 80002ba:	d907      	bls.n	80002cc <__udivmoddi4+0xc8>
 80002bc:	2e00      	cmp	r6, #0
 80002be:	d054      	beq.n	800036a <__udivmoddi4+0x166>
 80002c0:	2100      	movs	r1, #0
 80002c2:	e886 0021 	stmia.w	r6, {r0, r5}
 80002c6:	4608      	mov	r0, r1
 80002c8:	e8bd 87f0 	ldmia.w	sp!, {r4, r5, r6, r7, r8, r9, sl, pc}
 80002cc:	fab3 f183 	clz	r1, r3
 80002d0:	2900      	cmp	r1, #0
 80002d2:	f040 808e 	bne.w	80003f2 <__udivmoddi4+0x1ee>
 80002d6:	42ab      	cmp	r3, r5
 80002d8:	d302      	bcc.n	80002e0 <__udivmoddi4+0xdc>
 80002da:	4282      	cmp	r2, r0
 80002dc:	f200 80fa 	bhi.w	80004d4 <__udivmoddi4+0x2d0>
 80002e0:	1a84      	subs	r4, r0, r2
 80002e2:	eb65 0503 	sbc.w	r5, r5, r3
 80002e6:	2001      	movs	r0, #1
 80002e8:	46ac      	mov	ip, r5
 80002ea:	2e00      	cmp	r6, #0
 80002ec:	d03f      	beq.n	800036e <__udivmoddi4+0x16a>
 80002ee:	e886 1010 	stmia.w	r6, {r4, ip}
 80002f2:	e8bd 87f0 	ldmia.w	sp!, {r4, r5, r6, r7, r8, r9, sl, pc}
 80002f6:	b912      	cbnz	r2, 80002fe <__udivmoddi4+0xfa>
 80002f8:	2701      	movs	r7, #1
 80002fa:	fbb7 f7f2 	udiv	r7, r7, r2
 80002fe:	fab7 fe87 	clz	lr, r7
 8000302:	f1be 0f00 	cmp.w	lr, #0
 8000306:	d134      	bne.n	8000372 <__udivmoddi4+0x16e>
 8000308:	1beb      	subs	r3, r5, r7
 800030a:	0c3a      	lsrs	r2, r7, #16
 800030c:	fa1f fc87 	uxth.w	ip, r7
 8000310:	2101      	movs	r1, #1
 8000312:	fbb3 f8f2 	udiv	r8, r3, r2
 8000316:	0c25      	lsrs	r5, r4, #16
 8000318:	fb02 3318 	mls	r3, r2, r8, r3
 800031c:	ea45 4503 	orr.w	r5, r5, r3, lsl #16
 8000320:	fb0c f308 	mul.w	r3, ip, r8
 8000324:	42ab      	cmp	r3, r5
 8000326:	d907      	bls.n	8000338 <__udivmoddi4+0x134>
 8000328:	19ed      	adds	r5, r5, r7
 800032a:	f108 30ff 	add.w	r0, r8, #4294967295
 800032e:	d202      	bcs.n	8000336 <__udivmoddi4+0x132>
 8000330:	42ab      	cmp	r3, r5
 8000332:	f200 80d1 	bhi.w	80004d8 <__udivmoddi4+0x2d4>
 8000336:	4680      	mov	r8, r0
 8000338:	1aed      	subs	r5, r5, r3
 800033a:	b2a3      	uxth	r3, r4
 800033c:	fbb5 f0f2 	udiv	r0, r5, r2
 8000340:	fb02 5510 	mls	r5, r2, r0, r5
 8000344:	ea43 4405 	orr.w	r4, r3, r5, lsl #16
 8000348:	fb0c fc00 	mul.w	ip, ip, r0
 800034c:	45a4      	cmp	ip, r4
 800034e:	d907      	bls.n	8000360 <__udivmoddi4+0x15c>
 8000350:	19e4      	adds	r4, r4, r7
 8000352:	f100 33ff 	add.w	r3, r0, #4294967295
 8000356:	d202      	bcs.n	800035e <__udivmoddi4+0x15a>
 8000358:	45a4      	cmp	ip, r4
 800035a:	f200 80b8 	bhi.w	80004ce <__udivmoddi4+0x2ca>
 800035e:	4618      	mov	r0, r3
 8000360:	eba4 040c 	sub.w	r4, r4, ip
 8000364:	ea40 4008 	orr.w	r0, r0, r8, lsl #16
 8000368:	e79d      	b.n	80002a6 <__udivmoddi4+0xa2>
 800036a:	4631      	mov	r1, r6
 800036c:	4630      	mov	r0, r6
 800036e:	e8bd 87f0 	ldmia.w	sp!, {r4, r5, r6, r7, r8, r9, sl, pc}
 8000372:	f1ce 0420 	rsb	r4, lr, #32
 8000376:	fa05 f30e 	lsl.w	r3, r5, lr
 800037a:	fa07 f70e 	lsl.w	r7, r7, lr
 800037e:	fa20 f804 	lsr.w	r8, r0, r4
 8000382:	0c3a      	lsrs	r2, r7, #16
 8000384:	fa25 f404 	lsr.w	r4, r5, r4
 8000388:	ea48 0803 	orr.w	r8, r8, r3
 800038c:	fbb4 f1f2 	udiv	r1, r4, r2
 8000390:	ea4f 4518 	mov.w	r5, r8, lsr #16
 8000394:	fb02 4411 	mls	r4, r2, r1, r4
 8000398:	fa1f fc87 	uxth.w	ip, r7
 800039c:	ea45 4504 	orr.w	r5, r5, r4, lsl #16
 80003a0:	fb01 f30c 	mul.w	r3, r1, ip
 80003a4:	42ab      	cmp	r3, r5
 80003a6:	fa00 f40e 	lsl.w	r4, r0, lr
 80003aa:	d909      	bls.n	80003c0 <__udivmoddi4+0x1bc>
 80003ac:	19ed      	adds	r5, r5, r7
 80003ae:	f101 30ff 	add.w	r0, r1, #4294967295
 80003b2:	f080 808a 	bcs.w	80004ca <__udivmoddi4+0x2c6>
 80003b6:	42ab      	cmp	r3, r5
 80003b8:	f240 8087 	bls.w	80004ca <__udivmoddi4+0x2c6>
 80003bc:	3902      	subs	r1, #2
 80003be:	443d      	add	r5, r7
 80003c0:	1aeb      	subs	r3, r5, r3
 80003c2:	fa1f f588 	uxth.w	r5, r8
 80003c6:	fbb3 f0f2 	udiv	r0, r3, r2
 80003ca:	fb02 3310 	mls	r3, r2, r0, r3
 80003ce:	ea45 4503 	orr.w	r5, r5, r3, lsl #16
 80003d2:	fb00 f30c 	mul.w	r3, r0, ip
 80003d6:	42ab      	cmp	r3, r5
 80003d8:	d907      	bls.n	80003ea <__udivmoddi4+0x1e6>
 80003da:	19ed      	adds	r5, r5, r7
 80003dc:	f100 38ff 	add.w	r8, r0, #4294967295
 80003e0:	d26f      	bcs.n	80004c2 <__udivmoddi4+0x2be>
 80003e2:	42ab      	cmp	r3, r5
 80003e4:	d96d      	bls.n	80004c2 <__udivmoddi4+0x2be>
 80003e6:	3802      	subs	r0, #2
 80003e8:	443d      	add	r5, r7
 80003ea:	1aeb      	subs	r3, r5, r3
 80003ec:	ea40 4101 	orr.w	r1, r0, r1, lsl #16
 80003f0:	e78f      	b.n	8000312 <__udivmoddi4+0x10e>
 80003f2:	f1c1 0720 	rsb	r7, r1, #32
 80003f6:	fa22 f807 	lsr.w	r8, r2, r7
 80003fa:	408b      	lsls	r3, r1
 80003fc:	fa05 f401 	lsl.w	r4, r5, r1
 8000400:	ea48 0303 	orr.w	r3, r8, r3
 8000404:	fa20 fe07 	lsr.w	lr, r0, r7
 8000408:	ea4f 4c13 	mov.w	ip, r3, lsr #16
 800040c:	40fd      	lsrs	r5, r7
 800040e:	ea4e 0e04 	orr.w	lr, lr, r4
 8000412:	fbb5 f9fc 	udiv	r9, r5, ip
 8000416:	ea4f 441e 	mov.w	r4, lr, lsr #16
 800041a:	fb0c 5519 	mls	r5, ip, r9, r5
 800041e:	fa1f f883 	uxth.w	r8, r3
 8000422:	ea44 4505 	orr.w	r5, r4, r5, lsl #16
 8000426:	fb09 f408 	mul.w	r4, r9, r8
 800042a:	42ac      	cmp	r4, r5
 800042c:	fa02 f201 	lsl.w	r2, r2, r1
 8000430:	fa00 fa01 	lsl.w	sl, r0, r1
 8000434:	d908      	bls.n	8000448 <__udivmoddi4+0x244>
 8000436:	18ed      	adds	r5, r5, r3
 8000438:	f109 30ff 	add.w	r0, r9, #4294967295
 800043c:	d243      	bcs.n	80004c6 <__udivmoddi4+0x2c2>
 800043e:	42ac      	cmp	r4, r5
 8000440:	d941      	bls.n	80004c6 <__udivmoddi4+0x2c2>
 8000442:	f1a9 0902 	sub.w	r9, r9, #2
 8000446:	441d      	add	r5, r3
 8000448:	1b2d      	subs	r5, r5, r4
 800044a:	fa1f fe8e 	uxth.w	lr, lr
 800044e:	fbb5 f0fc 	udiv	r0, r5, ip
 8000452:	fb0c 5510 	mls	r5, ip, r0, r5
 8000456:	ea4e 4405 	orr.w	r4, lr, r5, lsl #16
 800045a:	fb00 f808 	mul.w	r8, r0, r8
 800045e:	45a0      	cmp	r8, r4
 8000460:	d907      	bls.n	8000472 <__udivmoddi4+0x26e>
 8000462:	18e4      	adds	r4, r4, r3
 8000464:	f100 35ff 	add.w	r5, r0, #4294967295
 8000468:	d229      	bcs.n	80004be <__udivmoddi4+0x2ba>
 800046a:	45a0      	cmp	r8, r4
 800046c:	d927      	bls.n	80004be <__udivmoddi4+0x2ba>
 800046e:	3802      	subs	r0, #2
 8000470:	441c      	add	r4, r3
 8000472:	ea40 4009 	orr.w	r0, r0, r9, lsl #16
 8000476:	eba4 0408 	sub.w	r4, r4, r8
 800047a:	fba0 8902 	umull	r8, r9, r0, r2
 800047e:	454c      	cmp	r4, r9
 8000480:	46c6      	mov	lr, r8
 8000482:	464d      	mov	r5, r9
 8000484:	d315      	bcc.n	80004b2 <__udivmoddi4+0x2ae>
 8000486:	d012      	beq.n	80004ae <__udivmoddi4+0x2aa>
 8000488:	b156      	cbz	r6, 80004a0 <__udivmoddi4+0x29c>
 800048a:	ebba 030e 	subs.w	r3, sl, lr
 800048e:	eb64 0405 	sbc.w	r4, r4, r5
 8000492:	fa04 f707 	lsl.w	r7, r4, r7
 8000496:	40cb      	lsrs	r3, r1
 8000498:	431f      	orrs	r7, r3
 800049a:	40cc      	lsrs	r4, r1
 800049c:	6037      	str	r7, [r6, #0]
 800049e:	6074      	str	r4, [r6, #4]
 80004a0:	2100      	movs	r1, #0
 80004a2:	e8bd 87f0 	ldmia.w	sp!, {r4, r5, r6, r7, r8, r9, sl, pc}
 80004a6:	4618      	mov	r0, r3
 80004a8:	e6f8      	b.n	800029c <__udivmoddi4+0x98>
 80004aa:	4690      	mov	r8, r2
 80004ac:	e6e0      	b.n	8000270 <__udivmoddi4+0x6c>
 80004ae:	45c2      	cmp	sl, r8
 80004b0:	d2ea      	bcs.n	8000488 <__udivmoddi4+0x284>
 80004b2:	ebb8 0e02 	subs.w	lr, r8, r2
 80004b6:	eb69 0503 	sbc.w	r5, r9, r3
 80004ba:	3801      	subs	r0, #1
 80004bc:	e7e4      	b.n	8000488 <__udivmoddi4+0x284>
 80004be:	4628      	mov	r0, r5
 80004c0:	e7d7      	b.n	8000472 <__udivmoddi4+0x26e>
 80004c2:	4640      	mov	r0, r8
 80004c4:	e791      	b.n	80003ea <__udivmoddi4+0x1e6>
 80004c6:	4681      	mov	r9, r0
 80004c8:	e7be      	b.n	8000448 <__udivmoddi4+0x244>
 80004ca:	4601      	mov	r1, r0
 80004cc:	e778      	b.n	80003c0 <__udivmoddi4+0x1bc>
 80004ce:	3802      	subs	r0, #2
 80004d0:	443c      	add	r4, r7
 80004d2:	e745      	b.n	8000360 <__udivmoddi4+0x15c>
 80004d4:	4608      	mov	r0, r1
 80004d6:	e708      	b.n	80002ea <__udivmoddi4+0xe6>
 80004d8:	f1a8 0802 	sub.w	r8, r8, #2
 80004dc:	443d      	add	r5, r7
 80004de:	e72b      	b.n	8000338 <__udivmoddi4+0x134>

080004e0 <__aeabi_idiv0>:
 80004e0:	4770      	bx	lr
 80004e2:	bf00      	nop

080004e4 <HAL_InitTick>:
  *       implementation  in user file.
  * @param TickPriority Tick interrupt priority.
  * @retval HAL status
  */
__weak HAL_StatusTypeDef HAL_InitTick(uint32_t TickPriority)
{
 80004e4:	b538      	push	{r3, r4, r5, lr}
  /* Configure the SysTick to have interrupt in 1ms time basis*/
  if (HAL_SYSTICK_Config(SystemCoreClock / (1000U / uwTickFreq)) > 0U)
 80004e6:	4a0e      	ldr	r2, [pc, #56]	; (8000520 <HAL_InitTick+0x3c>)
 80004e8:	4b0e      	ldr	r3, [pc, #56]	; (8000524 <HAL_InitTick+0x40>)
{
 80004ea:	4605      	mov	r5, r0
  if (HAL_SYSTICK_Config(SystemCoreClock / (1000U / uwTickFreq)) > 0U)
 80004ec:	7818      	ldrb	r0, [r3, #0]
 80004ee:	f44f 737a 	mov.w	r3, #1000	; 0x3e8
 80004f2:	fbb3 f3f0 	udiv	r3, r3, r0
 80004f6:	6810      	ldr	r0, [r2, #0]
 80004f8:	fbb0 f0f3 	udiv	r0, r0, r3
 80004fc:	f000 f8a8 	bl	8000650 <HAL_SYSTICK_Config>
 8000500:	4604      	mov	r4, r0
 8000502:	b958      	cbnz	r0, 800051c <HAL_InitTick+0x38>
  {
    return HAL_ERROR;
  }

  /* Configure the SysTick IRQ priority */
  if (TickPriority < (1UL << __NVIC_PRIO_BITS))
 8000504:	2d0f      	cmp	r5, #15
 8000506:	d809      	bhi.n	800051c <HAL_InitTick+0x38>
  {
    HAL_NVIC_SetPriority(SysTick_IRQn, TickPriority, 0U);
 8000508:	4602      	mov	r2, r0
 800050a:	4629      	mov	r1, r5
 800050c:	f04f 30ff 	mov.w	r0, #4294967295
 8000510:	f000 f85e 	bl	80005d0 <HAL_NVIC_SetPriority>
    uwTickPrio = TickPriority;
 8000514:	4b04      	ldr	r3, [pc, #16]	; (8000528 <HAL_InitTick+0x44>)
 8000516:	4620      	mov	r0, r4
 8000518:	601d      	str	r5, [r3, #0]
 800051a:	bd38      	pop	{r3, r4, r5, pc}
    return HAL_ERROR;
 800051c:	2001      	movs	r0, #1
    return HAL_ERROR;
  }

  /* Return function status */
  return HAL_OK;
}
 800051e:	bd38      	pop	{r3, r4, r5, pc}
 8000520:	20000008 	.word	0x20000008
 8000524:	20000000 	.word	0x20000000
 8000528:	20000004 	.word	0x20000004

0800052c <HAL_Init>:
{
 800052c:	b508      	push	{r3, lr}
  __HAL_FLASH_INSTRUCTION_CACHE_ENABLE();
 800052e:	4b0b      	ldr	r3, [pc, #44]	; (800055c <HAL_Init+0x30>)
 8000530:	681a      	ldr	r2, [r3, #0]
 8000532:	f442 7200 	orr.w	r2, r2, #512	; 0x200
 8000536:	601a      	str	r2, [r3, #0]
  __HAL_FLASH_DATA_CACHE_ENABLE();
 8000538:	681a      	ldr	r2, [r3, #0]
 800053a:	f442 6280 	orr.w	r2, r2, #1024	; 0x400
 800053e:	601a      	str	r2, [r3, #0]
  __HAL_FLASH_PREFETCH_BUFFER_ENABLE();
 8000540:	681a      	ldr	r2, [r3, #0]
 8000542:	f442 7280 	orr.w	r2, r2, #256	; 0x100
 8000546:	601a      	str	r2, [r3, #0]
  HAL_NVIC_SetPriorityGrouping(NVIC_PRIORITYGROUP_4);
 8000548:	2003      	movs	r0, #3
 800054a:	f000 f82f 	bl	80005ac <HAL_NVIC_SetPriorityGrouping>
  HAL_InitTick(TICK_INT_PRIORITY);
 800054e:	2000      	movs	r0, #0
 8000550:	f7ff ffc8 	bl	80004e4 <HAL_InitTick>
  HAL_MspInit();
 8000554:	f001 f98c 	bl	8001870 <HAL_MspInit>
}
 8000558:	2000      	movs	r0, #0
 800055a:	bd08      	pop	{r3, pc}
 800055c:	40023c00 	.word	0x40023c00

08000560 <HAL_IncTick>:
  *      implementations in user file.
  * @retval None
  */
__weak void HAL_IncTick(void)
{
  uwTick += uwTickFreq;
 8000560:	4a03      	ldr	r2, [pc, #12]	; (8000570 <HAL_IncTick+0x10>)
 8000562:	4b04      	ldr	r3, [pc, #16]	; (8000574 <HAL_IncTick+0x14>)
 8000564:	6811      	ldr	r1, [r2, #0]
 8000566:	781b      	ldrb	r3, [r3, #0]
 8000568:	440b      	add	r3, r1
 800056a:	6013      	str	r3, [r2, #0]
 800056c:	4770      	bx	lr
 800056e:	bf00      	nop
 8000570:	20000028 	.word	0x20000028
 8000574:	20000000 	.word	0x20000000

08000578 <HAL_GetTick>:
  *       implementations in user file.
  * @retval tick value
  */
__weak uint32_t HAL_GetTick(void)
{
  return uwTick;
 8000578:	4b01      	ldr	r3, [pc, #4]	; (8000580 <HAL_GetTick+0x8>)
 800057a:	6818      	ldr	r0, [r3, #0]
}
 800057c:	4770      	bx	lr
 800057e:	bf00      	nop
 8000580:	20000028 	.word	0x20000028

08000584 <HAL_Delay>:
  *       implementations in user file.
  * @param Delay specifies the delay time length, in milliseconds.
  * @retval None
  */
__weak void HAL_Delay(uint32_t Delay)
{
 8000584:	b538      	push	{r3, r4, r5, lr}
 8000586:	4604      	mov	r4, r0
  uint32_t tickstart = HAL_GetTick();
 8000588:	f7ff fff6 	bl	8000578 <HAL_GetTick>
  uint32_t wait = Delay;

  /* Add a freq to guarantee minimum wait */
  if (wait < HAL_MAX_DELAY)
 800058c:	1c63      	adds	r3, r4, #1
  {
    wait += (uint32_t)(uwTickFreq);
 800058e:	bf1c      	itt	ne
 8000590:	4b05      	ldrne	r3, [pc, #20]	; (80005a8 <HAL_Delay+0x24>)
 8000592:	781b      	ldrbne	r3, [r3, #0]
  uint32_t tickstart = HAL_GetTick();
 8000594:	4605      	mov	r5, r0
    wait += (uint32_t)(uwTickFreq);
 8000596:	bf18      	it	ne
 8000598:	18e4      	addne	r4, r4, r3
  }

  while((HAL_GetTick() - tickstart) < wait)
 800059a:	f7ff ffed 	bl	8000578 <HAL_GetTick>
 800059e:	1b40      	subs	r0, r0, r5
 80005a0:	4284      	cmp	r4, r0
 80005a2:	d8fa      	bhi.n	800059a <HAL_Delay+0x16>
  {
  }
}
 80005a4:	bd38      	pop	{r3, r4, r5, pc}
 80005a6:	bf00      	nop
 80005a8:	20000000 	.word	0x20000000

080005ac <HAL_NVIC_SetPriorityGrouping>:
__STATIC_INLINE void NVIC_SetPriorityGrouping(uint32_t PriorityGroup)
{
  uint32_t reg_value;
  uint32_t PriorityGroupTmp = (PriorityGroup & (uint32_t)0x07UL);             /* only values 0..7 are used          */

  reg_value  =  SCB->AIRCR;                                                   /* read old register configuration    */
 80005ac:	4a07      	ldr	r2, [pc, #28]	; (80005cc <HAL_NVIC_SetPriorityGrouping+0x20>)
 80005ae:	68d3      	ldr	r3, [r2, #12]
  reg_value &= ~((uint32_t)(SCB_AIRCR_VECTKEY_Msk | SCB_AIRCR_PRIGROUP_Msk)); /* clear bits to change               */
 80005b0:	f423 63e0 	bic.w	r3, r3, #1792	; 0x700
 80005b4:	041b      	lsls	r3, r3, #16
 80005b6:	0c1b      	lsrs	r3, r3, #16
 80005b8:	f043 63bf 	orr.w	r3, r3, #100139008	; 0x5f80000
  reg_value  =  (reg_value                                   |
                ((uint32_t)0x5FAUL << SCB_AIRCR_VECTKEY_Pos) |
                (PriorityGroupTmp << 8U)                      );              /* Insert write key and priorty group */
 80005bc:	0200      	lsls	r0, r0, #8
 80005be:	f443 3300 	orr.w	r3, r3, #131072	; 0x20000
 80005c2:	f400 60e0 	and.w	r0, r0, #1792	; 0x700
  reg_value  =  (reg_value                                   |
 80005c6:	4303      	orrs	r3, r0
  SCB->AIRCR =  reg_value;
 80005c8:	60d3      	str	r3, [r2, #12]
 80005ca:	4770      	bx	lr
 80005cc:	e000ed00 	.word	0xe000ed00

080005d0 <HAL_NVIC_SetPriority>:
  \details Reads the priority grouping field from the NVIC Interrupt Controller.
  \return                Priority grouping field (SCB->AIRCR [10:8] PRIGROUP field).
 */
__STATIC_INLINE uint32_t NVIC_GetPriorityGrouping(void)
{
  return ((uint32_t)((SCB->AIRCR & SCB_AIRCR_PRIGROUP_Msk) >> SCB_AIRCR_PRIGROUP_Pos));
 80005d0:	4b17      	ldr	r3, [pc, #92]	; (8000630 <HAL_NVIC_SetPriority+0x60>)
  *         This parameter can be a value between 0 and 15
  *         A lower priority value indicates a higher priority.          
  * @retval None
  */
void HAL_NVIC_SetPriority(IRQn_Type IRQn, uint32_t PreemptPriority, uint32_t SubPriority)
{ 
 80005d2:	b530      	push	{r4, r5, lr}
 80005d4:	68dc      	ldr	r4, [r3, #12]
 80005d6:	f3c4 2402 	ubfx	r4, r4, #8, #3
{
  uint32_t PriorityGroupTmp = (PriorityGroup & (uint32_t)0x07UL);   /* only values 0..7 are used          */
  uint32_t PreemptPriorityBits;
  uint32_t SubPriorityBits;

  PreemptPriorityBits = ((7UL - PriorityGroupTmp) > (uint32_t)(__NVIC_PRIO_BITS)) ? (uint32_t)(__NVIC_PRIO_BITS) : (uint32_t)(7UL - PriorityGroupTmp);
 80005da:	f1c4 0307 	rsb	r3, r4, #7
  SubPriorityBits     = ((PriorityGroupTmp + (uint32_t)(__NVIC_PRIO_BITS)) < (uint32_t)7UL) ? (uint32_t)0UL : (uint32_t)((PriorityGroupTmp - 7UL) + (uint32_t)(__NVIC_PRIO_BITS));
 80005de:	1d25      	adds	r5, r4, #4
  PreemptPriorityBits = ((7UL - PriorityGroupTmp) > (uint32_t)(__NVIC_PRIO_BITS)) ? (uint32_t)(__NVIC_PRIO_BITS) : (uint32_t)(7UL - PriorityGroupTmp);
 80005e0:	2b04      	cmp	r3, #4
 80005e2:	bf28      	it	cs
 80005e4:	2304      	movcs	r3, #4
  SubPriorityBits     = ((PriorityGroupTmp + (uint32_t)(__NVIC_PRIO_BITS)) < (uint32_t)7UL) ? (uint32_t)0UL : (uint32_t)((PriorityGroupTmp - 7UL) + (uint32_t)(__NVIC_PRIO_BITS));
 80005e6:	2d06      	cmp	r5, #6

  return (
           ((PreemptPriority & (uint32_t)((1UL << (PreemptPriorityBits)) - 1UL)) << SubPriorityBits) |
 80005e8:	f04f 0501 	mov.w	r5, #1
 80005ec:	fa05 f303 	lsl.w	r3, r5, r3
 80005f0:	f103 33ff 	add.w	r3, r3, #4294967295
  SubPriorityBits     = ((PriorityGroupTmp + (uint32_t)(__NVIC_PRIO_BITS)) < (uint32_t)7UL) ? (uint32_t)0UL : (uint32_t)((PriorityGroupTmp - 7UL) + (uint32_t)(__NVIC_PRIO_BITS));
 80005f4:	bf8c      	ite	hi
 80005f6:	3c03      	subhi	r4, #3
 80005f8:	2400      	movls	r4, #0
           ((PreemptPriority & (uint32_t)((1UL << (PreemptPriorityBits)) - 1UL)) << SubPriorityBits) |
 80005fa:	4019      	ands	r1, r3
 80005fc:	40a1      	lsls	r1, r4
           ((SubPriority     & (uint32_t)((1UL << (SubPriorityBits    )) - 1UL)))
 80005fe:	fa05 f404 	lsl.w	r4, r5, r4
 8000602:	3c01      	subs	r4, #1
 8000604:	4022      	ands	r2, r4
  if ((int32_t)(IRQn) < 0)
 8000606:	2800      	cmp	r0, #0
           ((PreemptPriority & (uint32_t)((1UL << (PreemptPriorityBits)) - 1UL)) << SubPriorityBits) |
 8000608:	ea42 0201 	orr.w	r2, r2, r1
 800060c:	ea4f 1202 	mov.w	r2, r2, lsl #4
    NVIC->IP[((uint32_t)(int32_t)IRQn)]               = (uint8_t)((priority << (8U - __NVIC_PRIO_BITS)) & (uint32_t)0xFFUL);
 8000610:	bfaf      	iteee	ge
 8000612:	f100 4060 	addge.w	r0, r0, #3758096384	; 0xe0000000
    SCB->SHP[(((uint32_t)(int32_t)IRQn) & 0xFUL)-4UL] = (uint8_t)((priority << (8U - __NVIC_PRIO_BITS)) & (uint32_t)0xFFUL);
 8000616:	f000 000f 	andlt.w	r0, r0, #15
 800061a:	4b06      	ldrlt	r3, [pc, #24]	; (8000634 <HAL_NVIC_SetPriority+0x64>)
 800061c:	b2d2      	uxtblt	r2, r2
    NVIC->IP[((uint32_t)(int32_t)IRQn)]               = (uint8_t)((priority << (8U - __NVIC_PRIO_BITS)) & (uint32_t)0xFFUL);
 800061e:	bfa5      	ittet	ge
 8000620:	f500 4061 	addge.w	r0, r0, #57600	; 0xe100
 8000624:	b2d2      	uxtbge	r2, r2
    SCB->SHP[(((uint32_t)(int32_t)IRQn) & 0xFUL)-4UL] = (uint8_t)((priority << (8U - __NVIC_PRIO_BITS)) & (uint32_t)0xFFUL);
 8000626:	541a      	strblt	r2, [r3, r0]
    NVIC->IP[((uint32_t)(int32_t)IRQn)]               = (uint8_t)((priority << (8U - __NVIC_PRIO_BITS)) & (uint32_t)0xFFUL);
 8000628:	f880 2300 	strbge.w	r2, [r0, #768]	; 0x300
 800062c:	bd30      	pop	{r4, r5, pc}
 800062e:	bf00      	nop
 8000630:	e000ed00 	.word	0xe000ed00
 8000634:	e000ed14 	.word	0xe000ed14

08000638 <HAL_NVIC_EnableIRQ>:
  NVIC->ISER[(((uint32_t)(int32_t)IRQn) >> 5UL)] = (uint32_t)(1UL << (((uint32_t)(int32_t)IRQn) & 0x1FUL));
 8000638:	0942      	lsrs	r2, r0, #5
 800063a:	2301      	movs	r3, #1
 800063c:	f000 001f 	and.w	r0, r0, #31
 8000640:	fa03 f000 	lsl.w	r0, r3, r0
 8000644:	4b01      	ldr	r3, [pc, #4]	; (800064c <HAL_NVIC_EnableIRQ+0x14>)
 8000646:	f843 0022 	str.w	r0, [r3, r2, lsl #2]
 800064a:	4770      	bx	lr
 800064c:	e000e100 	.word	0xe000e100

08000650 <HAL_SYSTICK_Config>:
           function <b>SysTick_Config</b> is not included. In this case, the file <b><i>device</i>.h</b>
           must contain a vendor-specific implementation of this function.
 */
__STATIC_INLINE uint32_t SysTick_Config(uint32_t ticks)
{
  if ((ticks - 1UL) > SysTick_LOAD_RELOAD_Msk)
 8000650:	3801      	subs	r0, #1
 8000652:	f1b0 7f80 	cmp.w	r0, #16777216	; 0x1000000
 8000656:	d20a      	bcs.n	800066e <HAL_SYSTICK_Config+0x1e>
  {
    return (1UL);                                                   /* Reload value impossible */
  }

  SysTick->LOAD  = (uint32_t)(ticks - 1UL);                         /* set reload register */
 8000658:	4b06      	ldr	r3, [pc, #24]	; (8000674 <HAL_SYSTICK_Config+0x24>)
    SCB->SHP[(((uint32_t)(int32_t)IRQn) & 0xFUL)-4UL] = (uint8_t)((priority << (8U - __NVIC_PRIO_BITS)) & (uint32_t)0xFFUL);
 800065a:	4a07      	ldr	r2, [pc, #28]	; (8000678 <HAL_SYSTICK_Config+0x28>)
  SysTick->LOAD  = (uint32_t)(ticks - 1UL);                         /* set reload register */
 800065c:	6058      	str	r0, [r3, #4]
    SCB->SHP[(((uint32_t)(int32_t)IRQn) & 0xFUL)-4UL] = (uint8_t)((priority << (8U - __NVIC_PRIO_BITS)) & (uint32_t)0xFFUL);
 800065e:	21f0      	movs	r1, #240	; 0xf0
 8000660:	f882 1023 	strb.w	r1, [r2, #35]	; 0x23
  NVIC_SetPriority (SysTick_IRQn, (1UL << __NVIC_PRIO_BITS) - 1UL); /* set Priority for Systick Interrupt */
  SysTick->VAL   = 0UL;                                             /* Load the SysTick Counter Value */
 8000664:	2000      	movs	r0, #0
  SysTick->CTRL  = SysTick_CTRL_CLKSOURCE_Msk |
 8000666:	2207      	movs	r2, #7
  SysTick->VAL   = 0UL;                                             /* Load the SysTick Counter Value */
 8000668:	6098      	str	r0, [r3, #8]
  SysTick->CTRL  = SysTick_CTRL_CLKSOURCE_Msk |
 800066a:	601a      	str	r2, [r3, #0]
 800066c:	4770      	bx	lr
    return (1UL);                                                   /* Reload value impossible */
 800066e:	2001      	movs	r0, #1
  *                  - 1  Function failed.
  */
uint32_t HAL_SYSTICK_Config(uint32_t TicksNumb)
{
   return SysTick_Config(TicksNumb);
}
 8000670:	4770      	bx	lr
 8000672:	bf00      	nop
 8000674:	e000e010 	.word	0xe000e010
 8000678:	e000ed00 	.word	0xe000ed00

0800067c <HAL_SYSTICK_CLKSourceConfig>:
  *             @arg SYSTICK_CLKSOURCE_HCLK_DIV8: AHB clock divided by 8 selected as SysTick clock source.
  *             @arg SYSTICK_CLKSOURCE_HCLK: AHB clock selected as SysTick clock source.
  * @retval None
  */
void HAL_SYSTICK_CLKSourceConfig(uint32_t CLKSource)
{
 800067c:	4b04      	ldr	r3, [pc, #16]	; (8000690 <HAL_SYSTICK_CLKSourceConfig+0x14>)
  /* Check the parameters */
  assert_param(IS_SYSTICK_CLK_SOURCE(CLKSource));
  if (CLKSource == SYSTICK_CLKSOURCE_HCLK)
  {
    SysTick->CTRL |= SYSTICK_CLKSOURCE_HCLK;
 800067e:	681a      	ldr	r2, [r3, #0]
  if (CLKSource == SYSTICK_CLKSOURCE_HCLK)
 8000680:	2804      	cmp	r0, #4
    SysTick->CTRL |= SYSTICK_CLKSOURCE_HCLK;
 8000682:	bf0c      	ite	eq
 8000684:	f042 0204 	orreq.w	r2, r2, #4
  }
  else
  {
    SysTick->CTRL &= ~SYSTICK_CLKSOURCE_HCLK;
 8000688:	f022 0204 	bicne.w	r2, r2, #4
 800068c:	601a      	str	r2, [r3, #0]
 800068e:	4770      	bx	lr
 8000690:	e000e010 	.word	0xe000e010

08000694 <HAL_SYSTICK_Callback>:
/**
  * @brief  SYSTICK callback.
  * @retval None
  */
__weak void HAL_SYSTICK_Callback(void)
{
 8000694:	4770      	bx	lr

08000696 <HAL_SYSTICK_IRQHandler>:
{
 8000696:	b508      	push	{r3, lr}
  HAL_SYSTICK_Callback();
 8000698:	f7ff fffc 	bl	8000694 <HAL_SYSTICK_Callback>
 800069c:	bd08      	pop	{r3, pc}
	...

080006a0 <HAL_GPIO_Init>:
  * @param  GPIO_Init pointer to a GPIO_InitTypeDef structure that contains
  *         the configuration information for the specified GPIO peripheral.
  * @retval None
  */
void HAL_GPIO_Init(GPIO_TypeDef  *GPIOx, GPIO_InitTypeDef *GPIO_Init)
{
 80006a0:	e92d 4ff0 	stmdb	sp!, {r4, r5, r6, r7, r8, r9, sl, fp, lr}
 80006a4:	b085      	sub	sp, #20
  for(position = 0U; position < GPIO_NUMBER; position++)
  {
    /* Get the IO position */
    ioposition = 0x01U << position;
    /* Get the current IO position */
    iocurrent = (uint32_t)(GPIO_Init->Pin) & ioposition;
 80006a6:	680b      	ldr	r3, [r1, #0]
      /*--------------------- EXTI Mode Configuration ------------------------*/
      /* Configure the External Interrupt or event for the current IO */
      if((GPIO_Init->Mode & EXTI_MODE) == EXTI_MODE)
      {
        /* Enable SYSCFG Clock */
        __HAL_RCC_SYSCFG_CLK_ENABLE();
 80006a8:	f8df 819c 	ldr.w	r8, [pc, #412]	; 8000848 <HAL_GPIO_Init+0x1a8>
        temp &= ~(0x0FU << (4U * (position & 0x03U)));
        temp |= ((uint32_t)(GPIO_GET_INDEX(GPIOx)) << (4U * (position & 0x03U)));
        SYSCFG->EXTICR[position >> 2U] = temp;

        /* Clear EXTI line configuration */
        temp = EXTI->IMR;
 80006ac:	4a64      	ldr	r2, [pc, #400]	; (8000840 <HAL_GPIO_Init+0x1a0>)
    iocurrent = (uint32_t)(GPIO_Init->Pin) & ioposition;
 80006ae:	9301      	str	r3, [sp, #4]
    ioposition = 0x01U << position;
 80006b0:	f04f 0901 	mov.w	r9, #1
  for(position = 0U; position < GPIO_NUMBER; position++)
 80006b4:	2300      	movs	r3, #0
    iocurrent = (uint32_t)(GPIO_Init->Pin) & ioposition;
 80006b6:	9c01      	ldr	r4, [sp, #4]
    ioposition = 0x01U << position;
 80006b8:	fa09 f703 	lsl.w	r7, r9, r3
    iocurrent = (uint32_t)(GPIO_Init->Pin) & ioposition;
 80006bc:	ea07 0604 	and.w	r6, r7, r4
    if(iocurrent == ioposition)
 80006c0:	42b7      	cmp	r7, r6
 80006c2:	f040 80ad 	bne.w	8000820 <HAL_GPIO_Init+0x180>
      if((GPIO_Init->Mode == GPIO_MODE_AF_PP) || (GPIO_Init->Mode == GPIO_MODE_AF_OD))
 80006c6:	684c      	ldr	r4, [r1, #4]
 80006c8:	f024 0a10 	bic.w	sl, r4, #16
 80006cc:	f1ba 0f02 	cmp.w	sl, #2
 80006d0:	d116      	bne.n	8000700 <HAL_GPIO_Init+0x60>
        temp = GPIOx->AFR[position >> 3U];
 80006d2:	ea4f 0cd3 	mov.w	ip, r3, lsr #3
 80006d6:	eb00 0c8c 	add.w	ip, r0, ip, lsl #2
        temp &= ~(0xFU << ((uint32_t)(position & 0x07U) * 4U)) ;
 80006da:	f003 0b07 	and.w	fp, r3, #7
        temp = GPIOx->AFR[position >> 3U];
 80006de:	f8dc 5020 	ldr.w	r5, [ip, #32]
        temp &= ~(0xFU << ((uint32_t)(position & 0x07U) * 4U)) ;
 80006e2:	ea4f 0b8b 	mov.w	fp, fp, lsl #2
 80006e6:	f04f 0e0f 	mov.w	lr, #15
 80006ea:	fa0e fe0b 	lsl.w	lr, lr, fp
 80006ee:	ea25 0e0e 	bic.w	lr, r5, lr
        temp |= ((uint32_t)(GPIO_Init->Alternate) << (((uint32_t)position & 0x07U) * 4U));
 80006f2:	690d      	ldr	r5, [r1, #16]
 80006f4:	fa05 f50b 	lsl.w	r5, r5, fp
 80006f8:	ea45 050e 	orr.w	r5, r5, lr
        GPIOx->AFR[position >> 3U] = temp;
 80006fc:	f8cc 5020 	str.w	r5, [ip, #32]
 8000700:	ea4f 0c43 	mov.w	ip, r3, lsl #1
      temp &= ~(GPIO_MODER_MODER0 << (position * 2U));
 8000704:	2503      	movs	r5, #3
      temp = GPIOx->MODER;
 8000706:	f8d0 b000 	ldr.w	fp, [r0]
      temp &= ~(GPIO_MODER_MODER0 << (position * 2U));
 800070a:	fa05 f50c 	lsl.w	r5, r5, ip
 800070e:	43ed      	mvns	r5, r5
      temp |= ((GPIO_Init->Mode & GPIO_MODE) << (position * 2U));
 8000710:	f004 0e03 	and.w	lr, r4, #3
      temp &= ~(GPIO_MODER_MODER0 << (position * 2U));
 8000714:	ea0b 0b05 	and.w	fp, fp, r5
      temp |= ((GPIO_Init->Mode & GPIO_MODE) << (position * 2U));
 8000718:	fa0e fe0c 	lsl.w	lr, lr, ip
      if((GPIO_Init->Mode == GPIO_MODE_OUTPUT_PP) || (GPIO_Init->Mode == GPIO_MODE_AF_PP) ||
 800071c:	f10a 3aff 	add.w	sl, sl, #4294967295
      temp |= ((GPIO_Init->Mode & GPIO_MODE) << (position * 2U));
 8000720:	ea4e 0e0b 	orr.w	lr, lr, fp
      if((GPIO_Init->Mode == GPIO_MODE_OUTPUT_PP) || (GPIO_Init->Mode == GPIO_MODE_AF_PP) ||
 8000724:	f1ba 0f01 	cmp.w	sl, #1
      temp &= ~(GPIO_MODER_MODER0 << (position * 2U));
 8000728:	9500      	str	r5, [sp, #0]
      GPIOx->MODER = temp;
 800072a:	f8c0 e000 	str.w	lr, [r0]
      if((GPIO_Init->Mode == GPIO_MODE_OUTPUT_PP) || (GPIO_Init->Mode == GPIO_MODE_AF_PP) ||
 800072e:	d815      	bhi.n	800075c <HAL_GPIO_Init+0xbc>
        temp = GPIOx->OSPEEDR; 
 8000730:	f8d0 e008 	ldr.w	lr, [r0, #8]
        temp &= ~(GPIO_OSPEEDER_OSPEEDR0 << (position * 2U));
 8000734:	ea05 0e0e 	and.w	lr, r5, lr
        temp |= (GPIO_Init->Speed << (position * 2U));
 8000738:	68cd      	ldr	r5, [r1, #12]
 800073a:	fa05 fa0c 	lsl.w	sl, r5, ip
 800073e:	ea4a 0e0e 	orr.w	lr, sl, lr
        GPIOx->OSPEEDR = temp;
 8000742:	f8c0 e008 	str.w	lr, [r0, #8]
        temp = GPIOx->OTYPER;
 8000746:	f8d0 e004 	ldr.w	lr, [r0, #4]
        temp &= ~(GPIO_OTYPER_OT_0 << position) ;
 800074a:	ea2e 0707 	bic.w	r7, lr, r7
        temp |= (((GPIO_Init->Mode & GPIO_OUTPUT_TYPE) >> 4U) << position);
 800074e:	f3c4 1e00 	ubfx	lr, r4, #4, #1
 8000752:	fa0e fe03 	lsl.w	lr, lr, r3
 8000756:	ea4e 0707 	orr.w	r7, lr, r7
        GPIOx->OTYPER = temp;
 800075a:	6047      	str	r7, [r0, #4]
      temp = GPIOx->PUPDR;
 800075c:	68c7      	ldr	r7, [r0, #12]
      temp &= ~(GPIO_PUPDR_PUPDR0 << (position * 2U));
 800075e:	9d00      	ldr	r5, [sp, #0]
 8000760:	403d      	ands	r5, r7
      temp |= ((GPIO_Init->Pull) << (position * 2U));
 8000762:	688f      	ldr	r7, [r1, #8]
 8000764:	fa07 f70c 	lsl.w	r7, r7, ip
 8000768:	433d      	orrs	r5, r7
      GPIOx->PUPDR = temp;
 800076a:	60c5      	str	r5, [r0, #12]
      if((GPIO_Init->Mode & EXTI_MODE) == EXTI_MODE)
 800076c:	00e5      	lsls	r5, r4, #3
 800076e:	d557      	bpl.n	8000820 <HAL_GPIO_Init+0x180>
        __HAL_RCC_SYSCFG_CLK_ENABLE();
 8000770:	f04f 0b00 	mov.w	fp, #0
 8000774:	f8cd b00c 	str.w	fp, [sp, #12]
 8000778:	f8d8 7044 	ldr.w	r7, [r8, #68]	; 0x44
        temp |= ((uint32_t)(GPIO_GET_INDEX(GPIOx)) << (4U * (position & 0x03U)));
 800077c:	4d31      	ldr	r5, [pc, #196]	; (8000844 <HAL_GPIO_Init+0x1a4>)
        __HAL_RCC_SYSCFG_CLK_ENABLE();
 800077e:	f447 4780 	orr.w	r7, r7, #16384	; 0x4000
 8000782:	f8c8 7044 	str.w	r7, [r8, #68]	; 0x44
 8000786:	f8d8 7044 	ldr.w	r7, [r8, #68]	; 0x44
 800078a:	f407 4780 	and.w	r7, r7, #16384	; 0x4000
 800078e:	9703      	str	r7, [sp, #12]
 8000790:	9f03      	ldr	r7, [sp, #12]
 8000792:	f023 0703 	bic.w	r7, r3, #3
 8000796:	f107 4780 	add.w	r7, r7, #1073741824	; 0x40000000
 800079a:	f507 379c 	add.w	r7, r7, #79872	; 0x13800
        temp &= ~(0x0FU << (4U * (position & 0x03U)));
 800079e:	f003 0c03 	and.w	ip, r3, #3
        temp = SYSCFG->EXTICR[position >> 2U];
 80007a2:	f8d7 a008 	ldr.w	sl, [r7, #8]
        temp &= ~(0x0FU << (4U * (position & 0x03U)));
 80007a6:	ea4f 0c8c 	mov.w	ip, ip, lsl #2
 80007aa:	f04f 0e0f 	mov.w	lr, #15
 80007ae:	fa0e fe0c 	lsl.w	lr, lr, ip
        temp |= ((uint32_t)(GPIO_GET_INDEX(GPIOx)) << (4U * (position & 0x03U)));
 80007b2:	42a8      	cmp	r0, r5
        temp &= ~(0x0FU << (4U * (position & 0x03U)));
 80007b4:	ea2a 0e0e 	bic.w	lr, sl, lr
        temp |= ((uint32_t)(GPIO_GET_INDEX(GPIOx)) << (4U * (position & 0x03U)));
 80007b8:	d039      	beq.n	800082e <HAL_GPIO_Init+0x18e>
 80007ba:	f505 6580 	add.w	r5, r5, #1024	; 0x400
 80007be:	42a8      	cmp	r0, r5
 80007c0:	d037      	beq.n	8000832 <HAL_GPIO_Init+0x192>
 80007c2:	f505 6580 	add.w	r5, r5, #1024	; 0x400
 80007c6:	42a8      	cmp	r0, r5
 80007c8:	d035      	beq.n	8000836 <HAL_GPIO_Init+0x196>
 80007ca:	f505 6580 	add.w	r5, r5, #1024	; 0x400
 80007ce:	42a8      	cmp	r0, r5
 80007d0:	d033      	beq.n	800083a <HAL_GPIO_Init+0x19a>
 80007d2:	f505 6580 	add.w	r5, r5, #1024	; 0x400
 80007d6:	42a8      	cmp	r0, r5
 80007d8:	bf14      	ite	ne
 80007da:	2507      	movne	r5, #7
 80007dc:	2504      	moveq	r5, #4
 80007de:	fa05 f50c 	lsl.w	r5, r5, ip
 80007e2:	ea45 050e 	orr.w	r5, r5, lr
        SYSCFG->EXTICR[position >> 2U] = temp;
 80007e6:	60bd      	str	r5, [r7, #8]
        temp = EXTI->IMR;
 80007e8:	6815      	ldr	r5, [r2, #0]
        temp &= ~((uint32_t)iocurrent);
 80007ea:	43f7      	mvns	r7, r6
        if((GPIO_Init->Mode & GPIO_MODE_IT) == GPIO_MODE_IT)
 80007ec:	f414 3f80 	tst.w	r4, #65536	; 0x10000
        temp &= ~((uint32_t)iocurrent);
 80007f0:	bf0c      	ite	eq
 80007f2:	403d      	andeq	r5, r7
        {
          temp |= iocurrent;
 80007f4:	4335      	orrne	r5, r6
        }
        EXTI->IMR = temp;
 80007f6:	6015      	str	r5, [r2, #0]

        temp = EXTI->EMR;
 80007f8:	6855      	ldr	r5, [r2, #4]
        temp &= ~((uint32_t)iocurrent);
        if((GPIO_Init->Mode & GPIO_MODE_EVT) == GPIO_MODE_EVT)
 80007fa:	f414 3f00 	tst.w	r4, #131072	; 0x20000
        temp &= ~((uint32_t)iocurrent);
 80007fe:	bf0c      	ite	eq
 8000800:	403d      	andeq	r5, r7
        {
          temp |= iocurrent;
 8000802:	4335      	orrne	r5, r6
        }
        EXTI->EMR = temp;
 8000804:	6055      	str	r5, [r2, #4]

        /* Clear Rising Falling edge configuration */
        temp = EXTI->RTSR;
 8000806:	6895      	ldr	r5, [r2, #8]
        temp &= ~((uint32_t)iocurrent);
        if((GPIO_Init->Mode & RISING_EDGE) == RISING_EDGE)
 8000808:	f414 1f80 	tst.w	r4, #1048576	; 0x100000
        temp &= ~((uint32_t)iocurrent);
 800080c:	bf0c      	ite	eq
 800080e:	403d      	andeq	r5, r7
        {
          temp |= iocurrent;
 8000810:	4335      	orrne	r5, r6
        }
        EXTI->RTSR = temp;
 8000812:	6095      	str	r5, [r2, #8]

        temp = EXTI->FTSR;
 8000814:	68d5      	ldr	r5, [r2, #12]
        temp &= ~((uint32_t)iocurrent);
        if((GPIO_Init->Mode & FALLING_EDGE) == FALLING_EDGE)
 8000816:	02a4      	lsls	r4, r4, #10
        temp &= ~((uint32_t)iocurrent);
 8000818:	bf54      	ite	pl
 800081a:	403d      	andpl	r5, r7
        {
          temp |= iocurrent;
 800081c:	4335      	orrmi	r5, r6
        }
        EXTI->FTSR = temp;
 800081e:	60d5      	str	r5, [r2, #12]
  for(position = 0U; position < GPIO_NUMBER; position++)
 8000820:	3301      	adds	r3, #1
 8000822:	2b10      	cmp	r3, #16
 8000824:	f47f af47 	bne.w	80006b6 <HAL_GPIO_Init+0x16>
      }
    }
  }
}
 8000828:	b005      	add	sp, #20
 800082a:	e8bd 8ff0 	ldmia.w	sp!, {r4, r5, r6, r7, r8, r9, sl, fp, pc}
        temp |= ((uint32_t)(GPIO_GET_INDEX(GPIOx)) << (4U * (position & 0x03U)));
 800082e:	465d      	mov	r5, fp
 8000830:	e7d5      	b.n	80007de <HAL_GPIO_Init+0x13e>
 8000832:	2501      	movs	r5, #1
 8000834:	e7d3      	b.n	80007de <HAL_GPIO_Init+0x13e>
 8000836:	2502      	movs	r5, #2
 8000838:	e7d1      	b.n	80007de <HAL_GPIO_Init+0x13e>
 800083a:	2503      	movs	r5, #3
 800083c:	e7cf      	b.n	80007de <HAL_GPIO_Init+0x13e>
 800083e:	bf00      	nop
 8000840:	40013c00 	.word	0x40013c00
 8000844:	40020000 	.word	0x40020000
 8000848:	40023800 	.word	0x40023800

0800084c <HAL_RCC_OscConfig>:
  *         supported by this API. User should request a transition to HSE Off
  *         first and then HSE On or HSE Bypass.
  * @retval HAL status
  */
__weak HAL_StatusTypeDef HAL_RCC_OscConfig(RCC_OscInitTypeDef  *RCC_OscInitStruct)
{
 800084c:	e92d 41f3 	stmdb	sp!, {r0, r1, r4, r5, r6, r7, r8, lr}
  uint32_t tickstart;

  /* Check Null pointer */
  if(RCC_OscInitStruct == NULL)
 8000850:	4604      	mov	r4, r0
 8000852:	b918      	cbnz	r0, 800085c <HAL_RCC_OscConfig+0x10>
  {
    return HAL_ERROR;
 8000854:	2001      	movs	r0, #1
    {
      return HAL_ERROR;
    }
  }
  return HAL_OK;
}
 8000856:	b002      	add	sp, #8
 8000858:	e8bd 81f0 	ldmia.w	sp!, {r4, r5, r6, r7, r8, pc}
  if(((RCC_OscInitStruct->OscillatorType) & RCC_OSCILLATORTYPE_HSE) == RCC_OSCILLATORTYPE_HSE)
 800085c:	6803      	ldr	r3, [r0, #0]
 800085e:	07dd      	lsls	r5, r3, #31
 8000860:	d410      	bmi.n	8000884 <HAL_RCC_OscConfig+0x38>
  if(((RCC_OscInitStruct->OscillatorType) & RCC_OSCILLATORTYPE_HSI) == RCC_OSCILLATORTYPE_HSI)
 8000862:	6823      	ldr	r3, [r4, #0]
 8000864:	0798      	lsls	r0, r3, #30
 8000866:	d458      	bmi.n	800091a <HAL_RCC_OscConfig+0xce>
  if(((RCC_OscInitStruct->OscillatorType) & RCC_OSCILLATORTYPE_LSI) == RCC_OSCILLATORTYPE_LSI)
 8000868:	6823      	ldr	r3, [r4, #0]
 800086a:	071a      	lsls	r2, r3, #28
 800086c:	f100 809a 	bmi.w	80009a4 <HAL_RCC_OscConfig+0x158>
  if(((RCC_OscInitStruct->OscillatorType) & RCC_OSCILLATORTYPE_LSE) == RCC_OSCILLATORTYPE_LSE)
 8000870:	6823      	ldr	r3, [r4, #0]
 8000872:	075b      	lsls	r3, r3, #29
 8000874:	f100 80b8 	bmi.w	80009e8 <HAL_RCC_OscConfig+0x19c>
  if ((RCC_OscInitStruct->PLL.PLLState) != RCC_PLL_NONE)
 8000878:	69a2      	ldr	r2, [r4, #24]
 800087a:	2a00      	cmp	r2, #0
 800087c:	f040 8119 	bne.w	8000ab2 <HAL_RCC_OscConfig+0x266>
  return HAL_OK;
 8000880:	2000      	movs	r0, #0
 8000882:	e7e8      	b.n	8000856 <HAL_RCC_OscConfig+0xa>
    if((__HAL_RCC_GET_SYSCLK_SOURCE() == RCC_CFGR_SWS_HSE) ||\
 8000884:	4ba6      	ldr	r3, [pc, #664]	; (8000b20 <HAL_RCC_OscConfig+0x2d4>)
 8000886:	689a      	ldr	r2, [r3, #8]
 8000888:	f002 020c 	and.w	r2, r2, #12
 800088c:	2a04      	cmp	r2, #4
 800088e:	d007      	beq.n	80008a0 <HAL_RCC_OscConfig+0x54>
      ((__HAL_RCC_GET_SYSCLK_SOURCE() == RCC_CFGR_SWS_PLL) && ((RCC->PLLCFGR & RCC_PLLCFGR_PLLSRC) == RCC_PLLCFGR_PLLSRC_HSE)))
 8000890:	689a      	ldr	r2, [r3, #8]
 8000892:	f002 020c 	and.w	r2, r2, #12
    if((__HAL_RCC_GET_SYSCLK_SOURCE() == RCC_CFGR_SWS_HSE) ||\
 8000896:	2a08      	cmp	r2, #8
 8000898:	d10a      	bne.n	80008b0 <HAL_RCC_OscConfig+0x64>
      ((__HAL_RCC_GET_SYSCLK_SOURCE() == RCC_CFGR_SWS_PLL) && ((RCC->PLLCFGR & RCC_PLLCFGR_PLLSRC) == RCC_PLLCFGR_PLLSRC_HSE)))
 800089a:	685b      	ldr	r3, [r3, #4]
 800089c:	0259      	lsls	r1, r3, #9
 800089e:	d507      	bpl.n	80008b0 <HAL_RCC_OscConfig+0x64>
      if((__HAL_RCC_GET_FLAG(RCC_FLAG_HSERDY) != RESET) && (RCC_OscInitStruct->HSEState == RCC_HSE_OFF))
 80008a0:	4b9f      	ldr	r3, [pc, #636]	; (8000b20 <HAL_RCC_OscConfig+0x2d4>)
 80008a2:	681b      	ldr	r3, [r3, #0]
 80008a4:	039a      	lsls	r2, r3, #14
 80008a6:	d5dc      	bpl.n	8000862 <HAL_RCC_OscConfig+0x16>
 80008a8:	6863      	ldr	r3, [r4, #4]
 80008aa:	2b00      	cmp	r3, #0
 80008ac:	d1d9      	bne.n	8000862 <HAL_RCC_OscConfig+0x16>
 80008ae:	e7d1      	b.n	8000854 <HAL_RCC_OscConfig+0x8>
      __HAL_RCC_HSE_CONFIG(RCC_OscInitStruct->HSEState);
 80008b0:	6863      	ldr	r3, [r4, #4]
 80008b2:	4d9b      	ldr	r5, [pc, #620]	; (8000b20 <HAL_RCC_OscConfig+0x2d4>)
 80008b4:	f5b3 3f80 	cmp.w	r3, #65536	; 0x10000
 80008b8:	d111      	bne.n	80008de <HAL_RCC_OscConfig+0x92>
 80008ba:	682b      	ldr	r3, [r5, #0]
 80008bc:	f443 3380 	orr.w	r3, r3, #65536	; 0x10000
 80008c0:	602b      	str	r3, [r5, #0]
        tickstart = HAL_GetTick();
 80008c2:	f7ff fe59 	bl	8000578 <HAL_GetTick>
        while(__HAL_RCC_GET_FLAG(RCC_FLAG_HSERDY) == RESET)
 80008c6:	4d96      	ldr	r5, [pc, #600]	; (8000b20 <HAL_RCC_OscConfig+0x2d4>)
        tickstart = HAL_GetTick();
 80008c8:	4606      	mov	r6, r0
        while(__HAL_RCC_GET_FLAG(RCC_FLAG_HSERDY) == RESET)
 80008ca:	682b      	ldr	r3, [r5, #0]
 80008cc:	039b      	lsls	r3, r3, #14
 80008ce:	d4c8      	bmi.n	8000862 <HAL_RCC_OscConfig+0x16>
          if((HAL_GetTick() - tickstart ) > HSE_TIMEOUT_VALUE)
 80008d0:	f7ff fe52 	bl	8000578 <HAL_GetTick>
 80008d4:	1b80      	subs	r0, r0, r6
 80008d6:	2864      	cmp	r0, #100	; 0x64
 80008d8:	d9f7      	bls.n	80008ca <HAL_RCC_OscConfig+0x7e>
            return HAL_TIMEOUT;
 80008da:	2003      	movs	r0, #3
 80008dc:	e7bb      	b.n	8000856 <HAL_RCC_OscConfig+0xa>
      __HAL_RCC_HSE_CONFIG(RCC_OscInitStruct->HSEState);
 80008de:	f5b3 2fa0 	cmp.w	r3, #327680	; 0x50000
 80008e2:	d104      	bne.n	80008ee <HAL_RCC_OscConfig+0xa2>
 80008e4:	682b      	ldr	r3, [r5, #0]
 80008e6:	f443 2380 	orr.w	r3, r3, #262144	; 0x40000
 80008ea:	602b      	str	r3, [r5, #0]
 80008ec:	e7e5      	b.n	80008ba <HAL_RCC_OscConfig+0x6e>
 80008ee:	682a      	ldr	r2, [r5, #0]
 80008f0:	f422 3280 	bic.w	r2, r2, #65536	; 0x10000
 80008f4:	602a      	str	r2, [r5, #0]
 80008f6:	682a      	ldr	r2, [r5, #0]
 80008f8:	f422 2280 	bic.w	r2, r2, #262144	; 0x40000
 80008fc:	602a      	str	r2, [r5, #0]
      if((RCC_OscInitStruct->HSEState) != RCC_HSE_OFF)
 80008fe:	2b00      	cmp	r3, #0
 8000900:	d1df      	bne.n	80008c2 <HAL_RCC_OscConfig+0x76>
        tickstart = HAL_GetTick();
 8000902:	f7ff fe39 	bl	8000578 <HAL_GetTick>
 8000906:	4606      	mov	r6, r0
        while(__HAL_RCC_GET_FLAG(RCC_FLAG_HSERDY) != RESET)
 8000908:	682b      	ldr	r3, [r5, #0]
 800090a:	039f      	lsls	r7, r3, #14
 800090c:	d5a9      	bpl.n	8000862 <HAL_RCC_OscConfig+0x16>
          if((HAL_GetTick() - tickstart ) > HSE_TIMEOUT_VALUE)
 800090e:	f7ff fe33 	bl	8000578 <HAL_GetTick>
 8000912:	1b80      	subs	r0, r0, r6
 8000914:	2864      	cmp	r0, #100	; 0x64
 8000916:	d9f7      	bls.n	8000908 <HAL_RCC_OscConfig+0xbc>
 8000918:	e7df      	b.n	80008da <HAL_RCC_OscConfig+0x8e>
    if((__HAL_RCC_GET_SYSCLK_SOURCE() == RCC_CFGR_SWS_HSI) ||\
 800091a:	4b81      	ldr	r3, [pc, #516]	; (8000b20 <HAL_RCC_OscConfig+0x2d4>)
 800091c:	689a      	ldr	r2, [r3, #8]
 800091e:	f012 0f0c 	tst.w	r2, #12
 8000922:	d007      	beq.n	8000934 <HAL_RCC_OscConfig+0xe8>
      ((__HAL_RCC_GET_SYSCLK_SOURCE() == RCC_CFGR_SWS_PLL) && ((RCC->PLLCFGR & RCC_PLLCFGR_PLLSRC) == RCC_PLLCFGR_PLLSRC_HSI)))
 8000924:	689a      	ldr	r2, [r3, #8]
 8000926:	f002 020c 	and.w	r2, r2, #12
    if((__HAL_RCC_GET_SYSCLK_SOURCE() == RCC_CFGR_SWS_HSI) ||\
 800092a:	2a08      	cmp	r2, #8
 800092c:	d111      	bne.n	8000952 <HAL_RCC_OscConfig+0x106>
      ((__HAL_RCC_GET_SYSCLK_SOURCE() == RCC_CFGR_SWS_PLL) && ((RCC->PLLCFGR & RCC_PLLCFGR_PLLSRC) == RCC_PLLCFGR_PLLSRC_HSI)))
 800092e:	685b      	ldr	r3, [r3, #4]
 8000930:	025e      	lsls	r6, r3, #9
 8000932:	d40e      	bmi.n	8000952 <HAL_RCC_OscConfig+0x106>
      if((__HAL_RCC_GET_FLAG(RCC_FLAG_HSIRDY) != RESET) && (RCC_OscInitStruct->HSIState != RCC_HSI_ON))
 8000934:	4b7a      	ldr	r3, [pc, #488]	; (8000b20 <HAL_RCC_OscConfig+0x2d4>)
 8000936:	681a      	ldr	r2, [r3, #0]
 8000938:	0795      	lsls	r5, r2, #30
 800093a:	d502      	bpl.n	8000942 <HAL_RCC_OscConfig+0xf6>
 800093c:	68e2      	ldr	r2, [r4, #12]
 800093e:	2a01      	cmp	r2, #1
 8000940:	d188      	bne.n	8000854 <HAL_RCC_OscConfig+0x8>
        __HAL_RCC_HSI_CALIBRATIONVALUE_ADJUST(RCC_OscInitStruct->HSICalibrationValue);
 8000942:	681a      	ldr	r2, [r3, #0]
 8000944:	6921      	ldr	r1, [r4, #16]
 8000946:	f022 02f8 	bic.w	r2, r2, #248	; 0xf8
 800094a:	ea42 02c1 	orr.w	r2, r2, r1, lsl #3
 800094e:	601a      	str	r2, [r3, #0]
      if((__HAL_RCC_GET_FLAG(RCC_FLAG_HSIRDY) != RESET) && (RCC_OscInitStruct->HSIState != RCC_HSI_ON))
 8000950:	e78a      	b.n	8000868 <HAL_RCC_OscConfig+0x1c>
      if((RCC_OscInitStruct->HSIState)!= RCC_HSI_OFF)
 8000952:	68e2      	ldr	r2, [r4, #12]
 8000954:	4b73      	ldr	r3, [pc, #460]	; (8000b24 <HAL_RCC_OscConfig+0x2d8>)
 8000956:	b1b2      	cbz	r2, 8000986 <HAL_RCC_OscConfig+0x13a>
        __HAL_RCC_HSI_ENABLE();
 8000958:	2201      	movs	r2, #1
 800095a:	601a      	str	r2, [r3, #0]
        tickstart = HAL_GetTick();
 800095c:	f7ff fe0c 	bl	8000578 <HAL_GetTick>
        while(__HAL_RCC_GET_FLAG(RCC_FLAG_HSIRDY) == RESET)
 8000960:	4d6f      	ldr	r5, [pc, #444]	; (8000b20 <HAL_RCC_OscConfig+0x2d4>)
        tickstart = HAL_GetTick();
 8000962:	4606      	mov	r6, r0
        while(__HAL_RCC_GET_FLAG(RCC_FLAG_HSIRDY) == RESET)
 8000964:	682b      	ldr	r3, [r5, #0]
 8000966:	0798      	lsls	r0, r3, #30
 8000968:	d507      	bpl.n	800097a <HAL_RCC_OscConfig+0x12e>
        __HAL_RCC_HSI_CALIBRATIONVALUE_ADJUST(RCC_OscInitStruct->HSICalibrationValue);
 800096a:	682b      	ldr	r3, [r5, #0]
 800096c:	6922      	ldr	r2, [r4, #16]
 800096e:	f023 03f8 	bic.w	r3, r3, #248	; 0xf8
 8000972:	ea43 03c2 	orr.w	r3, r3, r2, lsl #3
 8000976:	602b      	str	r3, [r5, #0]
 8000978:	e776      	b.n	8000868 <HAL_RCC_OscConfig+0x1c>
          if((HAL_GetTick() - tickstart ) > HSI_TIMEOUT_VALUE)
 800097a:	f7ff fdfd 	bl	8000578 <HAL_GetTick>
 800097e:	1b80      	subs	r0, r0, r6
 8000980:	2802      	cmp	r0, #2
 8000982:	d9ef      	bls.n	8000964 <HAL_RCC_OscConfig+0x118>
 8000984:	e7a9      	b.n	80008da <HAL_RCC_OscConfig+0x8e>
        __HAL_RCC_HSI_DISABLE();
 8000986:	601a      	str	r2, [r3, #0]
        tickstart = HAL_GetTick();
 8000988:	f7ff fdf6 	bl	8000578 <HAL_GetTick>
        while(__HAL_RCC_GET_FLAG(RCC_FLAG_HSIRDY) != RESET)
 800098c:	4d64      	ldr	r5, [pc, #400]	; (8000b20 <HAL_RCC_OscConfig+0x2d4>)
        tickstart = HAL_GetTick();
 800098e:	4606      	mov	r6, r0
        while(__HAL_RCC_GET_FLAG(RCC_FLAG_HSIRDY) != RESET)
 8000990:	682b      	ldr	r3, [r5, #0]
 8000992:	0799      	lsls	r1, r3, #30
 8000994:	f57f af68 	bpl.w	8000868 <HAL_RCC_OscConfig+0x1c>
          if((HAL_GetTick() - tickstart ) > HSI_TIMEOUT_VALUE)
 8000998:	f7ff fdee 	bl	8000578 <HAL_GetTick>
 800099c:	1b80      	subs	r0, r0, r6
 800099e:	2802      	cmp	r0, #2
 80009a0:	d9f6      	bls.n	8000990 <HAL_RCC_OscConfig+0x144>
 80009a2:	e79a      	b.n	80008da <HAL_RCC_OscConfig+0x8e>
    if((RCC_OscInitStruct->LSIState)!= RCC_LSI_OFF)
 80009a4:	6962      	ldr	r2, [r4, #20]
 80009a6:	4b60      	ldr	r3, [pc, #384]	; (8000b28 <HAL_RCC_OscConfig+0x2dc>)
 80009a8:	b17a      	cbz	r2, 80009ca <HAL_RCC_OscConfig+0x17e>
      __HAL_RCC_LSI_ENABLE();
 80009aa:	2201      	movs	r2, #1
 80009ac:	601a      	str	r2, [r3, #0]
      tickstart = HAL_GetTick();
 80009ae:	f7ff fde3 	bl	8000578 <HAL_GetTick>
      while(__HAL_RCC_GET_FLAG(RCC_FLAG_LSIRDY) == RESET)
 80009b2:	4d5b      	ldr	r5, [pc, #364]	; (8000b20 <HAL_RCC_OscConfig+0x2d4>)
      tickstart = HAL_GetTick();
 80009b4:	4606      	mov	r6, r0
      while(__HAL_RCC_GET_FLAG(RCC_FLAG_LSIRDY) == RESET)
 80009b6:	6f6b      	ldr	r3, [r5, #116]	; 0x74
 80009b8:	079f      	lsls	r7, r3, #30
 80009ba:	f53f af59 	bmi.w	8000870 <HAL_RCC_OscConfig+0x24>
        if((HAL_GetTick() - tickstart ) > LSI_TIMEOUT_VALUE)
 80009be:	f7ff fddb 	bl	8000578 <HAL_GetTick>
 80009c2:	1b80      	subs	r0, r0, r6
 80009c4:	2802      	cmp	r0, #2
 80009c6:	d9f6      	bls.n	80009b6 <HAL_RCC_OscConfig+0x16a>
 80009c8:	e787      	b.n	80008da <HAL_RCC_OscConfig+0x8e>
      __HAL_RCC_LSI_DISABLE();
 80009ca:	601a      	str	r2, [r3, #0]
      tickstart = HAL_GetTick();
 80009cc:	f7ff fdd4 	bl	8000578 <HAL_GetTick>
      while(__HAL_RCC_GET_FLAG(RCC_FLAG_LSIRDY) != RESET)
 80009d0:	4d53      	ldr	r5, [pc, #332]	; (8000b20 <HAL_RCC_OscConfig+0x2d4>)
      tickstart = HAL_GetTick();
 80009d2:	4606      	mov	r6, r0
      while(__HAL_RCC_GET_FLAG(RCC_FLAG_LSIRDY) != RESET)
 80009d4:	6f6b      	ldr	r3, [r5, #116]	; 0x74
 80009d6:	0798      	lsls	r0, r3, #30
 80009d8:	f57f af4a 	bpl.w	8000870 <HAL_RCC_OscConfig+0x24>
        if((HAL_GetTick() - tickstart ) > LSI_TIMEOUT_VALUE)
 80009dc:	f7ff fdcc 	bl	8000578 <HAL_GetTick>
 80009e0:	1b80      	subs	r0, r0, r6
 80009e2:	2802      	cmp	r0, #2
 80009e4:	d9f6      	bls.n	80009d4 <HAL_RCC_OscConfig+0x188>
 80009e6:	e778      	b.n	80008da <HAL_RCC_OscConfig+0x8e>
    if(__HAL_RCC_PWR_IS_CLK_DISABLED())
 80009e8:	4b4d      	ldr	r3, [pc, #308]	; (8000b20 <HAL_RCC_OscConfig+0x2d4>)
 80009ea:	6c1a      	ldr	r2, [r3, #64]	; 0x40
 80009ec:	f012 5280 	ands.w	r2, r2, #268435456	; 0x10000000
 80009f0:	d128      	bne.n	8000a44 <HAL_RCC_OscConfig+0x1f8>
      __HAL_RCC_PWR_CLK_ENABLE();
 80009f2:	9201      	str	r2, [sp, #4]
 80009f4:	6c1a      	ldr	r2, [r3, #64]	; 0x40
 80009f6:	f042 5280 	orr.w	r2, r2, #268435456	; 0x10000000
 80009fa:	641a      	str	r2, [r3, #64]	; 0x40
 80009fc:	6c1b      	ldr	r3, [r3, #64]	; 0x40
 80009fe:	f003 5380 	and.w	r3, r3, #268435456	; 0x10000000
 8000a02:	9301      	str	r3, [sp, #4]
 8000a04:	9b01      	ldr	r3, [sp, #4]
      pwrclkchanged = SET;
 8000a06:	2601      	movs	r6, #1
    if(HAL_IS_BIT_CLR(PWR->CR, PWR_CR_DBP))
 8000a08:	4d48      	ldr	r5, [pc, #288]	; (8000b2c <HAL_RCC_OscConfig+0x2e0>)
 8000a0a:	682b      	ldr	r3, [r5, #0]
 8000a0c:	05d9      	lsls	r1, r3, #23
 8000a0e:	d51b      	bpl.n	8000a48 <HAL_RCC_OscConfig+0x1fc>
    __HAL_RCC_LSE_CONFIG(RCC_OscInitStruct->LSEState);
 8000a10:	68a3      	ldr	r3, [r4, #8]
 8000a12:	4d43      	ldr	r5, [pc, #268]	; (8000b20 <HAL_RCC_OscConfig+0x2d4>)
 8000a14:	2b01      	cmp	r3, #1
 8000a16:	d127      	bne.n	8000a68 <HAL_RCC_OscConfig+0x21c>
 8000a18:	6f2b      	ldr	r3, [r5, #112]	; 0x70
 8000a1a:	f043 0301 	orr.w	r3, r3, #1
 8000a1e:	672b      	str	r3, [r5, #112]	; 0x70
      tickstart = HAL_GetTick();
 8000a20:	f7ff fdaa 	bl	8000578 <HAL_GetTick>
      while(__HAL_RCC_GET_FLAG(RCC_FLAG_LSERDY) == RESET)
 8000a24:	4d3e      	ldr	r5, [pc, #248]	; (8000b20 <HAL_RCC_OscConfig+0x2d4>)
      tickstart = HAL_GetTick();
 8000a26:	4607      	mov	r7, r0
        if((HAL_GetTick() - tickstart ) > RCC_LSE_TIMEOUT_VALUE)
 8000a28:	f241 3888 	movw	r8, #5000	; 0x1388
      while(__HAL_RCC_GET_FLAG(RCC_FLAG_LSERDY) == RESET)
 8000a2c:	6f2b      	ldr	r3, [r5, #112]	; 0x70
 8000a2e:	079b      	lsls	r3, r3, #30
 8000a30:	d539      	bpl.n	8000aa6 <HAL_RCC_OscConfig+0x25a>
    if(pwrclkchanged == SET)
 8000a32:	2e00      	cmp	r6, #0
 8000a34:	f43f af20 	beq.w	8000878 <HAL_RCC_OscConfig+0x2c>
      __HAL_RCC_PWR_CLK_DISABLE();
 8000a38:	4a39      	ldr	r2, [pc, #228]	; (8000b20 <HAL_RCC_OscConfig+0x2d4>)
 8000a3a:	6c13      	ldr	r3, [r2, #64]	; 0x40
 8000a3c:	f023 5380 	bic.w	r3, r3, #268435456	; 0x10000000
 8000a40:	6413      	str	r3, [r2, #64]	; 0x40
 8000a42:	e719      	b.n	8000878 <HAL_RCC_OscConfig+0x2c>
    FlagStatus       pwrclkchanged = RESET;
 8000a44:	2600      	movs	r6, #0
 8000a46:	e7df      	b.n	8000a08 <HAL_RCC_OscConfig+0x1bc>
      SET_BIT(PWR->CR, PWR_CR_DBP);
 8000a48:	682b      	ldr	r3, [r5, #0]
 8000a4a:	f443 7380 	orr.w	r3, r3, #256	; 0x100
 8000a4e:	602b      	str	r3, [r5, #0]
      tickstart = HAL_GetTick();
 8000a50:	f7ff fd92 	bl	8000578 <HAL_GetTick>
 8000a54:	4607      	mov	r7, r0
      while(HAL_IS_BIT_CLR(PWR->CR, PWR_CR_DBP))
 8000a56:	682b      	ldr	r3, [r5, #0]
 8000a58:	05da      	lsls	r2, r3, #23
 8000a5a:	d4d9      	bmi.n	8000a10 <HAL_RCC_OscConfig+0x1c4>
        if((HAL_GetTick() - tickstart) > RCC_DBP_TIMEOUT_VALUE)
 8000a5c:	f7ff fd8c 	bl	8000578 <HAL_GetTick>
 8000a60:	1bc0      	subs	r0, r0, r7
 8000a62:	2802      	cmp	r0, #2
 8000a64:	d9f7      	bls.n	8000a56 <HAL_RCC_OscConfig+0x20a>
 8000a66:	e738      	b.n	80008da <HAL_RCC_OscConfig+0x8e>
    __HAL_RCC_LSE_CONFIG(RCC_OscInitStruct->LSEState);
 8000a68:	2b05      	cmp	r3, #5
 8000a6a:	d104      	bne.n	8000a76 <HAL_RCC_OscConfig+0x22a>
 8000a6c:	6f2b      	ldr	r3, [r5, #112]	; 0x70
 8000a6e:	f043 0304 	orr.w	r3, r3, #4
 8000a72:	672b      	str	r3, [r5, #112]	; 0x70
 8000a74:	e7d0      	b.n	8000a18 <HAL_RCC_OscConfig+0x1cc>
 8000a76:	6f2a      	ldr	r2, [r5, #112]	; 0x70
 8000a78:	f022 0201 	bic.w	r2, r2, #1
 8000a7c:	672a      	str	r2, [r5, #112]	; 0x70
 8000a7e:	6f2a      	ldr	r2, [r5, #112]	; 0x70
 8000a80:	f022 0204 	bic.w	r2, r2, #4
 8000a84:	672a      	str	r2, [r5, #112]	; 0x70
    if((RCC_OscInitStruct->LSEState) != RCC_LSE_OFF)
 8000a86:	2b00      	cmp	r3, #0
 8000a88:	d1ca      	bne.n	8000a20 <HAL_RCC_OscConfig+0x1d4>
      tickstart = HAL_GetTick();
 8000a8a:	f7ff fd75 	bl	8000578 <HAL_GetTick>
        if((HAL_GetTick() - tickstart ) > RCC_LSE_TIMEOUT_VALUE)
 8000a8e:	f241 3888 	movw	r8, #5000	; 0x1388
      tickstart = HAL_GetTick();
 8000a92:	4607      	mov	r7, r0
      while(__HAL_RCC_GET_FLAG(RCC_FLAG_LSERDY) != RESET)
 8000a94:	6f2b      	ldr	r3, [r5, #112]	; 0x70
 8000a96:	0798      	lsls	r0, r3, #30
 8000a98:	d5cb      	bpl.n	8000a32 <HAL_RCC_OscConfig+0x1e6>
        if((HAL_GetTick() - tickstart ) > RCC_LSE_TIMEOUT_VALUE)
 8000a9a:	f7ff fd6d 	bl	8000578 <HAL_GetTick>
 8000a9e:	1bc0      	subs	r0, r0, r7
 8000aa0:	4540      	cmp	r0, r8
 8000aa2:	d9f7      	bls.n	8000a94 <HAL_RCC_OscConfig+0x248>
 8000aa4:	e719      	b.n	80008da <HAL_RCC_OscConfig+0x8e>
        if((HAL_GetTick() - tickstart ) > RCC_LSE_TIMEOUT_VALUE)
 8000aa6:	f7ff fd67 	bl	8000578 <HAL_GetTick>
 8000aaa:	1bc0      	subs	r0, r0, r7
 8000aac:	4540      	cmp	r0, r8
 8000aae:	d9bd      	bls.n	8000a2c <HAL_RCC_OscConfig+0x1e0>
 8000ab0:	e713      	b.n	80008da <HAL_RCC_OscConfig+0x8e>
    if(__HAL_RCC_GET_SYSCLK_SOURCE() != RCC_CFGR_SWS_PLL)
 8000ab2:	4d1b      	ldr	r5, [pc, #108]	; (8000b20 <HAL_RCC_OscConfig+0x2d4>)
 8000ab4:	68ab      	ldr	r3, [r5, #8]
 8000ab6:	f003 030c 	and.w	r3, r3, #12
 8000aba:	2b08      	cmp	r3, #8
 8000abc:	f43f aeca 	beq.w	8000854 <HAL_RCC_OscConfig+0x8>
 8000ac0:	4e1b      	ldr	r6, [pc, #108]	; (8000b30 <HAL_RCC_OscConfig+0x2e4>)
 8000ac2:	2300      	movs	r3, #0
      if((RCC_OscInitStruct->PLL.PLLState) == RCC_PLL_ON)
 8000ac4:	2a02      	cmp	r2, #2
        __HAL_RCC_PLL_DISABLE();
 8000ac6:	6033      	str	r3, [r6, #0]
      if((RCC_OscInitStruct->PLL.PLLState) == RCC_PLL_ON)
 8000ac8:	d134      	bne.n	8000b34 <HAL_RCC_OscConfig+0x2e8>
        tickstart = HAL_GetTick();
 8000aca:	f7ff fd55 	bl	8000578 <HAL_GetTick>
 8000ace:	4607      	mov	r7, r0
        while(__HAL_RCC_GET_FLAG(RCC_FLAG_PLLRDY) != RESET)
 8000ad0:	682b      	ldr	r3, [r5, #0]
 8000ad2:	0199      	lsls	r1, r3, #6
 8000ad4:	d41e      	bmi.n	8000b14 <HAL_RCC_OscConfig+0x2c8>
        WRITE_REG(RCC->PLLCFGR, (RCC_OscInitStruct->PLL.PLLSource                                            | \
 8000ad6:	6a22      	ldr	r2, [r4, #32]
 8000ad8:	69e3      	ldr	r3, [r4, #28]
 8000ada:	4313      	orrs	r3, r2
 8000adc:	6a62      	ldr	r2, [r4, #36]	; 0x24
 8000ade:	ea43 1382 	orr.w	r3, r3, r2, lsl #6
 8000ae2:	6ae2      	ldr	r2, [r4, #44]	; 0x2c
 8000ae4:	ea43 6302 	orr.w	r3, r3, r2, lsl #24
 8000ae8:	6aa2      	ldr	r2, [r4, #40]	; 0x28
        while(__HAL_RCC_GET_FLAG(RCC_FLAG_PLLRDY) == RESET)
 8000aea:	4c0d      	ldr	r4, [pc, #52]	; (8000b20 <HAL_RCC_OscConfig+0x2d4>)
        WRITE_REG(RCC->PLLCFGR, (RCC_OscInitStruct->PLL.PLLSource                                            | \
 8000aec:	0852      	lsrs	r2, r2, #1
 8000aee:	3a01      	subs	r2, #1
 8000af0:	ea43 4302 	orr.w	r3, r3, r2, lsl #16
 8000af4:	606b      	str	r3, [r5, #4]
        __HAL_RCC_PLL_ENABLE();
 8000af6:	2301      	movs	r3, #1
 8000af8:	6033      	str	r3, [r6, #0]
        tickstart = HAL_GetTick();
 8000afa:	f7ff fd3d 	bl	8000578 <HAL_GetTick>
 8000afe:	4605      	mov	r5, r0
        while(__HAL_RCC_GET_FLAG(RCC_FLAG_PLLRDY) == RESET)
 8000b00:	6823      	ldr	r3, [r4, #0]
 8000b02:	019a      	lsls	r2, r3, #6
 8000b04:	f53f aebc 	bmi.w	8000880 <HAL_RCC_OscConfig+0x34>
          if((HAL_GetTick() - tickstart ) > PLL_TIMEOUT_VALUE)
 8000b08:	f7ff fd36 	bl	8000578 <HAL_GetTick>
 8000b0c:	1b40      	subs	r0, r0, r5
 8000b0e:	2802      	cmp	r0, #2
 8000b10:	d9f6      	bls.n	8000b00 <HAL_RCC_OscConfig+0x2b4>
 8000b12:	e6e2      	b.n	80008da <HAL_RCC_OscConfig+0x8e>
          if((HAL_GetTick() - tickstart ) > PLL_TIMEOUT_VALUE)
 8000b14:	f7ff fd30 	bl	8000578 <HAL_GetTick>
 8000b18:	1bc0      	subs	r0, r0, r7
 8000b1a:	2802      	cmp	r0, #2
 8000b1c:	d9d8      	bls.n	8000ad0 <HAL_RCC_OscConfig+0x284>
 8000b1e:	e6dc      	b.n	80008da <HAL_RCC_OscConfig+0x8e>
 8000b20:	40023800 	.word	0x40023800
 8000b24:	42470000 	.word	0x42470000
 8000b28:	42470e80 	.word	0x42470e80
 8000b2c:	40007000 	.word	0x40007000
 8000b30:	42470060 	.word	0x42470060
        tickstart = HAL_GetTick();
 8000b34:	f7ff fd20 	bl	8000578 <HAL_GetTick>
 8000b38:	4604      	mov	r4, r0
        while(__HAL_RCC_GET_FLAG(RCC_FLAG_PLLRDY) != RESET)
 8000b3a:	682b      	ldr	r3, [r5, #0]
 8000b3c:	019b      	lsls	r3, r3, #6
 8000b3e:	f57f ae9f 	bpl.w	8000880 <HAL_RCC_OscConfig+0x34>
          if((HAL_GetTick() - tickstart ) > PLL_TIMEOUT_VALUE)
 8000b42:	f7ff fd19 	bl	8000578 <HAL_GetTick>
 8000b46:	1b00      	subs	r0, r0, r4
 8000b48:	2802      	cmp	r0, #2
 8000b4a:	d9f6      	bls.n	8000b3a <HAL_RCC_OscConfig+0x2ee>
 8000b4c:	e6c5      	b.n	80008da <HAL_RCC_OscConfig+0x8e>
 8000b4e:	bf00      	nop

08000b50 <HAL_RCC_GetSysClockFreq>:
{
  uint32_t pllm = 0U, pllvco = 0U, pllp = 0U;
  uint32_t sysclockfreq = 0U;

  /* Get SYSCLK source -------------------------------------------------------*/
  switch (RCC->CFGR & RCC_CFGR_SWS)
 8000b50:	4913      	ldr	r1, [pc, #76]	; (8000ba0 <HAL_RCC_GetSysClockFreq+0x50>)
{
 8000b52:	b508      	push	{r3, lr}
  switch (RCC->CFGR & RCC_CFGR_SWS)
 8000b54:	688b      	ldr	r3, [r1, #8]
 8000b56:	f003 030c 	and.w	r3, r3, #12
 8000b5a:	2b04      	cmp	r3, #4
 8000b5c:	d003      	beq.n	8000b66 <HAL_RCC_GetSysClockFreq+0x16>
 8000b5e:	2b08      	cmp	r3, #8
 8000b60:	d003      	beq.n	8000b6a <HAL_RCC_GetSysClockFreq+0x1a>
  {
    case RCC_CFGR_SWS_HSI:  /* HSI used as system clock source */
    {
      sysclockfreq = HSI_VALUE;
 8000b62:	4810      	ldr	r0, [pc, #64]	; (8000ba4 <HAL_RCC_GetSysClockFreq+0x54>)
      sysclockfreq = HSI_VALUE;
      break;
    }
  }
  return sysclockfreq;
}
 8000b64:	bd08      	pop	{r3, pc}
      sysclockfreq = HSE_VALUE;
 8000b66:	4810      	ldr	r0, [pc, #64]	; (8000ba8 <HAL_RCC_GetSysClockFreq+0x58>)
 8000b68:	bd08      	pop	{r3, pc}
      pllm = RCC->PLLCFGR & RCC_PLLCFGR_PLLM;
 8000b6a:	684a      	ldr	r2, [r1, #4]
      if(__HAL_RCC_GET_PLL_OSCSOURCE() != RCC_PLLSOURCE_HSI)
 8000b6c:	684b      	ldr	r3, [r1, #4]
        pllvco = (uint32_t) ((((uint64_t) HSE_VALUE * ((uint64_t) ((RCC->PLLCFGR & RCC_PLLCFGR_PLLN) >> RCC_PLLCFGR_PLLN_Pos)))) / (uint64_t)pllm);
 8000b6e:	6849      	ldr	r1, [r1, #4]
      if(__HAL_RCC_GET_PLL_OSCSOURCE() != RCC_PLLSOURCE_HSI)
 8000b70:	f413 0380 	ands.w	r3, r3, #4194304	; 0x400000
        pllvco = (uint32_t) ((((uint64_t) HSE_VALUE * ((uint64_t) ((RCC->PLLCFGR & RCC_PLLCFGR_PLLN) >> RCC_PLLCFGR_PLLN_Pos)))) / (uint64_t)pllm);
 8000b74:	bf14      	ite	ne
 8000b76:	480c      	ldrne	r0, [pc, #48]	; (8000ba8 <HAL_RCC_GetSysClockFreq+0x58>)
        pllvco = (uint32_t) ((((uint64_t) HSI_VALUE * ((uint64_t) ((RCC->PLLCFGR & RCC_PLLCFGR_PLLN) >> RCC_PLLCFGR_PLLN_Pos)))) / (uint64_t)pllm);
 8000b78:	480a      	ldreq	r0, [pc, #40]	; (8000ba4 <HAL_RCC_GetSysClockFreq+0x54>)
        pllvco = (uint32_t) ((((uint64_t) HSE_VALUE * ((uint64_t) ((RCC->PLLCFGR & RCC_PLLCFGR_PLLN) >> RCC_PLLCFGR_PLLN_Pos)))) / (uint64_t)pllm);
 8000b7a:	f3c1 1188 	ubfx	r1, r1, #6, #9
 8000b7e:	bf18      	it	ne
 8000b80:	2300      	movne	r3, #0
      pllm = RCC->PLLCFGR & RCC_PLLCFGR_PLLM;
 8000b82:	f002 023f 	and.w	r2, r2, #63	; 0x3f
        pllvco = (uint32_t) ((((uint64_t) HSI_VALUE * ((uint64_t) ((RCC->PLLCFGR & RCC_PLLCFGR_PLLN) >> RCC_PLLCFGR_PLLN_Pos)))) / (uint64_t)pllm);
 8000b86:	fba1 0100 	umull	r0, r1, r1, r0
 8000b8a:	f7ff fb23 	bl	80001d4 <__aeabi_uldivmod>
      pllp = ((((RCC->PLLCFGR & RCC_PLLCFGR_PLLP) >> RCC_PLLCFGR_PLLP_Pos) + 1U) *2U);
 8000b8e:	4b04      	ldr	r3, [pc, #16]	; (8000ba0 <HAL_RCC_GetSysClockFreq+0x50>)
 8000b90:	685b      	ldr	r3, [r3, #4]
 8000b92:	f3c3 4301 	ubfx	r3, r3, #16, #2
 8000b96:	3301      	adds	r3, #1
 8000b98:	005b      	lsls	r3, r3, #1
      sysclockfreq = pllvco/pllp;
 8000b9a:	fbb0 f0f3 	udiv	r0, r0, r3
 8000b9e:	bd08      	pop	{r3, pc}
 8000ba0:	40023800 	.word	0x40023800
 8000ba4:	00f42400 	.word	0x00f42400
 8000ba8:	007a1200 	.word	0x007a1200

08000bac <HAL_RCC_ClockConfig>:
{
 8000bac:	e92d 41f0 	stmdb	sp!, {r4, r5, r6, r7, r8, lr}
 8000bb0:	460d      	mov	r5, r1
  if(RCC_ClkInitStruct == NULL)
 8000bb2:	4604      	mov	r4, r0
 8000bb4:	b910      	cbnz	r0, 8000bbc <HAL_RCC_ClockConfig+0x10>
    return HAL_ERROR;
 8000bb6:	2001      	movs	r0, #1
 8000bb8:	e8bd 81f0 	ldmia.w	sp!, {r4, r5, r6, r7, r8, pc}
  if(FLatency > __HAL_FLASH_GET_LATENCY())
 8000bbc:	4b44      	ldr	r3, [pc, #272]	; (8000cd0 <HAL_RCC_ClockConfig+0x124>)
 8000bbe:	681a      	ldr	r2, [r3, #0]
 8000bc0:	f002 020f 	and.w	r2, r2, #15
 8000bc4:	428a      	cmp	r2, r1
 8000bc6:	d328      	bcc.n	8000c1a <HAL_RCC_ClockConfig+0x6e>
  if(((RCC_ClkInitStruct->ClockType) & RCC_CLOCKTYPE_HCLK) == RCC_CLOCKTYPE_HCLK)
 8000bc8:	6821      	ldr	r1, [r4, #0]
 8000bca:	078f      	lsls	r7, r1, #30
 8000bcc:	d42d      	bmi.n	8000c2a <HAL_RCC_ClockConfig+0x7e>
  if(((RCC_ClkInitStruct->ClockType) & RCC_CLOCKTYPE_SYSCLK) == RCC_CLOCKTYPE_SYSCLK)
 8000bce:	07c8      	lsls	r0, r1, #31
 8000bd0:	d440      	bmi.n	8000c54 <HAL_RCC_ClockConfig+0xa8>
  if(FLatency < __HAL_FLASH_GET_LATENCY())
 8000bd2:	4b3f      	ldr	r3, [pc, #252]	; (8000cd0 <HAL_RCC_ClockConfig+0x124>)
 8000bd4:	681a      	ldr	r2, [r3, #0]
 8000bd6:	f002 020f 	and.w	r2, r2, #15
 8000bda:	4295      	cmp	r5, r2
 8000bdc:	d366      	bcc.n	8000cac <HAL_RCC_ClockConfig+0x100>
  if(((RCC_ClkInitStruct->ClockType) & RCC_CLOCKTYPE_PCLK1) == RCC_CLOCKTYPE_PCLK1)
 8000bde:	6822      	ldr	r2, [r4, #0]
 8000be0:	0751      	lsls	r1, r2, #29
 8000be2:	d46c      	bmi.n	8000cbe <HAL_RCC_ClockConfig+0x112>
  if(((RCC_ClkInitStruct->ClockType) & RCC_CLOCKTYPE_PCLK2) == RCC_CLOCKTYPE_PCLK2)
 8000be4:	0713      	lsls	r3, r2, #28
 8000be6:	d507      	bpl.n	8000bf8 <HAL_RCC_ClockConfig+0x4c>
    MODIFY_REG(RCC->CFGR, RCC_CFGR_PPRE2, ((RCC_ClkInitStruct->APB2CLKDivider) << 3U));
 8000be8:	4a3a      	ldr	r2, [pc, #232]	; (8000cd4 <HAL_RCC_ClockConfig+0x128>)
 8000bea:	6921      	ldr	r1, [r4, #16]
 8000bec:	6893      	ldr	r3, [r2, #8]
 8000bee:	f423 4360 	bic.w	r3, r3, #57344	; 0xe000
 8000bf2:	ea43 03c1 	orr.w	r3, r3, r1, lsl #3
 8000bf6:	6093      	str	r3, [r2, #8]
  SystemCoreClock = HAL_RCC_GetSysClockFreq() >> AHBPrescTable[(RCC->CFGR & RCC_CFGR_HPRE)>> RCC_CFGR_HPRE_Pos];
 8000bf8:	f7ff ffaa 	bl	8000b50 <HAL_RCC_GetSysClockFreq>
 8000bfc:	4b35      	ldr	r3, [pc, #212]	; (8000cd4 <HAL_RCC_ClockConfig+0x128>)
 8000bfe:	4a36      	ldr	r2, [pc, #216]	; (8000cd8 <HAL_RCC_ClockConfig+0x12c>)
 8000c00:	689b      	ldr	r3, [r3, #8]
 8000c02:	f3c3 1303 	ubfx	r3, r3, #4, #4
 8000c06:	5cd3      	ldrb	r3, [r2, r3]
 8000c08:	40d8      	lsrs	r0, r3
 8000c0a:	4b34      	ldr	r3, [pc, #208]	; (8000cdc <HAL_RCC_ClockConfig+0x130>)
 8000c0c:	6018      	str	r0, [r3, #0]
  HAL_InitTick (TICK_INT_PRIORITY);
 8000c0e:	2000      	movs	r0, #0
 8000c10:	f7ff fc68 	bl	80004e4 <HAL_InitTick>
  return HAL_OK;
 8000c14:	2000      	movs	r0, #0
 8000c16:	e8bd 81f0 	ldmia.w	sp!, {r4, r5, r6, r7, r8, pc}
    __HAL_FLASH_SET_LATENCY(FLatency);
 8000c1a:	b2ca      	uxtb	r2, r1
 8000c1c:	701a      	strb	r2, [r3, #0]
    if(__HAL_FLASH_GET_LATENCY() != FLatency)
 8000c1e:	681b      	ldr	r3, [r3, #0]
 8000c20:	f003 030f 	and.w	r3, r3, #15
 8000c24:	4299      	cmp	r1, r3
 8000c26:	d1c6      	bne.n	8000bb6 <HAL_RCC_ClockConfig+0xa>
 8000c28:	e7ce      	b.n	8000bc8 <HAL_RCC_ClockConfig+0x1c>
 8000c2a:	4b2a      	ldr	r3, [pc, #168]	; (8000cd4 <HAL_RCC_ClockConfig+0x128>)
    if(((RCC_ClkInitStruct->ClockType) & RCC_CLOCKTYPE_PCLK1) == RCC_CLOCKTYPE_PCLK1)
 8000c2c:	f011 0f04 	tst.w	r1, #4
      MODIFY_REG(RCC->CFGR, RCC_CFGR_PPRE1, RCC_HCLK_DIV16);
 8000c30:	bf1e      	ittt	ne
 8000c32:	689a      	ldrne	r2, [r3, #8]
 8000c34:	f442 52e0 	orrne.w	r2, r2, #7168	; 0x1c00
 8000c38:	609a      	strne	r2, [r3, #8]
    if(((RCC_ClkInitStruct->ClockType) & RCC_CLOCKTYPE_PCLK2) == RCC_CLOCKTYPE_PCLK2)
 8000c3a:	070e      	lsls	r6, r1, #28
      MODIFY_REG(RCC->CFGR, RCC_CFGR_PPRE2, (RCC_HCLK_DIV16 << 3));
 8000c3c:	bf42      	ittt	mi
 8000c3e:	689a      	ldrmi	r2, [r3, #8]
 8000c40:	f442 4260 	orrmi.w	r2, r2, #57344	; 0xe000
 8000c44:	609a      	strmi	r2, [r3, #8]
    MODIFY_REG(RCC->CFGR, RCC_CFGR_HPRE, RCC_ClkInitStruct->AHBCLKDivider);
 8000c46:	689a      	ldr	r2, [r3, #8]
 8000c48:	68a0      	ldr	r0, [r4, #8]
 8000c4a:	f022 02f0 	bic.w	r2, r2, #240	; 0xf0
 8000c4e:	4302      	orrs	r2, r0
 8000c50:	609a      	str	r2, [r3, #8]
 8000c52:	e7bc      	b.n	8000bce <HAL_RCC_ClockConfig+0x22>
    if(RCC_ClkInitStruct->SYSCLKSource == RCC_SYSCLKSOURCE_HSE)
 8000c54:	6862      	ldr	r2, [r4, #4]
 8000c56:	4b1f      	ldr	r3, [pc, #124]	; (8000cd4 <HAL_RCC_ClockConfig+0x128>)
 8000c58:	2a01      	cmp	r2, #1
 8000c5a:	d11d      	bne.n	8000c98 <HAL_RCC_ClockConfig+0xec>
      if(__HAL_RCC_GET_FLAG(RCC_FLAG_HSERDY) == RESET)
 8000c5c:	681b      	ldr	r3, [r3, #0]
 8000c5e:	f413 3f00 	tst.w	r3, #131072	; 0x20000
      if(__HAL_RCC_GET_FLAG(RCC_FLAG_HSIRDY) == RESET)
 8000c62:	d0a8      	beq.n	8000bb6 <HAL_RCC_ClockConfig+0xa>
    __HAL_RCC_SYSCLK_CONFIG(RCC_ClkInitStruct->SYSCLKSource);
 8000c64:	4e1b      	ldr	r6, [pc, #108]	; (8000cd4 <HAL_RCC_ClockConfig+0x128>)
 8000c66:	68b3      	ldr	r3, [r6, #8]
 8000c68:	f023 0303 	bic.w	r3, r3, #3
 8000c6c:	4313      	orrs	r3, r2
 8000c6e:	60b3      	str	r3, [r6, #8]
    tickstart = HAL_GetTick();
 8000c70:	f7ff fc82 	bl	8000578 <HAL_GetTick>
      if ((HAL_GetTick() - tickstart) > CLOCKSWITCH_TIMEOUT_VALUE)
 8000c74:	f241 3888 	movw	r8, #5000	; 0x1388
    tickstart = HAL_GetTick();
 8000c78:	4607      	mov	r7, r0
    while (__HAL_RCC_GET_SYSCLK_SOURCE() != (RCC_ClkInitStruct->SYSCLKSource << RCC_CFGR_SWS_Pos))
 8000c7a:	68b3      	ldr	r3, [r6, #8]
 8000c7c:	6862      	ldr	r2, [r4, #4]
 8000c7e:	f003 030c 	and.w	r3, r3, #12
 8000c82:	ebb3 0f82 	cmp.w	r3, r2, lsl #2
 8000c86:	d0a4      	beq.n	8000bd2 <HAL_RCC_ClockConfig+0x26>
      if ((HAL_GetTick() - tickstart) > CLOCKSWITCH_TIMEOUT_VALUE)
 8000c88:	f7ff fc76 	bl	8000578 <HAL_GetTick>
 8000c8c:	1bc0      	subs	r0, r0, r7
 8000c8e:	4540      	cmp	r0, r8
 8000c90:	d9f3      	bls.n	8000c7a <HAL_RCC_ClockConfig+0xce>
        return HAL_TIMEOUT;
 8000c92:	2003      	movs	r0, #3
}
 8000c94:	e8bd 81f0 	ldmia.w	sp!, {r4, r5, r6, r7, r8, pc}
    else if((RCC_ClkInitStruct->SYSCLKSource == RCC_SYSCLKSOURCE_PLLCLK)   ||
 8000c98:	1e91      	subs	r1, r2, #2
 8000c9a:	2901      	cmp	r1, #1
      if(__HAL_RCC_GET_FLAG(RCC_FLAG_PLLRDY) == RESET)
 8000c9c:	681b      	ldr	r3, [r3, #0]
    else if((RCC_ClkInitStruct->SYSCLKSource == RCC_SYSCLKSOURCE_PLLCLK)   ||
 8000c9e:	d802      	bhi.n	8000ca6 <HAL_RCC_ClockConfig+0xfa>
      if(__HAL_RCC_GET_FLAG(RCC_FLAG_PLLRDY) == RESET)
 8000ca0:	f013 7f00 	tst.w	r3, #33554432	; 0x2000000
 8000ca4:	e7dd      	b.n	8000c62 <HAL_RCC_ClockConfig+0xb6>
      if(__HAL_RCC_GET_FLAG(RCC_FLAG_HSIRDY) == RESET)
 8000ca6:	f013 0f02 	tst.w	r3, #2
 8000caa:	e7da      	b.n	8000c62 <HAL_RCC_ClockConfig+0xb6>
    __HAL_FLASH_SET_LATENCY(FLatency);
 8000cac:	b2ea      	uxtb	r2, r5
 8000cae:	701a      	strb	r2, [r3, #0]
    if(__HAL_FLASH_GET_LATENCY() != FLatency)
 8000cb0:	681b      	ldr	r3, [r3, #0]
 8000cb2:	f003 030f 	and.w	r3, r3, #15
 8000cb6:	429d      	cmp	r5, r3
 8000cb8:	f47f af7d 	bne.w	8000bb6 <HAL_RCC_ClockConfig+0xa>
 8000cbc:	e78f      	b.n	8000bde <HAL_RCC_ClockConfig+0x32>
    MODIFY_REG(RCC->CFGR, RCC_CFGR_PPRE1, RCC_ClkInitStruct->APB1CLKDivider);
 8000cbe:	4905      	ldr	r1, [pc, #20]	; (8000cd4 <HAL_RCC_ClockConfig+0x128>)
 8000cc0:	68e0      	ldr	r0, [r4, #12]
 8000cc2:	688b      	ldr	r3, [r1, #8]
 8000cc4:	f423 53e0 	bic.w	r3, r3, #7168	; 0x1c00
 8000cc8:	4303      	orrs	r3, r0
 8000cca:	608b      	str	r3, [r1, #8]
 8000ccc:	e78a      	b.n	8000be4 <HAL_RCC_ClockConfig+0x38>
 8000cce:	bf00      	nop
 8000cd0:	40023c00 	.word	0x40023c00
 8000cd4:	40023800 	.word	0x40023800
 8000cd8:	08001ae8 	.word	0x08001ae8
 8000cdc:	20000008 	.word	0x20000008

08000ce0 <HAL_RCC_GetHCLKFreq>:
  * @retval HCLK frequency
  */
uint32_t HAL_RCC_GetHCLKFreq(void)
{
  return SystemCoreClock;
}
 8000ce0:	4b01      	ldr	r3, [pc, #4]	; (8000ce8 <HAL_RCC_GetHCLKFreq+0x8>)
 8000ce2:	6818      	ldr	r0, [r3, #0]
 8000ce4:	4770      	bx	lr
 8000ce6:	bf00      	nop
 8000ce8:	20000008 	.word	0x20000008

08000cec <HAL_RCC_GetPCLK1Freq>:
  * @retval PCLK1 frequency
  */
uint32_t HAL_RCC_GetPCLK1Freq(void)
{
  /* Get HCLK source and Compute PCLK1 frequency ---------------------------*/
  return (HAL_RCC_GetHCLKFreq() >> APBPrescTable[(RCC->CFGR & RCC_CFGR_PPRE1)>> RCC_CFGR_PPRE1_Pos]);
 8000cec:	4b04      	ldr	r3, [pc, #16]	; (8000d00 <HAL_RCC_GetPCLK1Freq+0x14>)
 8000cee:	4a05      	ldr	r2, [pc, #20]	; (8000d04 <HAL_RCC_GetPCLK1Freq+0x18>)
 8000cf0:	689b      	ldr	r3, [r3, #8]
 8000cf2:	f3c3 2382 	ubfx	r3, r3, #10, #3
 8000cf6:	5cd3      	ldrb	r3, [r2, r3]
 8000cf8:	4a03      	ldr	r2, [pc, #12]	; (8000d08 <HAL_RCC_GetPCLK1Freq+0x1c>)
 8000cfa:	6810      	ldr	r0, [r2, #0]
}
 8000cfc:	40d8      	lsrs	r0, r3
 8000cfe:	4770      	bx	lr
 8000d00:	40023800 	.word	0x40023800
 8000d04:	08001af8 	.word	0x08001af8
 8000d08:	20000008 	.word	0x20000008

08000d0c <HAL_RCC_GetPCLK2Freq>:
  * @retval PCLK2 frequency
  */
uint32_t HAL_RCC_GetPCLK2Freq(void)
{
  /* Get HCLK source and Compute PCLK2 frequency ---------------------------*/
  return (HAL_RCC_GetHCLKFreq()>> APBPrescTable[(RCC->CFGR & RCC_CFGR_PPRE2)>> RCC_CFGR_PPRE2_Pos]);
 8000d0c:	4b04      	ldr	r3, [pc, #16]	; (8000d20 <HAL_RCC_GetPCLK2Freq+0x14>)
 8000d0e:	4a05      	ldr	r2, [pc, #20]	; (8000d24 <HAL_RCC_GetPCLK2Freq+0x18>)
 8000d10:	689b      	ldr	r3, [r3, #8]
 8000d12:	f3c3 3342 	ubfx	r3, r3, #13, #3
 8000d16:	5cd3      	ldrb	r3, [r2, r3]
 8000d18:	4a03      	ldr	r2, [pc, #12]	; (8000d28 <HAL_RCC_GetPCLK2Freq+0x1c>)
 8000d1a:	6810      	ldr	r0, [r2, #0]
}
 8000d1c:	40d8      	lsrs	r0, r3
 8000d1e:	4770      	bx	lr
 8000d20:	40023800 	.word	0x40023800
 8000d24:	08001af8 	.word	0x08001af8
 8000d28:	20000008 	.word	0x20000008

08000d2c <TIM_OC1_SetConfig>:
  uint32_t tmpccmrx = 0U;
  uint32_t tmpccer = 0U;
  uint32_t tmpcr2 = 0U;  

  /* Disable the Channel 1: Reset the CC1E Bit */
  TIMx->CCER &= ~TIM_CCER_CC1E;
 8000d2c:	6a03      	ldr	r3, [r0, #32]
 8000d2e:	f023 0301 	bic.w	r3, r3, #1
 8000d32:	6203      	str	r3, [r0, #32]
  
  /* Get the TIMx CCER register value */
  tmpccer = TIMx->CCER;
 8000d34:	6a03      	ldr	r3, [r0, #32]
{
 8000d36:	b570      	push	{r4, r5, r6, lr}
  /* Get the TIMx CR2 register value */
  tmpcr2 = TIMx->CR2;
 8000d38:	6844      	ldr	r4, [r0, #4]
  
  /* Get the TIMx CCMR1 register value */
  tmpccmrx = TIMx->CCMR1;
 8000d3a:	6982      	ldr	r2, [r0, #24]
    
  /* Reset the Output Compare Mode Bits */
  tmpccmrx &= ~TIM_CCMR1_OC1M;
  tmpccmrx &= ~TIM_CCMR1_CC1S;
  /* Select the Output Compare Mode */
  tmpccmrx |= OC_Config->OCMode;
 8000d3c:	680d      	ldr	r5, [r1, #0]
  tmpccmrx &= ~TIM_CCMR1_CC1S;
 8000d3e:	f022 0273 	bic.w	r2, r2, #115	; 0x73
  tmpccmrx |= OC_Config->OCMode;
 8000d42:	432a      	orrs	r2, r5
  
  /* Reset the Output Polarity level */
  tmpccer &= ~TIM_CCER_CC1P;
  /* Set the Output Compare Polarity */
  tmpccer |= OC_Config->OCPolarity;
 8000d44:	688d      	ldr	r5, [r1, #8]
  tmpccer &= ~TIM_CCER_CC1P;
 8000d46:	f023 0302 	bic.w	r3, r3, #2
  tmpccer |= OC_Config->OCPolarity;
 8000d4a:	432b      	orrs	r3, r5

    
  if(IS_TIM_ADVANCED_INSTANCE(TIMx) != RESET)
 8000d4c:	4d0a      	ldr	r5, [pc, #40]	; (8000d78 <TIM_OC1_SetConfig+0x4c>)
 8000d4e:	42a8      	cmp	r0, r5
 8000d50:	d10b      	bne.n	8000d6a <TIM_OC1_SetConfig+0x3e>
  {   
    /* Reset the Output N Polarity level */
    tmpccer &= ~TIM_CCER_CC1NP;
    /* Set the Output N Polarity */
    tmpccer |= OC_Config->OCNPolarity;
 8000d52:	68cd      	ldr	r5, [r1, #12]
    tmpcr2 &= ~TIM_CR2_OIS1;
    tmpcr2 &= ~TIM_CR2_OIS1N;
    /* Set the Output Idle state */
    tmpcr2 |= OC_Config->OCIdleState;
    /* Set the Output N Idle state */
    tmpcr2 |= OC_Config->OCNIdleState;
 8000d54:	698e      	ldr	r6, [r1, #24]
    tmpccer &= ~TIM_CCER_CC1NP;
 8000d56:	f023 0308 	bic.w	r3, r3, #8
    tmpccer |= OC_Config->OCNPolarity;
 8000d5a:	432b      	orrs	r3, r5
    tmpcr2 |= OC_Config->OCNIdleState;
 8000d5c:	694d      	ldr	r5, [r1, #20]
    tmpcr2 &= ~TIM_CR2_OIS1N;
 8000d5e:	f424 7440 	bic.w	r4, r4, #768	; 0x300
    tmpcr2 |= OC_Config->OCNIdleState;
 8000d62:	4335      	orrs	r5, r6
    tmpccer &= ~TIM_CCER_CC1NE;
 8000d64:	f023 0304 	bic.w	r3, r3, #4
    tmpcr2 |= OC_Config->OCNIdleState;
 8000d68:	432c      	orrs	r4, r5
  }
  /* Write to TIMx CR2 */
  TIMx->CR2 = tmpcr2;
 8000d6a:	6044      	str	r4, [r0, #4]
  
  /* Write to TIMx CCMR1 */
  TIMx->CCMR1 = tmpccmrx;
 8000d6c:	6182      	str	r2, [r0, #24]
  
  /* Set the Capture Compare Register value */
  TIMx->CCR1 = OC_Config->Pulse;
 8000d6e:	684a      	ldr	r2, [r1, #4]
 8000d70:	6342      	str	r2, [r0, #52]	; 0x34
  
  /* Write to TIMx CCER */
  TIMx->CCER = tmpccer;  
 8000d72:	6203      	str	r3, [r0, #32]
 8000d74:	bd70      	pop	{r4, r5, r6, pc}
 8000d76:	bf00      	nop
 8000d78:	40010000 	.word	0x40010000

08000d7c <TIM_OC3_SetConfig>:
  uint32_t tmpccmrx = 0U;
  uint32_t tmpccer = 0U;
  uint32_t tmpcr2 = 0U;   

  /* Disable the Channel 3: Reset the CC2E Bit */
  TIMx->CCER &= ~TIM_CCER_CC3E;
 8000d7c:	6a03      	ldr	r3, [r0, #32]
 8000d7e:	f423 7380 	bic.w	r3, r3, #256	; 0x100
 8000d82:	6203      	str	r3, [r0, #32]
  
  /* Get the TIMx CCER register value */
  tmpccer = TIMx->CCER;
 8000d84:	6a03      	ldr	r3, [r0, #32]
{
 8000d86:	b570      	push	{r4, r5, r6, lr}
  /* Get the TIMx CR2 register value */
  tmpcr2 = TIMx->CR2;
 8000d88:	6844      	ldr	r4, [r0, #4]
  
  /* Get the TIMx CCMR2 register value */
  tmpccmrx = TIMx->CCMR2;
 8000d8a:	69c2      	ldr	r2, [r0, #28]
    
  /* Reset the Output Compare mode and Capture/Compare selection Bits */
  tmpccmrx &= ~TIM_CCMR2_OC3M;
  tmpccmrx &= ~TIM_CCMR2_CC3S;  
  /* Select the Output Compare Mode */
  tmpccmrx |= OC_Config->OCMode;
 8000d8c:	680d      	ldr	r5, [r1, #0]
  tmpccmrx &= ~TIM_CCMR2_CC3S;  
 8000d8e:	f022 0273 	bic.w	r2, r2, #115	; 0x73
  tmpccmrx |= OC_Config->OCMode;
 8000d92:	432a      	orrs	r2, r5
  
  /* Reset the Output Polarity level */
  tmpccer &= ~TIM_CCER_CC3P;
  /* Set the Output Compare Polarity */
  tmpccer |= (OC_Config->OCPolarity << 8U);
 8000d94:	688d      	ldr	r5, [r1, #8]
  tmpccer &= ~TIM_CCER_CC3P;
 8000d96:	f423 7300 	bic.w	r3, r3, #512	; 0x200
  tmpccer |= (OC_Config->OCPolarity << 8U);
 8000d9a:	ea43 2305 	orr.w	r3, r3, r5, lsl #8
    
  if(IS_TIM_ADVANCED_INSTANCE(TIMx) != RESET)
 8000d9e:	4d0b      	ldr	r5, [pc, #44]	; (8000dcc <TIM_OC3_SetConfig+0x50>)
 8000da0:	42a8      	cmp	r0, r5
 8000da2:	d10d      	bne.n	8000dc0 <TIM_OC3_SetConfig+0x44>
    assert_param(IS_TIM_OCIDLE_STATE(OC_Config->OCIdleState));
    
    /* Reset the Output N Polarity level */
    tmpccer &= ~TIM_CCER_CC3NP;
    /* Set the Output N Polarity */
    tmpccer |= (OC_Config->OCNPolarity << 8U);
 8000da4:	68cd      	ldr	r5, [r1, #12]
    tmpcr2 &= ~TIM_CR2_OIS3;
    tmpcr2 &= ~TIM_CR2_OIS3N;
    /* Set the Output Idle state */
    tmpcr2 |= (OC_Config->OCIdleState << 4U);
    /* Set the Output N Idle state */
    tmpcr2 |= (OC_Config->OCNIdleState << 4U);
 8000da6:	698e      	ldr	r6, [r1, #24]
    tmpccer &= ~TIM_CCER_CC3NP;
 8000da8:	f423 6300 	bic.w	r3, r3, #2048	; 0x800
    tmpccer |= (OC_Config->OCNPolarity << 8U);
 8000dac:	ea43 2305 	orr.w	r3, r3, r5, lsl #8
    tmpcr2 |= (OC_Config->OCIdleState << 4U);
 8000db0:	694d      	ldr	r5, [r1, #20]
    tmpcr2 &= ~TIM_CR2_OIS3N;
 8000db2:	f424 5440 	bic.w	r4, r4, #12288	; 0x3000
    tmpcr2 |= (OC_Config->OCNIdleState << 4U);
 8000db6:	4335      	orrs	r5, r6
    tmpccer &= ~TIM_CCER_CC3NE;
 8000db8:	f423 6380 	bic.w	r3, r3, #1024	; 0x400
    tmpcr2 |= (OC_Config->OCNIdleState << 4U);
 8000dbc:	ea44 1405 	orr.w	r4, r4, r5, lsl #4
  }
  /* Write to TIMx CR2 */
  TIMx->CR2 = tmpcr2;
 8000dc0:	6044      	str	r4, [r0, #4]
  
  /* Write to TIMx CCMR2 */
  TIMx->CCMR2 = tmpccmrx;
 8000dc2:	61c2      	str	r2, [r0, #28]
  
  /* Set the Capture Compare Register value */
  TIMx->CCR3 = OC_Config->Pulse;
 8000dc4:	684a      	ldr	r2, [r1, #4]
 8000dc6:	63c2      	str	r2, [r0, #60]	; 0x3c
  
  /* Write to TIMx CCER */
  TIMx->CCER = tmpccer;
 8000dc8:	6203      	str	r3, [r0, #32]
 8000dca:	bd70      	pop	{r4, r5, r6, pc}
 8000dcc:	40010000 	.word	0x40010000

08000dd0 <TIM_OC4_SetConfig>:
  uint32_t tmpccmrx = 0U;
  uint32_t tmpccer = 0U;
  uint32_t tmpcr2 = 0U;

  /* Disable the Channel 4: Reset the CC4E Bit */
  TIMx->CCER &= ~TIM_CCER_CC4E;
 8000dd0:	6a03      	ldr	r3, [r0, #32]
 8000dd2:	f423 5380 	bic.w	r3, r3, #4096	; 0x1000
 8000dd6:	6203      	str	r3, [r0, #32]
  
  /* Get the TIMx CCER register value */
  tmpccer = TIMx->CCER;
 8000dd8:	6a03      	ldr	r3, [r0, #32]
{
 8000dda:	b530      	push	{r4, r5, lr}
  /* Get the TIMx CR2 register value */
  tmpcr2 = TIMx->CR2;
 8000ddc:	6844      	ldr	r4, [r0, #4]
  
  /* Get the TIMx CCMR2 register value */
  tmpccmrx = TIMx->CCMR2;
 8000dde:	69c2      	ldr	r2, [r0, #28]
  /* Reset the Output Compare mode and Capture/Compare selection Bits */
  tmpccmrx &= ~TIM_CCMR2_OC4M;
  tmpccmrx &= ~TIM_CCMR2_CC4S;
  
  /* Select the Output Compare Mode */
  tmpccmrx |= (OC_Config->OCMode << 8U);
 8000de0:	680d      	ldr	r5, [r1, #0]
  tmpccmrx &= ~TIM_CCMR2_CC4S;
 8000de2:	f422 42e6 	bic.w	r2, r2, #29440	; 0x7300
  tmpccmrx |= (OC_Config->OCMode << 8U);
 8000de6:	ea42 2205 	orr.w	r2, r2, r5, lsl #8
  
  /* Reset the Output Polarity level */
  tmpccer &= ~TIM_CCER_CC4P;
  /* Set the Output Compare Polarity */
  tmpccer |= (OC_Config->OCPolarity << 12U);
 8000dea:	688d      	ldr	r5, [r1, #8]
  tmpccer &= ~TIM_CCER_CC4P;
 8000dec:	f423 5300 	bic.w	r3, r3, #8192	; 0x2000
  tmpccer |= (OC_Config->OCPolarity << 12U);
 8000df0:	ea43 3305 	orr.w	r3, r3, r5, lsl #12
   
  /*if((TIMx == TIM1) || (TIMx == TIM8))*/
  if(IS_TIM_ADVANCED_INSTANCE(TIMx) != RESET)
 8000df4:	4d06      	ldr	r5, [pc, #24]	; (8000e10 <TIM_OC4_SetConfig+0x40>)
 8000df6:	42a8      	cmp	r0, r5
  {
    assert_param(IS_TIM_OCIDLE_STATE(OC_Config->OCIdleState));
    /* Reset the Output Compare IDLE State */
    tmpcr2 &= ~TIM_CR2_OIS4;
    /* Set the Output Idle state */
    tmpcr2 |= (OC_Config->OCIdleState << 6U);
 8000df8:	bf02      	ittt	eq
 8000dfa:	694d      	ldreq	r5, [r1, #20]
    tmpcr2 &= ~TIM_CR2_OIS4;
 8000dfc:	f424 4480 	biceq.w	r4, r4, #16384	; 0x4000
    tmpcr2 |= (OC_Config->OCIdleState << 6U);
 8000e00:	ea44 1485 	orreq.w	r4, r4, r5, lsl #6
  }
  /* Write to TIMx CR2 */
  TIMx->CR2 = tmpcr2;
 8000e04:	6044      	str	r4, [r0, #4]
  
  /* Write to TIMx CCMR2 */  
  TIMx->CCMR2 = tmpccmrx;
 8000e06:	61c2      	str	r2, [r0, #28]
    
  /* Set the Capture Compare Register value */
  TIMx->CCR4 = OC_Config->Pulse;
 8000e08:	684a      	ldr	r2, [r1, #4]
 8000e0a:	6402      	str	r2, [r0, #64]	; 0x40
  
  /* Write to TIMx CCER */
  TIMx->CCER = tmpccer;
 8000e0c:	6203      	str	r3, [r0, #32]
 8000e0e:	bd30      	pop	{r4, r5, pc}
 8000e10:	40010000 	.word	0x40010000

08000e14 <HAL_TIM_PWM_MspInit>:
 8000e14:	4770      	bx	lr

08000e16 <HAL_TIM_ConfigClockSource>:
  __HAL_LOCK(htim);
 8000e16:	f890 3038 	ldrb.w	r3, [r0, #56]	; 0x38
 8000e1a:	2b01      	cmp	r3, #1
{
 8000e1c:	b570      	push	{r4, r5, r6, lr}
 8000e1e:	f04f 0302 	mov.w	r3, #2
  __HAL_LOCK(htim);
 8000e22:	d01c      	beq.n	8000e5e <HAL_TIM_ConfigClockSource+0x48>
  htim->State = HAL_TIM_STATE_BUSY;
 8000e24:	f880 3039 	strb.w	r3, [r0, #57]	; 0x39
  tmpsmcr = htim->Instance->SMCR;
 8000e28:	6803      	ldr	r3, [r0, #0]
  __HAL_LOCK(htim);
 8000e2a:	2201      	movs	r2, #1
 8000e2c:	f880 2038 	strb.w	r2, [r0, #56]	; 0x38
  tmpsmcr = htim->Instance->SMCR;
 8000e30:	689a      	ldr	r2, [r3, #8]
  tmpsmcr &= ~(TIM_SMCR_ETF | TIM_SMCR_ETPS | TIM_SMCR_ECE | TIM_SMCR_ETP);
 8000e32:	f422 427f 	bic.w	r2, r2, #65280	; 0xff00
 8000e36:	f022 0277 	bic.w	r2, r2, #119	; 0x77
  htim->Instance->SMCR = tmpsmcr;
 8000e3a:	609a      	str	r2, [r3, #8]
  switch (sClockSourceConfig->ClockSource)
 8000e3c:	680a      	ldr	r2, [r1, #0]
 8000e3e:	2a40      	cmp	r2, #64	; 0x40
 8000e40:	d079      	beq.n	8000f36 <HAL_TIM_ConfigClockSource+0x120>
 8000e42:	d819      	bhi.n	8000e78 <HAL_TIM_ConfigClockSource+0x62>
 8000e44:	2a10      	cmp	r2, #16
 8000e46:	f000 8093 	beq.w	8000f70 <HAL_TIM_ConfigClockSource+0x15a>
 8000e4a:	d80a      	bhi.n	8000e62 <HAL_TIM_ConfigClockSource+0x4c>
 8000e4c:	2a00      	cmp	r2, #0
 8000e4e:	f000 8089 	beq.w	8000f64 <HAL_TIM_ConfigClockSource+0x14e>
  htim->State = HAL_TIM_STATE_READY;
 8000e52:	2301      	movs	r3, #1
 8000e54:	f880 3039 	strb.w	r3, [r0, #57]	; 0x39
  __HAL_UNLOCK(htim);
 8000e58:	2300      	movs	r3, #0
 8000e5a:	f880 3038 	strb.w	r3, [r0, #56]	; 0x38
  __HAL_LOCK(htim);
 8000e5e:	4618      	mov	r0, r3
}
 8000e60:	bd70      	pop	{r4, r5, r6, pc}
  switch (sClockSourceConfig->ClockSource)
 8000e62:	2a20      	cmp	r2, #32
 8000e64:	f000 808a 	beq.w	8000f7c <HAL_TIM_ConfigClockSource+0x166>
 8000e68:	2a30      	cmp	r2, #48	; 0x30
 8000e6a:	d1f2      	bne.n	8000e52 <HAL_TIM_ConfigClockSource+0x3c>
static void TIM_ITRx_SetConfig(TIM_TypeDef *TIMx, uint16_t TIM_ITRx)
{
  uint32_t tmpsmcr = 0U;
  
   /* Get the TIMx SMCR register value */
   tmpsmcr = TIMx->SMCR;
 8000e6c:	689a      	ldr	r2, [r3, #8]
   /* Reset the TS Bits */
   tmpsmcr &= ~TIM_SMCR_TS;
 8000e6e:	f022 0270 	bic.w	r2, r2, #112	; 0x70
   /* Set the Input Trigger source and the slave mode*/
   tmpsmcr |= TIM_ITRx | TIM_SLAVEMODE_EXTERNAL1;
 8000e72:	f042 0237 	orr.w	r2, r2, #55	; 0x37
 8000e76:	e036      	b.n	8000ee6 <HAL_TIM_ConfigClockSource+0xd0>
  switch (sClockSourceConfig->ClockSource)
 8000e78:	2a70      	cmp	r2, #112	; 0x70
 8000e7a:	d036      	beq.n	8000eea <HAL_TIM_ConfigClockSource+0xd4>
 8000e7c:	d81b      	bhi.n	8000eb6 <HAL_TIM_ConfigClockSource+0xa0>
 8000e7e:	2a50      	cmp	r2, #80	; 0x50
 8000e80:	d042      	beq.n	8000f08 <HAL_TIM_ConfigClockSource+0xf2>
 8000e82:	2a60      	cmp	r2, #96	; 0x60
 8000e84:	d1e5      	bne.n	8000e52 <HAL_TIM_ConfigClockSource+0x3c>
  TIMx->CCER &= ~TIM_CCER_CC2E;
 8000e86:	6a1c      	ldr	r4, [r3, #32]
      TIM_TI2_ConfigInputStage(htim->Instance, 
 8000e88:	684d      	ldr	r5, [r1, #4]
 8000e8a:	68ce      	ldr	r6, [r1, #12]
  TIMx->CCER &= ~TIM_CCER_CC2E;
 8000e8c:	f024 0410 	bic.w	r4, r4, #16
 8000e90:	621c      	str	r4, [r3, #32]
  tmpccmr1 = TIMx->CCMR1;
 8000e92:	6999      	ldr	r1, [r3, #24]
  tmpccer = TIMx->CCER;
 8000e94:	6a1a      	ldr	r2, [r3, #32]
  tmpccmr1 &= ~TIM_CCMR1_IC2F;
 8000e96:	f421 4170 	bic.w	r1, r1, #61440	; 0xf000
  tmpccer &= ~(TIM_CCER_CC2P | TIM_CCER_CC2NP);
 8000e9a:	f022 02a0 	bic.w	r2, r2, #160	; 0xa0
  tmpccer |= (TIM_ICPolarity << 4U);
 8000e9e:	ea42 1205 	orr.w	r2, r2, r5, lsl #4
  tmpccmr1 |= (TIM_ICFilter << 12U);
 8000ea2:	ea41 3106 	orr.w	r1, r1, r6, lsl #12
  TIMx->CCMR1 = tmpccmr1 ;
 8000ea6:	6199      	str	r1, [r3, #24]
  TIMx->CCER = tmpccer;
 8000ea8:	621a      	str	r2, [r3, #32]
   tmpsmcr = TIMx->SMCR;
 8000eaa:	689a      	ldr	r2, [r3, #8]
   tmpsmcr &= ~TIM_SMCR_TS;
 8000eac:	f022 0270 	bic.w	r2, r2, #112	; 0x70
   tmpsmcr |= TIM_ITRx | TIM_SLAVEMODE_EXTERNAL1;
 8000eb0:	f042 0267 	orr.w	r2, r2, #103	; 0x67
 8000eb4:	e017      	b.n	8000ee6 <HAL_TIM_ConfigClockSource+0xd0>
  switch (sClockSourceConfig->ClockSource)
 8000eb6:	f5b2 5f80 	cmp.w	r2, #4096	; 0x1000
 8000eba:	d011      	beq.n	8000ee0 <HAL_TIM_ConfigClockSource+0xca>
 8000ebc:	f5b2 5f00 	cmp.w	r2, #8192	; 0x2000
 8000ec0:	d1c7      	bne.n	8000e52 <HAL_TIM_ConfigClockSource+0x3c>

  /* Reset the ETR Bits */
  tmpsmcr &= ~(TIM_SMCR_ETF | TIM_SMCR_ETPS | TIM_SMCR_ECE | TIM_SMCR_ETP);

  /* Set the Prescaler, the Filter value and the Polarity */
  tmpsmcr |= (uint32_t)(TIM_ExtTRGPrescaler | (TIM_ExtTRGPolarity | (ExtTRGFilter << 8)));
 8000ec2:	688a      	ldr	r2, [r1, #8]
 8000ec4:	684d      	ldr	r5, [r1, #4]
  tmpsmcr = TIMx->SMCR;
 8000ec6:	689c      	ldr	r4, [r3, #8]
  tmpsmcr |= (uint32_t)(TIM_ExtTRGPrescaler | (TIM_ExtTRGPolarity | (ExtTRGFilter << 8)));
 8000ec8:	68c9      	ldr	r1, [r1, #12]
 8000eca:	432a      	orrs	r2, r5
  tmpsmcr &= ~(TIM_SMCR_ETF | TIM_SMCR_ETPS | TIM_SMCR_ECE | TIM_SMCR_ETP);
 8000ecc:	f424 447f 	bic.w	r4, r4, #65280	; 0xff00
  tmpsmcr |= (uint32_t)(TIM_ExtTRGPrescaler | (TIM_ExtTRGPolarity | (ExtTRGFilter << 8)));
 8000ed0:	ea42 2201 	orr.w	r2, r2, r1, lsl #8
 8000ed4:	4322      	orrs	r2, r4

  /* Write to TIMx SMCR */
  TIMx->SMCR = tmpsmcr;
 8000ed6:	609a      	str	r2, [r3, #8]
      htim->Instance->SMCR |= TIM_SMCR_ECE;
 8000ed8:	689a      	ldr	r2, [r3, #8]
 8000eda:	f442 4280 	orr.w	r2, r2, #16384	; 0x4000
 8000ede:	e002      	b.n	8000ee6 <HAL_TIM_ConfigClockSource+0xd0>
      htim->Instance->SMCR &= ~TIM_SMCR_SMS;
 8000ee0:	689a      	ldr	r2, [r3, #8]
 8000ee2:	f022 0207 	bic.w	r2, r2, #7
   TIMx->SMCR = tmpsmcr;
 8000ee6:	609a      	str	r2, [r3, #8]
 8000ee8:	e7b3      	b.n	8000e52 <HAL_TIM_ConfigClockSource+0x3c>
  tmpsmcr |= (uint32_t)(TIM_ExtTRGPrescaler | (TIM_ExtTRGPolarity | (ExtTRGFilter << 8)));
 8000eea:	688a      	ldr	r2, [r1, #8]
 8000eec:	684d      	ldr	r5, [r1, #4]
  tmpsmcr = TIMx->SMCR;
 8000eee:	689c      	ldr	r4, [r3, #8]
  tmpsmcr |= (uint32_t)(TIM_ExtTRGPrescaler | (TIM_ExtTRGPolarity | (ExtTRGFilter << 8)));
 8000ef0:	68c9      	ldr	r1, [r1, #12]
 8000ef2:	432a      	orrs	r2, r5
  tmpsmcr &= ~(TIM_SMCR_ETF | TIM_SMCR_ETPS | TIM_SMCR_ECE | TIM_SMCR_ETP);
 8000ef4:	f424 447f 	bic.w	r4, r4, #65280	; 0xff00
  tmpsmcr |= (uint32_t)(TIM_ExtTRGPrescaler | (TIM_ExtTRGPolarity | (ExtTRGFilter << 8)));
 8000ef8:	ea42 2201 	orr.w	r2, r2, r1, lsl #8
 8000efc:	4322      	orrs	r2, r4
  TIMx->SMCR = tmpsmcr;
 8000efe:	609a      	str	r2, [r3, #8]
      tmpsmcr = htim->Instance->SMCR;
 8000f00:	689a      	ldr	r2, [r3, #8]
      tmpsmcr |= (TIM_SLAVEMODE_EXTERNAL1 | TIM_CLOCKSOURCE_ETRMODE1);
 8000f02:	f042 0277 	orr.w	r2, r2, #119	; 0x77
 8000f06:	e7ee      	b.n	8000ee6 <HAL_TIM_ConfigClockSource+0xd0>
      TIM_TI1_ConfigInputStage(htim->Instance, 
 8000f08:	684c      	ldr	r4, [r1, #4]
 8000f0a:	68ce      	ldr	r6, [r1, #12]
  tmpccer = TIMx->CCER;
 8000f0c:	6a19      	ldr	r1, [r3, #32]
  TIMx->CCER &= ~TIM_CCER_CC1E;
 8000f0e:	6a1d      	ldr	r5, [r3, #32]
 8000f10:	f025 0501 	bic.w	r5, r5, #1
 8000f14:	621d      	str	r5, [r3, #32]
  tmpccmr1 = TIMx->CCMR1;    
 8000f16:	699a      	ldr	r2, [r3, #24]
  tmpccer &= ~(TIM_CCER_CC1P | TIM_CCER_CC1NP);
 8000f18:	f021 010a 	bic.w	r1, r1, #10
  tmpccmr1 &= ~TIM_CCMR1_IC1F;
 8000f1c:	f022 02f0 	bic.w	r2, r2, #240	; 0xf0
  tmpccmr1 |= (TIM_ICFilter << 4U);
 8000f20:	ea42 1206 	orr.w	r2, r2, r6, lsl #4
  tmpccer |= TIM_ICPolarity;
 8000f24:	4321      	orrs	r1, r4
  TIMx->CCMR1 = tmpccmr1;
 8000f26:	619a      	str	r2, [r3, #24]
  TIMx->CCER = tmpccer;
 8000f28:	6219      	str	r1, [r3, #32]
   tmpsmcr = TIMx->SMCR;
 8000f2a:	689a      	ldr	r2, [r3, #8]
   tmpsmcr &= ~TIM_SMCR_TS;
 8000f2c:	f022 0270 	bic.w	r2, r2, #112	; 0x70
   tmpsmcr |= TIM_ITRx | TIM_SLAVEMODE_EXTERNAL1;
 8000f30:	f042 0257 	orr.w	r2, r2, #87	; 0x57
 8000f34:	e7d7      	b.n	8000ee6 <HAL_TIM_ConfigClockSource+0xd0>
      TIM_TI1_ConfigInputStage(htim->Instance, 
 8000f36:	684c      	ldr	r4, [r1, #4]
 8000f38:	68ce      	ldr	r6, [r1, #12]
  tmpccer = TIMx->CCER;
 8000f3a:	6a19      	ldr	r1, [r3, #32]
  TIMx->CCER &= ~TIM_CCER_CC1E;
 8000f3c:	6a1d      	ldr	r5, [r3, #32]
 8000f3e:	f025 0501 	bic.w	r5, r5, #1
 8000f42:	621d      	str	r5, [r3, #32]
  tmpccmr1 = TIMx->CCMR1;    
 8000f44:	699a      	ldr	r2, [r3, #24]
  tmpccer &= ~(TIM_CCER_CC1P | TIM_CCER_CC1NP);
 8000f46:	f021 010a 	bic.w	r1, r1, #10
  tmpccmr1 &= ~TIM_CCMR1_IC1F;
 8000f4a:	f022 02f0 	bic.w	r2, r2, #240	; 0xf0
  tmpccmr1 |= (TIM_ICFilter << 4U);
 8000f4e:	ea42 1206 	orr.w	r2, r2, r6, lsl #4
  tmpccer |= TIM_ICPolarity;
 8000f52:	4321      	orrs	r1, r4
  TIMx->CCMR1 = tmpccmr1;
 8000f54:	619a      	str	r2, [r3, #24]
  TIMx->CCER = tmpccer;
 8000f56:	6219      	str	r1, [r3, #32]
   tmpsmcr = TIMx->SMCR;
 8000f58:	689a      	ldr	r2, [r3, #8]
   tmpsmcr &= ~TIM_SMCR_TS;
 8000f5a:	f022 0270 	bic.w	r2, r2, #112	; 0x70
   tmpsmcr |= TIM_ITRx | TIM_SLAVEMODE_EXTERNAL1;
 8000f5e:	f042 0247 	orr.w	r2, r2, #71	; 0x47
 8000f62:	e7c0      	b.n	8000ee6 <HAL_TIM_ConfigClockSource+0xd0>
   tmpsmcr = TIMx->SMCR;
 8000f64:	689a      	ldr	r2, [r3, #8]
   tmpsmcr &= ~TIM_SMCR_TS;
 8000f66:	f022 0270 	bic.w	r2, r2, #112	; 0x70
   tmpsmcr |= TIM_ITRx | TIM_SLAVEMODE_EXTERNAL1;
 8000f6a:	f042 0207 	orr.w	r2, r2, #7
 8000f6e:	e7ba      	b.n	8000ee6 <HAL_TIM_ConfigClockSource+0xd0>
   tmpsmcr = TIMx->SMCR;
 8000f70:	689a      	ldr	r2, [r3, #8]
   tmpsmcr &= ~TIM_SMCR_TS;
 8000f72:	f022 0270 	bic.w	r2, r2, #112	; 0x70
   tmpsmcr |= TIM_ITRx | TIM_SLAVEMODE_EXTERNAL1;
 8000f76:	f042 0217 	orr.w	r2, r2, #23
 8000f7a:	e7b4      	b.n	8000ee6 <HAL_TIM_ConfigClockSource+0xd0>
   tmpsmcr = TIMx->SMCR;
 8000f7c:	689a      	ldr	r2, [r3, #8]
   tmpsmcr &= ~TIM_SMCR_TS;
 8000f7e:	f022 0270 	bic.w	r2, r2, #112	; 0x70
   tmpsmcr |= TIM_ITRx | TIM_SLAVEMODE_EXTERNAL1;
 8000f82:	f042 0227 	orr.w	r2, r2, #39	; 0x27
 8000f86:	e7ae      	b.n	8000ee6 <HAL_TIM_ConfigClockSource+0xd0>

08000f88 <HAL_TIM_PeriodElapsedCallback>:
 8000f88:	4770      	bx	lr

08000f8a <HAL_TIM_OC_DelayElapsedCallback>:
 8000f8a:	4770      	bx	lr

08000f8c <HAL_TIM_IC_CaptureCallback>:
 8000f8c:	4770      	bx	lr

08000f8e <HAL_TIM_PWM_PulseFinishedCallback>:
 8000f8e:	4770      	bx	lr

08000f90 <HAL_TIM_TriggerCallback>:
 8000f90:	4770      	bx	lr

08000f92 <HAL_TIM_IRQHandler>:
  if(__HAL_TIM_GET_FLAG(htim, TIM_FLAG_CC1) != RESET)
 8000f92:	6803      	ldr	r3, [r0, #0]
 8000f94:	691a      	ldr	r2, [r3, #16]
 8000f96:	0791      	lsls	r1, r2, #30
{
 8000f98:	b510      	push	{r4, lr}
 8000f9a:	4604      	mov	r4, r0
  if(__HAL_TIM_GET_FLAG(htim, TIM_FLAG_CC1) != RESET)
 8000f9c:	d50e      	bpl.n	8000fbc <HAL_TIM_IRQHandler+0x2a>
    if(__HAL_TIM_GET_IT_SOURCE(htim, TIM_IT_CC1) !=RESET)
 8000f9e:	68da      	ldr	r2, [r3, #12]
 8000fa0:	0792      	lsls	r2, r2, #30
 8000fa2:	d50b      	bpl.n	8000fbc <HAL_TIM_IRQHandler+0x2a>
        __HAL_TIM_CLEAR_IT(htim, TIM_IT_CC1);
 8000fa4:	f06f 0202 	mvn.w	r2, #2
 8000fa8:	611a      	str	r2, [r3, #16]
        if((htim->Instance->CCMR1 & TIM_CCMR1_CC1S) != 0x00U)
 8000faa:	699b      	ldr	r3, [r3, #24]
        htim->Channel = HAL_TIM_ACTIVE_CHANNEL_1;
 8000fac:	2201      	movs	r2, #1
        if((htim->Instance->CCMR1 & TIM_CCMR1_CC1S) != 0x00U)
 8000fae:	079b      	lsls	r3, r3, #30
        htim->Channel = HAL_TIM_ACTIVE_CHANNEL_1;
 8000fb0:	7602      	strb	r2, [r0, #24]
        if((htim->Instance->CCMR1 & TIM_CCMR1_CC1S) != 0x00U)
 8000fb2:	d077      	beq.n	80010a4 <HAL_TIM_IRQHandler+0x112>
          HAL_TIM_IC_CaptureCallback(htim);
 8000fb4:	f7ff ffea 	bl	8000f8c <HAL_TIM_IC_CaptureCallback>
        htim->Channel = HAL_TIM_ACTIVE_CHANNEL_CLEARED;
 8000fb8:	2300      	movs	r3, #0
 8000fba:	7623      	strb	r3, [r4, #24]
  if(__HAL_TIM_GET_FLAG(htim, TIM_FLAG_CC2) != RESET)
 8000fbc:	6823      	ldr	r3, [r4, #0]
 8000fbe:	691a      	ldr	r2, [r3, #16]
 8000fc0:	0750      	lsls	r0, r2, #29
 8000fc2:	d510      	bpl.n	8000fe6 <HAL_TIM_IRQHandler+0x54>
    if(__HAL_TIM_GET_IT_SOURCE(htim, TIM_IT_CC2) !=RESET)
 8000fc4:	68da      	ldr	r2, [r3, #12]
 8000fc6:	0751      	lsls	r1, r2, #29
 8000fc8:	d50d      	bpl.n	8000fe6 <HAL_TIM_IRQHandler+0x54>
      __HAL_TIM_CLEAR_IT(htim, TIM_IT_CC2);
 8000fca:	f06f 0204 	mvn.w	r2, #4
 8000fce:	611a      	str	r2, [r3, #16]
      if((htim->Instance->CCMR1 & TIM_CCMR1_CC2S) != 0x00U)
 8000fd0:	699b      	ldr	r3, [r3, #24]
      htim->Channel = HAL_TIM_ACTIVE_CHANNEL_2;
 8000fd2:	2202      	movs	r2, #2
      if((htim->Instance->CCMR1 & TIM_CCMR1_CC2S) != 0x00U)
 8000fd4:	f413 7f40 	tst.w	r3, #768	; 0x300
      htim->Channel = HAL_TIM_ACTIVE_CHANNEL_2;
 8000fd8:	7622      	strb	r2, [r4, #24]
        HAL_TIM_IC_CaptureCallback(htim);
 8000fda:	4620      	mov	r0, r4
      if((htim->Instance->CCMR1 & TIM_CCMR1_CC2S) != 0x00U)
 8000fdc:	d068      	beq.n	80010b0 <HAL_TIM_IRQHandler+0x11e>
        HAL_TIM_IC_CaptureCallback(htim);
 8000fde:	f7ff ffd5 	bl	8000f8c <HAL_TIM_IC_CaptureCallback>
      htim->Channel = HAL_TIM_ACTIVE_CHANNEL_CLEARED;
 8000fe2:	2300      	movs	r3, #0
 8000fe4:	7623      	strb	r3, [r4, #24]
  if(__HAL_TIM_GET_FLAG(htim, TIM_FLAG_CC3) != RESET)
 8000fe6:	6823      	ldr	r3, [r4, #0]
 8000fe8:	691a      	ldr	r2, [r3, #16]
 8000fea:	0712      	lsls	r2, r2, #28
 8000fec:	d50f      	bpl.n	800100e <HAL_TIM_IRQHandler+0x7c>
    if(__HAL_TIM_GET_IT_SOURCE(htim, TIM_IT_CC3) !=RESET)
 8000fee:	68da      	ldr	r2, [r3, #12]
 8000ff0:	0710      	lsls	r0, r2, #28
 8000ff2:	d50c      	bpl.n	800100e <HAL_TIM_IRQHandler+0x7c>
      __HAL_TIM_CLEAR_IT(htim, TIM_IT_CC3);
 8000ff4:	f06f 0208 	mvn.w	r2, #8
 8000ff8:	611a      	str	r2, [r3, #16]
      if((htim->Instance->CCMR2 & TIM_CCMR2_CC3S) != 0x00U)
 8000ffa:	69db      	ldr	r3, [r3, #28]
      htim->Channel = HAL_TIM_ACTIVE_CHANNEL_3;
 8000ffc:	2204      	movs	r2, #4
      if((htim->Instance->CCMR2 & TIM_CCMR2_CC3S) != 0x00U)
 8000ffe:	0799      	lsls	r1, r3, #30
      htim->Channel = HAL_TIM_ACTIVE_CHANNEL_3;
 8001000:	7622      	strb	r2, [r4, #24]
        HAL_TIM_IC_CaptureCallback(htim);
 8001002:	4620      	mov	r0, r4
      if((htim->Instance->CCMR2 & TIM_CCMR2_CC3S) != 0x00U)
 8001004:	d05a      	beq.n	80010bc <HAL_TIM_IRQHandler+0x12a>
        HAL_TIM_IC_CaptureCallback(htim);
 8001006:	f7ff ffc1 	bl	8000f8c <HAL_TIM_IC_CaptureCallback>
      htim->Channel = HAL_TIM_ACTIVE_CHANNEL_CLEARED;
 800100a:	2300      	movs	r3, #0
 800100c:	7623      	strb	r3, [r4, #24]
  if(__HAL_TIM_GET_FLAG(htim, TIM_FLAG_CC4) != RESET)
 800100e:	6823      	ldr	r3, [r4, #0]
 8001010:	691a      	ldr	r2, [r3, #16]
 8001012:	06d2      	lsls	r2, r2, #27
 8001014:	d510      	bpl.n	8001038 <HAL_TIM_IRQHandler+0xa6>
    if(__HAL_TIM_GET_IT_SOURCE(htim, TIM_IT_CC4) !=RESET)
 8001016:	68da      	ldr	r2, [r3, #12]
 8001018:	06d0      	lsls	r0, r2, #27
 800101a:	d50d      	bpl.n	8001038 <HAL_TIM_IRQHandler+0xa6>
      __HAL_TIM_CLEAR_IT(htim, TIM_IT_CC4);
 800101c:	f06f 0210 	mvn.w	r2, #16
 8001020:	611a      	str	r2, [r3, #16]
      if((htim->Instance->CCMR2 & TIM_CCMR2_CC4S) != 0x00U)
 8001022:	69db      	ldr	r3, [r3, #28]
      htim->Channel = HAL_TIM_ACTIVE_CHANNEL_4;
 8001024:	2208      	movs	r2, #8
      if((htim->Instance->CCMR2 & TIM_CCMR2_CC4S) != 0x00U)
 8001026:	f413 7f40 	tst.w	r3, #768	; 0x300
      htim->Channel = HAL_TIM_ACTIVE_CHANNEL_4;
 800102a:	7622      	strb	r2, [r4, #24]
        HAL_TIM_IC_CaptureCallback(htim);
 800102c:	4620      	mov	r0, r4
      if((htim->Instance->CCMR2 & TIM_CCMR2_CC4S) != 0x00U)
 800102e:	d04b      	beq.n	80010c8 <HAL_TIM_IRQHandler+0x136>
        HAL_TIM_IC_CaptureCallback(htim);
 8001030:	f7ff ffac 	bl	8000f8c <HAL_TIM_IC_CaptureCallback>
      htim->Channel = HAL_TIM_ACTIVE_CHANNEL_CLEARED;
 8001034:	2300      	movs	r3, #0
 8001036:	7623      	strb	r3, [r4, #24]
  if(__HAL_TIM_GET_FLAG(htim, TIM_FLAG_UPDATE) != RESET)
 8001038:	6823      	ldr	r3, [r4, #0]
 800103a:	691a      	ldr	r2, [r3, #16]
 800103c:	07d1      	lsls	r1, r2, #31
 800103e:	d508      	bpl.n	8001052 <HAL_TIM_IRQHandler+0xc0>
    if(__HAL_TIM_GET_IT_SOURCE(htim, TIM_IT_UPDATE) !=RESET)
 8001040:	68da      	ldr	r2, [r3, #12]
 8001042:	07d2      	lsls	r2, r2, #31
 8001044:	d505      	bpl.n	8001052 <HAL_TIM_IRQHandler+0xc0>
      __HAL_TIM_CLEAR_IT(htim, TIM_IT_UPDATE);
 8001046:	f06f 0201 	mvn.w	r2, #1
 800104a:	611a      	str	r2, [r3, #16]
      HAL_TIM_PeriodElapsedCallback(htim);
 800104c:	4620      	mov	r0, r4
 800104e:	f7ff ff9b 	bl	8000f88 <HAL_TIM_PeriodElapsedCallback>
  if(__HAL_TIM_GET_FLAG(htim, TIM_FLAG_BREAK) != RESET)
 8001052:	6823      	ldr	r3, [r4, #0]
 8001054:	691a      	ldr	r2, [r3, #16]
 8001056:	0610      	lsls	r0, r2, #24
 8001058:	d508      	bpl.n	800106c <HAL_TIM_IRQHandler+0xda>
    if(__HAL_TIM_GET_IT_SOURCE(htim, TIM_IT_BREAK) !=RESET)
 800105a:	68da      	ldr	r2, [r3, #12]
 800105c:	0611      	lsls	r1, r2, #24
 800105e:	d505      	bpl.n	800106c <HAL_TIM_IRQHandler+0xda>
      __HAL_TIM_CLEAR_IT(htim, TIM_IT_BREAK);
 8001060:	f06f 0280 	mvn.w	r2, #128	; 0x80
 8001064:	611a      	str	r2, [r3, #16]
      HAL_TIMEx_BreakCallback(htim);
 8001066:	4620      	mov	r0, r4
 8001068:	f000 f989 	bl	800137e <HAL_TIMEx_BreakCallback>
  if(__HAL_TIM_GET_FLAG(htim, TIM_FLAG_TRIGGER) != RESET)
 800106c:	6823      	ldr	r3, [r4, #0]
 800106e:	691a      	ldr	r2, [r3, #16]
 8001070:	0652      	lsls	r2, r2, #25
 8001072:	d508      	bpl.n	8001086 <HAL_TIM_IRQHandler+0xf4>
    if(__HAL_TIM_GET_IT_SOURCE(htim, TIM_IT_TRIGGER) !=RESET)
 8001074:	68da      	ldr	r2, [r3, #12]
 8001076:	0650      	lsls	r0, r2, #25
 8001078:	d505      	bpl.n	8001086 <HAL_TIM_IRQHandler+0xf4>
      __HAL_TIM_CLEAR_IT(htim, TIM_IT_TRIGGER);
 800107a:	f06f 0240 	mvn.w	r2, #64	; 0x40
 800107e:	611a      	str	r2, [r3, #16]
      HAL_TIM_TriggerCallback(htim);
 8001080:	4620      	mov	r0, r4
 8001082:	f7ff ff85 	bl	8000f90 <HAL_TIM_TriggerCallback>
  if(__HAL_TIM_GET_FLAG(htim, TIM_FLAG_COM) != RESET)
 8001086:	6823      	ldr	r3, [r4, #0]
 8001088:	691a      	ldr	r2, [r3, #16]
 800108a:	0691      	lsls	r1, r2, #26
 800108c:	d522      	bpl.n	80010d4 <HAL_TIM_IRQHandler+0x142>
    if(__HAL_TIM_GET_IT_SOURCE(htim, TIM_IT_COM) !=RESET)
 800108e:	68da      	ldr	r2, [r3, #12]
 8001090:	0692      	lsls	r2, r2, #26
 8001092:	d51f      	bpl.n	80010d4 <HAL_TIM_IRQHandler+0x142>
      __HAL_TIM_CLEAR_IT(htim, TIM_FLAG_COM);
 8001094:	f06f 0220 	mvn.w	r2, #32
      HAL_TIMEx_CommutationCallback(htim);
 8001098:	4620      	mov	r0, r4
      __HAL_TIM_CLEAR_IT(htim, TIM_FLAG_COM);
 800109a:	611a      	str	r2, [r3, #16]
}
 800109c:	e8bd 4010 	ldmia.w	sp!, {r4, lr}
      HAL_TIMEx_CommutationCallback(htim);
 80010a0:	f000 b96c 	b.w	800137c <HAL_TIMEx_CommutationCallback>
          HAL_TIM_OC_DelayElapsedCallback(htim);
 80010a4:	f7ff ff71 	bl	8000f8a <HAL_TIM_OC_DelayElapsedCallback>
          HAL_TIM_PWM_PulseFinishedCallback(htim);
 80010a8:	4620      	mov	r0, r4
 80010aa:	f7ff ff70 	bl	8000f8e <HAL_TIM_PWM_PulseFinishedCallback>
 80010ae:	e783      	b.n	8000fb8 <HAL_TIM_IRQHandler+0x26>
        HAL_TIM_OC_DelayElapsedCallback(htim);
 80010b0:	f7ff ff6b 	bl	8000f8a <HAL_TIM_OC_DelayElapsedCallback>
        HAL_TIM_PWM_PulseFinishedCallback(htim);
 80010b4:	4620      	mov	r0, r4
 80010b6:	f7ff ff6a 	bl	8000f8e <HAL_TIM_PWM_PulseFinishedCallback>
 80010ba:	e792      	b.n	8000fe2 <HAL_TIM_IRQHandler+0x50>
        HAL_TIM_OC_DelayElapsedCallback(htim);
 80010bc:	f7ff ff65 	bl	8000f8a <HAL_TIM_OC_DelayElapsedCallback>
        HAL_TIM_PWM_PulseFinishedCallback(htim); 
 80010c0:	4620      	mov	r0, r4
 80010c2:	f7ff ff64 	bl	8000f8e <HAL_TIM_PWM_PulseFinishedCallback>
 80010c6:	e7a0      	b.n	800100a <HAL_TIM_IRQHandler+0x78>
        HAL_TIM_OC_DelayElapsedCallback(htim);
 80010c8:	f7ff ff5f 	bl	8000f8a <HAL_TIM_OC_DelayElapsedCallback>
        HAL_TIM_PWM_PulseFinishedCallback(htim);
 80010cc:	4620      	mov	r0, r4
 80010ce:	f7ff ff5e 	bl	8000f8e <HAL_TIM_PWM_PulseFinishedCallback>
 80010d2:	e7af      	b.n	8001034 <HAL_TIM_IRQHandler+0xa2>
 80010d4:	bd10      	pop	{r4, pc}
	...

080010d8 <TIM_Base_SetConfig>:
  if(IS_TIM_CC3_INSTANCE(TIMx) != RESET)   
 80010d8:	4a22      	ldr	r2, [pc, #136]	; (8001164 <TIM_Base_SetConfig+0x8c>)
  tmpcr1 = TIMx->CR1;
 80010da:	6803      	ldr	r3, [r0, #0]
  if(IS_TIM_CC3_INSTANCE(TIMx) != RESET)   
 80010dc:	4290      	cmp	r0, r2
 80010de:	d00e      	beq.n	80010fe <TIM_Base_SetConfig+0x26>
 80010e0:	f1b0 4f80 	cmp.w	r0, #1073741824	; 0x40000000
 80010e4:	d00b      	beq.n	80010fe <TIM_Base_SetConfig+0x26>
 80010e6:	f5a2 427c 	sub.w	r2, r2, #64512	; 0xfc00
 80010ea:	4290      	cmp	r0, r2
 80010ec:	d007      	beq.n	80010fe <TIM_Base_SetConfig+0x26>
 80010ee:	f502 6280 	add.w	r2, r2, #1024	; 0x400
 80010f2:	4290      	cmp	r0, r2
 80010f4:	d003      	beq.n	80010fe <TIM_Base_SetConfig+0x26>
 80010f6:	f502 6280 	add.w	r2, r2, #1024	; 0x400
 80010fa:	4290      	cmp	r0, r2
 80010fc:	d119      	bne.n	8001132 <TIM_Base_SetConfig+0x5a>
    tmpcr1 |= Structure->CounterMode;
 80010fe:	684a      	ldr	r2, [r1, #4]
    tmpcr1 &= ~(TIM_CR1_DIR | TIM_CR1_CMS);
 8001100:	f023 0370 	bic.w	r3, r3, #112	; 0x70
    tmpcr1 |= Structure->CounterMode;
 8001104:	4313      	orrs	r3, r2
  if(IS_TIM_CC1_INSTANCE(TIMx) != RESET)  
 8001106:	4a17      	ldr	r2, [pc, #92]	; (8001164 <TIM_Base_SetConfig+0x8c>)
 8001108:	4290      	cmp	r0, r2
 800110a:	d104      	bne.n	8001116 <TIM_Base_SetConfig+0x3e>
    tmpcr1 |= (uint32_t)Structure->ClockDivision;
 800110c:	68ca      	ldr	r2, [r1, #12]
    tmpcr1 &= ~TIM_CR1_CKD;
 800110e:	f423 7340 	bic.w	r3, r3, #768	; 0x300
    tmpcr1 |= (uint32_t)Structure->ClockDivision;
 8001112:	4313      	orrs	r3, r2
 8001114:	e018      	b.n	8001148 <TIM_Base_SetConfig+0x70>
  if(IS_TIM_CC1_INSTANCE(TIMx) != RESET)  
 8001116:	f1b0 4f80 	cmp.w	r0, #1073741824	; 0x40000000
 800111a:	d0f7      	beq.n	800110c <TIM_Base_SetConfig+0x34>
 800111c:	4a12      	ldr	r2, [pc, #72]	; (8001168 <TIM_Base_SetConfig+0x90>)
 800111e:	4290      	cmp	r0, r2
 8001120:	d0f4      	beq.n	800110c <TIM_Base_SetConfig+0x34>
 8001122:	f502 6280 	add.w	r2, r2, #1024	; 0x400
 8001126:	4290      	cmp	r0, r2
 8001128:	d0f0      	beq.n	800110c <TIM_Base_SetConfig+0x34>
 800112a:	f502 6280 	add.w	r2, r2, #1024	; 0x400
 800112e:	4290      	cmp	r0, r2
 8001130:	d0ec      	beq.n	800110c <TIM_Base_SetConfig+0x34>
 8001132:	4a0e      	ldr	r2, [pc, #56]	; (800116c <TIM_Base_SetConfig+0x94>)
 8001134:	4290      	cmp	r0, r2
 8001136:	d0e9      	beq.n	800110c <TIM_Base_SetConfig+0x34>
 8001138:	f502 6280 	add.w	r2, r2, #1024	; 0x400
 800113c:	4290      	cmp	r0, r2
 800113e:	d0e5      	beq.n	800110c <TIM_Base_SetConfig+0x34>
 8001140:	f502 6280 	add.w	r2, r2, #1024	; 0x400
 8001144:	4290      	cmp	r0, r2
 8001146:	d0e1      	beq.n	800110c <TIM_Base_SetConfig+0x34>
  TIMx->CR1 = tmpcr1;
 8001148:	6003      	str	r3, [r0, #0]
  TIMx->ARR = (uint32_t)Structure->Period ;
 800114a:	688b      	ldr	r3, [r1, #8]
 800114c:	62c3      	str	r3, [r0, #44]	; 0x2c
  TIMx->PSC = (uint32_t)Structure->Prescaler;
 800114e:	680b      	ldr	r3, [r1, #0]
 8001150:	6283      	str	r3, [r0, #40]	; 0x28
  if(IS_TIM_ADVANCED_INSTANCE(TIMx) != RESET)  
 8001152:	4b04      	ldr	r3, [pc, #16]	; (8001164 <TIM_Base_SetConfig+0x8c>)
 8001154:	4298      	cmp	r0, r3
    TIMx->RCR = Structure->RepetitionCounter;
 8001156:	bf04      	itt	eq
 8001158:	690b      	ldreq	r3, [r1, #16]
 800115a:	6303      	streq	r3, [r0, #48]	; 0x30
  TIMx->EGR = TIM_EGR_UG;
 800115c:	2301      	movs	r3, #1
 800115e:	6143      	str	r3, [r0, #20]
}
 8001160:	4770      	bx	lr
 8001162:	bf00      	nop
 8001164:	40010000 	.word	0x40010000
 8001168:	40000400 	.word	0x40000400
 800116c:	40014000 	.word	0x40014000

08001170 <HAL_TIM_Base_Init>:
{ 
 8001170:	b510      	push	{r4, lr}
  if(htim == NULL)
 8001172:	4604      	mov	r4, r0
 8001174:	b1a0      	cbz	r0, 80011a0 <HAL_TIM_Base_Init+0x30>
  if(htim->State == HAL_TIM_STATE_RESET)
 8001176:	f890 3039 	ldrb.w	r3, [r0, #57]	; 0x39
 800117a:	f003 02ff 	and.w	r2, r3, #255	; 0xff
 800117e:	b91b      	cbnz	r3, 8001188 <HAL_TIM_Base_Init+0x18>
    htim->Lock = HAL_UNLOCKED;
 8001180:	f880 2038 	strb.w	r2, [r0, #56]	; 0x38
    HAL_TIM_Base_MspInit(htim);
 8001184:	f000 fbbc 	bl	8001900 <HAL_TIM_Base_MspInit>
  htim->State= HAL_TIM_STATE_BUSY;
 8001188:	2302      	movs	r3, #2
 800118a:	f884 3039 	strb.w	r3, [r4, #57]	; 0x39
  TIM_Base_SetConfig(htim->Instance, &htim->Init); 
 800118e:	6820      	ldr	r0, [r4, #0]
 8001190:	1d21      	adds	r1, r4, #4
 8001192:	f7ff ffa1 	bl	80010d8 <TIM_Base_SetConfig>
  htim->State= HAL_TIM_STATE_READY;
 8001196:	2301      	movs	r3, #1
 8001198:	f884 3039 	strb.w	r3, [r4, #57]	; 0x39
  return HAL_OK;
 800119c:	2000      	movs	r0, #0
 800119e:	bd10      	pop	{r4, pc}
    return HAL_ERROR;
 80011a0:	2001      	movs	r0, #1
}
 80011a2:	bd10      	pop	{r4, pc}

080011a4 <HAL_TIM_PWM_Init>:
{
 80011a4:	b510      	push	{r4, lr}
  if(htim == NULL)
 80011a6:	4604      	mov	r4, r0
 80011a8:	b1a0      	cbz	r0, 80011d4 <HAL_TIM_PWM_Init+0x30>
  if(htim->State == HAL_TIM_STATE_RESET)
 80011aa:	f890 3039 	ldrb.w	r3, [r0, #57]	; 0x39
 80011ae:	f003 02ff 	and.w	r2, r3, #255	; 0xff
 80011b2:	b91b      	cbnz	r3, 80011bc <HAL_TIM_PWM_Init+0x18>
    htim->Lock = HAL_UNLOCKED;
 80011b4:	f880 2038 	strb.w	r2, [r0, #56]	; 0x38
    HAL_TIM_PWM_MspInit(htim);
 80011b8:	f7ff fe2c 	bl	8000e14 <HAL_TIM_PWM_MspInit>
  htim->State= HAL_TIM_STATE_BUSY;  
 80011bc:	2302      	movs	r3, #2
 80011be:	f884 3039 	strb.w	r3, [r4, #57]	; 0x39
  TIM_Base_SetConfig(htim->Instance, &htim->Init); 
 80011c2:	6820      	ldr	r0, [r4, #0]
 80011c4:	1d21      	adds	r1, r4, #4
 80011c6:	f7ff ff87 	bl	80010d8 <TIM_Base_SetConfig>
  htim->State= HAL_TIM_STATE_READY;
 80011ca:	2301      	movs	r3, #1
 80011cc:	f884 3039 	strb.w	r3, [r4, #57]	; 0x39
  return HAL_OK;
 80011d0:	2000      	movs	r0, #0
 80011d2:	bd10      	pop	{r4, pc}
    return HAL_ERROR;
 80011d4:	2001      	movs	r0, #1
}  
 80011d6:	bd10      	pop	{r4, pc}

080011d8 <TIM_OC2_SetConfig>:
  TIMx->CCER &= ~TIM_CCER_CC2E;
 80011d8:	6a03      	ldr	r3, [r0, #32]
 80011da:	f023 0310 	bic.w	r3, r3, #16
 80011de:	6203      	str	r3, [r0, #32]
  tmpccer = TIMx->CCER;
 80011e0:	6a03      	ldr	r3, [r0, #32]
{
 80011e2:	b570      	push	{r4, r5, r6, lr}
  tmpcr2 = TIMx->CR2;
 80011e4:	6844      	ldr	r4, [r0, #4]
  tmpccmrx = TIMx->CCMR1;
 80011e6:	6982      	ldr	r2, [r0, #24]
  tmpccmrx |= (OC_Config->OCMode << 8U);
 80011e8:	680d      	ldr	r5, [r1, #0]
  tmpccmrx &= ~TIM_CCMR1_CC2S;
 80011ea:	f422 42e6 	bic.w	r2, r2, #29440	; 0x7300
  tmpccmrx |= (OC_Config->OCMode << 8U);
 80011ee:	ea42 2205 	orr.w	r2, r2, r5, lsl #8
  tmpccer |= (OC_Config->OCPolarity << 4U);
 80011f2:	688d      	ldr	r5, [r1, #8]
  tmpccer &= ~TIM_CCER_CC2P;
 80011f4:	f023 0320 	bic.w	r3, r3, #32
  tmpccer |= (OC_Config->OCPolarity << 4U);
 80011f8:	ea43 1305 	orr.w	r3, r3, r5, lsl #4
  if(IS_TIM_ADVANCED_INSTANCE(TIMx) != RESET)
 80011fc:	4d0b      	ldr	r5, [pc, #44]	; (800122c <TIM_OC2_SetConfig+0x54>)
 80011fe:	42a8      	cmp	r0, r5
 8001200:	d10d      	bne.n	800121e <TIM_OC2_SetConfig+0x46>
    tmpccer |= (OC_Config->OCNPolarity << 4U);
 8001202:	68cd      	ldr	r5, [r1, #12]
    tmpcr2 |= (OC_Config->OCNIdleState << 2U);
 8001204:	698e      	ldr	r6, [r1, #24]
    tmpccer &= ~TIM_CCER_CC2NP;
 8001206:	f023 0380 	bic.w	r3, r3, #128	; 0x80
    tmpccer |= (OC_Config->OCNPolarity << 4U);
 800120a:	ea43 1305 	orr.w	r3, r3, r5, lsl #4
    tmpcr2 |= (OC_Config->OCIdleState << 2U);
 800120e:	694d      	ldr	r5, [r1, #20]
    tmpcr2 &= ~TIM_CR2_OIS2N;
 8001210:	f424 6440 	bic.w	r4, r4, #3072	; 0xc00
    tmpcr2 |= (OC_Config->OCNIdleState << 2U);
 8001214:	4335      	orrs	r5, r6
    tmpccer &= ~TIM_CCER_CC2NE;
 8001216:	f023 0340 	bic.w	r3, r3, #64	; 0x40
    tmpcr2 |= (OC_Config->OCNIdleState << 2U);
 800121a:	ea44 0485 	orr.w	r4, r4, r5, lsl #2
  TIMx->CR2 = tmpcr2;
 800121e:	6044      	str	r4, [r0, #4]
  TIMx->CCMR1 = tmpccmrx;
 8001220:	6182      	str	r2, [r0, #24]
  TIMx->CCR2 = OC_Config->Pulse;
 8001222:	684a      	ldr	r2, [r1, #4]
 8001224:	6382      	str	r2, [r0, #56]	; 0x38
  TIMx->CCER = tmpccer;
 8001226:	6203      	str	r3, [r0, #32]
 8001228:	bd70      	pop	{r4, r5, r6, pc}
 800122a:	bf00      	nop
 800122c:	40010000 	.word	0x40010000

08001230 <HAL_TIM_PWM_ConfigChannel>:
{
 8001230:	b538      	push	{r3, r4, r5, lr}
  __HAL_LOCK(htim);
 8001232:	f890 3038 	ldrb.w	r3, [r0, #56]	; 0x38
 8001236:	2b01      	cmp	r3, #1
{
 8001238:	4604      	mov	r4, r0
 800123a:	f04f 0002 	mov.w	r0, #2
  __HAL_LOCK(htim);
 800123e:	d025      	beq.n	800128c <HAL_TIM_PWM_ConfigChannel+0x5c>
 8001240:	2301      	movs	r3, #1
 8001242:	f884 3038 	strb.w	r3, [r4, #56]	; 0x38
  htim->State = HAL_TIM_STATE_BUSY;
 8001246:	f884 0039 	strb.w	r0, [r4, #57]	; 0x39
  switch (Channel)
 800124a:	2a0c      	cmp	r2, #12
 800124c:	d818      	bhi.n	8001280 <HAL_TIM_PWM_ConfigChannel+0x50>
 800124e:	e8df f002 	tbb	[pc, r2]
 8001252:	1707      	.short	0x1707
 8001254:	171e1717 	.word	0x171e1717
 8001258:	172f1717 	.word	0x172f1717
 800125c:	1717      	.short	0x1717
 800125e:	40          	.byte	0x40
 800125f:	00          	.byte	0x00
      TIM_OC1_SetConfig(htim->Instance, sConfig);
 8001260:	6820      	ldr	r0, [r4, #0]
 8001262:	f7ff fd63 	bl	8000d2c <TIM_OC1_SetConfig>
      htim->Instance->CCMR1 |= TIM_CCMR1_OC1PE;
 8001266:	6823      	ldr	r3, [r4, #0]
      htim->Instance->CCMR1 |= sConfig->OCFastMode;
 8001268:	6909      	ldr	r1, [r1, #16]
      htim->Instance->CCMR1 |= TIM_CCMR1_OC1PE;
 800126a:	699a      	ldr	r2, [r3, #24]
 800126c:	f042 0208 	orr.w	r2, r2, #8
 8001270:	619a      	str	r2, [r3, #24]
      htim->Instance->CCMR1 &= ~TIM_CCMR1_OC1FE;
 8001272:	699a      	ldr	r2, [r3, #24]
 8001274:	f022 0204 	bic.w	r2, r2, #4
 8001278:	619a      	str	r2, [r3, #24]
      htim->Instance->CCMR1 |= sConfig->OCFastMode;
 800127a:	699a      	ldr	r2, [r3, #24]
 800127c:	430a      	orrs	r2, r1
      htim->Instance->CCMR1 |= sConfig->OCFastMode << 8U;
 800127e:	619a      	str	r2, [r3, #24]
  htim->State = HAL_TIM_STATE_READY;
 8001280:	2301      	movs	r3, #1
  __HAL_UNLOCK(htim);
 8001282:	2000      	movs	r0, #0
  htim->State = HAL_TIM_STATE_READY;
 8001284:	f884 3039 	strb.w	r3, [r4, #57]	; 0x39
  __HAL_UNLOCK(htim);
 8001288:	f884 0038 	strb.w	r0, [r4, #56]	; 0x38
}
 800128c:	bd38      	pop	{r3, r4, r5, pc}
      TIM_OC2_SetConfig(htim->Instance, sConfig);
 800128e:	6820      	ldr	r0, [r4, #0]
 8001290:	f7ff ffa2 	bl	80011d8 <TIM_OC2_SetConfig>
      htim->Instance->CCMR1 |= TIM_CCMR1_OC2PE;
 8001294:	6823      	ldr	r3, [r4, #0]
      htim->Instance->CCMR1 |= sConfig->OCFastMode << 8U;
 8001296:	6909      	ldr	r1, [r1, #16]
      htim->Instance->CCMR1 |= TIM_CCMR1_OC2PE;
 8001298:	699a      	ldr	r2, [r3, #24]
 800129a:	f442 6200 	orr.w	r2, r2, #2048	; 0x800
 800129e:	619a      	str	r2, [r3, #24]
      htim->Instance->CCMR1 &= ~TIM_CCMR1_OC2FE;
 80012a0:	699a      	ldr	r2, [r3, #24]
 80012a2:	f422 6280 	bic.w	r2, r2, #1024	; 0x400
 80012a6:	619a      	str	r2, [r3, #24]
      htim->Instance->CCMR1 |= sConfig->OCFastMode << 8U;
 80012a8:	699a      	ldr	r2, [r3, #24]
 80012aa:	ea42 2201 	orr.w	r2, r2, r1, lsl #8
 80012ae:	e7e6      	b.n	800127e <HAL_TIM_PWM_ConfigChannel+0x4e>
      TIM_OC3_SetConfig(htim->Instance, sConfig);
 80012b0:	6820      	ldr	r0, [r4, #0]
 80012b2:	f7ff fd63 	bl	8000d7c <TIM_OC3_SetConfig>
      htim->Instance->CCMR2 |= TIM_CCMR2_OC3PE;
 80012b6:	6823      	ldr	r3, [r4, #0]
      htim->Instance->CCMR2 |= sConfig->OCFastMode;  
 80012b8:	6909      	ldr	r1, [r1, #16]
      htim->Instance->CCMR2 |= TIM_CCMR2_OC3PE;
 80012ba:	69da      	ldr	r2, [r3, #28]
 80012bc:	f042 0208 	orr.w	r2, r2, #8
 80012c0:	61da      	str	r2, [r3, #28]
      htim->Instance->CCMR2 &= ~TIM_CCMR2_OC3FE;
 80012c2:	69da      	ldr	r2, [r3, #28]
 80012c4:	f022 0204 	bic.w	r2, r2, #4
 80012c8:	61da      	str	r2, [r3, #28]
      htim->Instance->CCMR2 |= sConfig->OCFastMode;  
 80012ca:	69da      	ldr	r2, [r3, #28]
 80012cc:	430a      	orrs	r2, r1
      htim->Instance->CCMR2 |= sConfig->OCFastMode << 8U;  
 80012ce:	61da      	str	r2, [r3, #28]
    break;
 80012d0:	e7d6      	b.n	8001280 <HAL_TIM_PWM_ConfigChannel+0x50>
      TIM_OC4_SetConfig(htim->Instance, sConfig);
 80012d2:	6820      	ldr	r0, [r4, #0]
 80012d4:	f7ff fd7c 	bl	8000dd0 <TIM_OC4_SetConfig>
      htim->Instance->CCMR2 |= TIM_CCMR2_OC4PE;
 80012d8:	6823      	ldr	r3, [r4, #0]
      htim->Instance->CCMR2 |= sConfig->OCFastMode << 8U;  
 80012da:	6909      	ldr	r1, [r1, #16]
      htim->Instance->CCMR2 |= TIM_CCMR2_OC4PE;
 80012dc:	69da      	ldr	r2, [r3, #28]
 80012de:	f442 6200 	orr.w	r2, r2, #2048	; 0x800
 80012e2:	61da      	str	r2, [r3, #28]
      htim->Instance->CCMR2 &= ~TIM_CCMR2_OC4FE;
 80012e4:	69da      	ldr	r2, [r3, #28]
 80012e6:	f422 6280 	bic.w	r2, r2, #1024	; 0x400
 80012ea:	61da      	str	r2, [r3, #28]
      htim->Instance->CCMR2 |= sConfig->OCFastMode << 8U;  
 80012ec:	69da      	ldr	r2, [r3, #28]
 80012ee:	ea42 2201 	orr.w	r2, r2, r1, lsl #8
 80012f2:	e7ec      	b.n	80012ce <HAL_TIM_PWM_ConfigChannel+0x9e>

080012f4 <TIM_CCxChannelCmd>:
  TIMx->CCER &= ~tmp;
 80012f4:	6a03      	ldr	r3, [r0, #32]
{
 80012f6:	b510      	push	{r4, lr}
  tmp = TIM_CCER_CC1E << Channel;
 80012f8:	2401      	movs	r4, #1
 80012fa:	408c      	lsls	r4, r1
  TIMx->CCER &= ~tmp;
 80012fc:	ea23 0304 	bic.w	r3, r3, r4
 8001300:	6203      	str	r3, [r0, #32]
  TIMx->CCER |= (uint32_t)(ChannelState << Channel);
 8001302:	6a03      	ldr	r3, [r0, #32]
 8001304:	408a      	lsls	r2, r1
 8001306:	431a      	orrs	r2, r3
 8001308:	6202      	str	r2, [r0, #32]
 800130a:	bd10      	pop	{r4, pc}

0800130c <HAL_TIM_PWM_Start>:
{
 800130c:	b510      	push	{r4, lr}
 800130e:	4604      	mov	r4, r0
  TIM_CCxChannelCmd(htim->Instance, Channel, TIM_CCx_ENABLE);
 8001310:	2201      	movs	r2, #1
 8001312:	6800      	ldr	r0, [r0, #0]
 8001314:	f7ff ffee 	bl	80012f4 <TIM_CCxChannelCmd>
  if(IS_TIM_ADVANCED_INSTANCE(htim->Instance) != RESET)  
 8001318:	6823      	ldr	r3, [r4, #0]
 800131a:	4a06      	ldr	r2, [pc, #24]	; (8001334 <HAL_TIM_PWM_Start+0x28>)
 800131c:	4293      	cmp	r3, r2
    __HAL_TIM_MOE_ENABLE(htim);
 800131e:	bf02      	ittt	eq
 8001320:	6c5a      	ldreq	r2, [r3, #68]	; 0x44
 8001322:	f442 4200 	orreq.w	r2, r2, #32768	; 0x8000
 8001326:	645a      	streq	r2, [r3, #68]	; 0x44
  __HAL_TIM_ENABLE(htim);
 8001328:	681a      	ldr	r2, [r3, #0]
 800132a:	f042 0201 	orr.w	r2, r2, #1
 800132e:	601a      	str	r2, [r3, #0]
} 
 8001330:	2000      	movs	r0, #0
 8001332:	bd10      	pop	{r4, pc}
 8001334:	40010000 	.word	0x40010000

08001338 <HAL_TIMEx_MasterConfigSynchronization>:
  /* Check the parameters */
  assert_param(IS_TIM_MASTER_INSTANCE(htim->Instance));
  assert_param(IS_TIM_TRGO_SOURCE(sMasterConfig->MasterOutputTrigger));
  assert_param(IS_TIM_MSM_STATE(sMasterConfig->MasterSlaveMode));
  
  __HAL_LOCK(htim);
 8001338:	f890 3038 	ldrb.w	r3, [r0, #56]	; 0x38
 800133c:	2b01      	cmp	r3, #1
{
 800133e:	b510      	push	{r4, lr}
 8001340:	f04f 0302 	mov.w	r3, #2
  __HAL_LOCK(htim);
 8001344:	d018      	beq.n	8001378 <HAL_TIMEx_MasterConfigSynchronization+0x40>
  
  htim->State = HAL_TIM_STATE_BUSY;
 8001346:	f880 3039 	strb.w	r3, [r0, #57]	; 0x39

  /* Reset the MMS Bits */
  htim->Instance->CR2 &= ~TIM_CR2_MMS;
 800134a:	6803      	ldr	r3, [r0, #0]
  /* Select the TRGO source */
  htim->Instance->CR2 |= sMasterConfig->MasterOutputTrigger;
 800134c:	680c      	ldr	r4, [r1, #0]
  htim->Instance->CR2 &= ~TIM_CR2_MMS;
 800134e:	685a      	ldr	r2, [r3, #4]

  /* Reset the MSM Bit */
  htim->Instance->SMCR &= ~TIM_SMCR_MSM;
  /* Set or Reset the MSM Bit */
  htim->Instance->SMCR |= sMasterConfig->MasterSlaveMode;
 8001350:	6849      	ldr	r1, [r1, #4]
  htim->Instance->CR2 &= ~TIM_CR2_MMS;
 8001352:	f022 0270 	bic.w	r2, r2, #112	; 0x70
 8001356:	605a      	str	r2, [r3, #4]
  htim->Instance->CR2 |= sMasterConfig->MasterOutputTrigger;
 8001358:	685a      	ldr	r2, [r3, #4]
 800135a:	4322      	orrs	r2, r4
 800135c:	605a      	str	r2, [r3, #4]
  htim->Instance->SMCR &= ~TIM_SMCR_MSM;
 800135e:	689a      	ldr	r2, [r3, #8]
 8001360:	f022 0280 	bic.w	r2, r2, #128	; 0x80
 8001364:	609a      	str	r2, [r3, #8]
  htim->Instance->SMCR |= sMasterConfig->MasterSlaveMode;
 8001366:	689a      	ldr	r2, [r3, #8]
 8001368:	430a      	orrs	r2, r1
 800136a:	609a      	str	r2, [r3, #8]
  
  htim->State = HAL_TIM_STATE_READY;
 800136c:	2301      	movs	r3, #1
 800136e:	f880 3039 	strb.w	r3, [r0, #57]	; 0x39
  
  __HAL_UNLOCK(htim);
 8001372:	2300      	movs	r3, #0
 8001374:	f880 3038 	strb.w	r3, [r0, #56]	; 0x38
  __HAL_LOCK(htim);
 8001378:	4618      	mov	r0, r3
  
  return HAL_OK;
} 
 800137a:	bd10      	pop	{r4, pc}

0800137c <HAL_TIMEx_CommutationCallback>:
 800137c:	4770      	bx	lr

0800137e <HAL_TIMEx_BreakCallback>:
  * @param  htim pointer to a TIM_HandleTypeDef structure that contains
  *                the configuration information for TIM module.
  * @retval None
  */
__weak void HAL_TIMEx_BreakCallback(TIM_HandleTypeDef *htim)
{
 800137e:	4770      	bx	lr

08001380 <UART_SetConfig>:
  * @param  huart pointer to a UART_HandleTypeDef structure that contains
  *                the configuration information for the specified UART module.
  * @retval None
  */
static void UART_SetConfig(UART_HandleTypeDef *huart)
{
 8001380:	e92d 47f0 	stmdb	sp!, {r4, r5, r6, r7, r8, r9, sl, lr}
  assert_param(IS_UART_STOPBITS(huart->Init.StopBits));
  assert_param(IS_UART_PARITY(huart->Init.Parity));
  assert_param(IS_UART_MODE(huart->Init.Mode));

  /*-------------------------- USART CR2 Configuration -----------------------*/
  tmpreg = huart->Instance->CR2;
 8001384:	6806      	ldr	r6, [r0, #0]

  /* Clear STOP[13:12] bits */
  tmpreg &= (uint32_t)~((uint32_t)USART_CR2_STOP);

  /* Configure the UART Stop Bits: Set STOP[13:12] bits according to huart->Init.StopBits value */
  tmpreg |= (uint32_t)huart->Init.StopBits;
 8001386:	68c2      	ldr	r2, [r0, #12]
  tmpreg = huart->Instance->CR2;
 8001388:	6933      	ldr	r3, [r6, #16]
  /* Configure the UART Word Length, Parity and mode: 
     Set the M bits according to huart->Init.WordLength value 
     Set PCE and PS bits according to huart->Init.Parity value
     Set TE and RE bits according to huart->Init.Mode value
     Set OVER8 bit according to huart->Init.OverSampling value */
  tmpreg |= (uint32_t)huart->Init.WordLength | huart->Init.Parity | huart->Init.Mode | huart->Init.OverSampling;
 800138a:	69c1      	ldr	r1, [r0, #28]
  tmpreg &= (uint32_t)~((uint32_t)USART_CR2_STOP);
 800138c:	f423 5340 	bic.w	r3, r3, #12288	; 0x3000
  tmpreg |= (uint32_t)huart->Init.StopBits;
 8001390:	4313      	orrs	r3, r2
  WRITE_REG(huart->Instance->CR2, (uint32_t)tmpreg);
 8001392:	6133      	str	r3, [r6, #16]
{
 8001394:	4604      	mov	r4, r0
  tmpreg |= (uint32_t)huart->Init.WordLength | huart->Init.Parity | huart->Init.Mode | huart->Init.OverSampling;
 8001396:	6883      	ldr	r3, [r0, #8]
 8001398:	6900      	ldr	r0, [r0, #16]
  tmpreg = huart->Instance->CR1;
 800139a:	68f2      	ldr	r2, [r6, #12]
  tmpreg |= (uint32_t)huart->Init.WordLength | huart->Init.Parity | huart->Init.Mode | huart->Init.OverSampling;
 800139c:	4303      	orrs	r3, r0
 800139e:	6960      	ldr	r0, [r4, #20]
  tmpreg &= (uint32_t)~((uint32_t)(USART_CR1_M | USART_CR1_PCE | USART_CR1_PS | USART_CR1_TE | \
 80013a0:	f422 4216 	bic.w	r2, r2, #38400	; 0x9600
  tmpreg |= (uint32_t)huart->Init.WordLength | huart->Init.Parity | huart->Init.Mode | huart->Init.OverSampling;
 80013a4:	4303      	orrs	r3, r0
  tmpreg &= (uint32_t)~((uint32_t)(USART_CR1_M | USART_CR1_PCE | USART_CR1_PS | USART_CR1_TE | \
 80013a6:	f022 020c 	bic.w	r2, r2, #12
  tmpreg |= (uint32_t)huart->Init.WordLength | huart->Init.Parity | huart->Init.Mode | huart->Init.OverSampling;
 80013aa:	430b      	orrs	r3, r1
 80013ac:	4313      	orrs	r3, r2
  
  /* Write to USART CR1 */
  WRITE_REG(huart->Instance->CR1, (uint32_t)tmpreg);
 80013ae:	60f3      	str	r3, [r6, #12]
  
  /*-------------------------- USART CR3 Configuration -----------------------*/  
  tmpreg = huart->Instance->CR3;
 80013b0:	6973      	ldr	r3, [r6, #20]
  
  /* Clear CTSE and RTSE bits */
  tmpreg &= (uint32_t)~((uint32_t)(USART_CR3_RTSE | USART_CR3_CTSE));
  
  /* Configure the UART HFC: Set CTSE and RTSE bits according to huart->Init.HwFlowCtl value */
  tmpreg |= huart->Init.HwFlowCtl;
 80013b2:	69a2      	ldr	r2, [r4, #24]
  tmpreg &= (uint32_t)~((uint32_t)(USART_CR3_RTSE | USART_CR3_CTSE));
 80013b4:	f423 7340 	bic.w	r3, r3, #768	; 0x300
  tmpreg |= huart->Init.HwFlowCtl;
 80013b8:	4313      	orrs	r3, r2
  
  /* Write to USART CR3 */
  WRITE_REG(huart->Instance->CR3, (uint32_t)tmpreg);
  
  /* Check the Over Sampling */
  if(huart->Init.OverSampling == UART_OVERSAMPLING_8)
 80013ba:	f5b1 4f00 	cmp.w	r1, #32768	; 0x8000
  WRITE_REG(huart->Instance->CR3, (uint32_t)tmpreg);
 80013be:	6173      	str	r3, [r6, #20]
 80013c0:	4b7a      	ldr	r3, [pc, #488]	; (80015ac <UART_SetConfig+0x22c>)
  if(huart->Init.OverSampling == UART_OVERSAMPLING_8)
 80013c2:	d17c      	bne.n	80014be <UART_SetConfig+0x13e>
  {
    /*-------------------------- USART BRR Configuration ---------------------*/
#if defined(USART6) 
    if((huart->Instance == USART1) || (huart->Instance == USART6))
 80013c4:	429e      	cmp	r6, r3
 80013c6:	d003      	beq.n	80013d0 <UART_SetConfig+0x50>
 80013c8:	f503 6380 	add.w	r3, r3, #1024	; 0x400
 80013cc:	429e      	cmp	r6, r3
 80013ce:	d144      	bne.n	800145a <UART_SetConfig+0xda>
    {
      huart->Instance->BRR = UART_BRR_SAMPLING8(HAL_RCC_GetPCLK2Freq(), huart->Init.BaudRate);
 80013d0:	f7ff fc9c 	bl	8000d0c <HAL_RCC_GetPCLK2Freq>
 80013d4:	2519      	movs	r5, #25
 80013d6:	fb05 f300 	mul.w	r3, r5, r0
 80013da:	6860      	ldr	r0, [r4, #4]
 80013dc:	f04f 0964 	mov.w	r9, #100	; 0x64
 80013e0:	0040      	lsls	r0, r0, #1
 80013e2:	fbb3 f3f0 	udiv	r3, r3, r0
 80013e6:	fbb3 f3f9 	udiv	r3, r3, r9
 80013ea:	ea4f 1803 	mov.w	r8, r3, lsl #4
 80013ee:	f7ff fc8d 	bl	8000d0c <HAL_RCC_GetPCLK2Freq>
 80013f2:	6863      	ldr	r3, [r4, #4]
 80013f4:	4368      	muls	r0, r5
 80013f6:	005b      	lsls	r3, r3, #1
 80013f8:	fbb0 f7f3 	udiv	r7, r0, r3
 80013fc:	f7ff fc86 	bl	8000d0c <HAL_RCC_GetPCLK2Freq>
 8001400:	6863      	ldr	r3, [r4, #4]
 8001402:	4368      	muls	r0, r5
 8001404:	005b      	lsls	r3, r3, #1
 8001406:	fbb0 f3f3 	udiv	r3, r0, r3
 800140a:	fbb3 f3f9 	udiv	r3, r3, r9
 800140e:	fb09 7313 	mls	r3, r9, r3, r7
 8001412:	00db      	lsls	r3, r3, #3
 8001414:	3332      	adds	r3, #50	; 0x32
 8001416:	fbb3 f3f9 	udiv	r3, r3, r9
 800141a:	005b      	lsls	r3, r3, #1
 800141c:	f403 77f8 	and.w	r7, r3, #496	; 0x1f0
 8001420:	f7ff fc74 	bl	8000d0c <HAL_RCC_GetPCLK2Freq>
 8001424:	6862      	ldr	r2, [r4, #4]
 8001426:	4368      	muls	r0, r5
 8001428:	0052      	lsls	r2, r2, #1
 800142a:	fbb0 faf2 	udiv	sl, r0, r2
 800142e:	f7ff fc6d 	bl	8000d0c <HAL_RCC_GetPCLK2Freq>
      huart->Instance->BRR = UART_BRR_SAMPLING8(HAL_RCC_GetPCLK2Freq(), huart->Init.BaudRate);
    }	
#endif /* USART6 */
    else
    {
      huart->Instance->BRR = UART_BRR_SAMPLING8(HAL_RCC_GetPCLK1Freq(), huart->Init.BaudRate);
 8001432:	6863      	ldr	r3, [r4, #4]
 8001434:	4368      	muls	r0, r5
 8001436:	005b      	lsls	r3, r3, #1
 8001438:	fbb0 f3f3 	udiv	r3, r0, r3
 800143c:	fbb3 f3f9 	udiv	r3, r3, r9
 8001440:	fb09 a313 	mls	r3, r9, r3, sl
 8001444:	00db      	lsls	r3, r3, #3
 8001446:	3332      	adds	r3, #50	; 0x32
 8001448:	fbb3 f3f9 	udiv	r3, r3, r9
 800144c:	f003 0307 	and.w	r3, r3, #7
 8001450:	4443      	add	r3, r8
      huart->Instance->BRR = UART_BRR_SAMPLING16(HAL_RCC_GetPCLK2Freq(), huart->Init.BaudRate);
    }	
#endif /* USART6 */
    else
    {
      huart->Instance->BRR = UART_BRR_SAMPLING16(HAL_RCC_GetPCLK1Freq(), huart->Init.BaudRate);
 8001452:	443b      	add	r3, r7
 8001454:	60b3      	str	r3, [r6, #8]
 8001456:	e8bd 87f0 	ldmia.w	sp!, {r4, r5, r6, r7, r8, r9, sl, pc}
      huart->Instance->BRR = UART_BRR_SAMPLING8(HAL_RCC_GetPCLK1Freq(), huart->Init.BaudRate);
 800145a:	f7ff fc47 	bl	8000cec <HAL_RCC_GetPCLK1Freq>
 800145e:	2519      	movs	r5, #25
 8001460:	fb05 f300 	mul.w	r3, r5, r0
 8001464:	6860      	ldr	r0, [r4, #4]
 8001466:	f04f 0964 	mov.w	r9, #100	; 0x64
 800146a:	0040      	lsls	r0, r0, #1
 800146c:	fbb3 f3f0 	udiv	r3, r3, r0
 8001470:	fbb3 f3f9 	udiv	r3, r3, r9
 8001474:	ea4f 1803 	mov.w	r8, r3, lsl #4
 8001478:	f7ff fc38 	bl	8000cec <HAL_RCC_GetPCLK1Freq>
 800147c:	6863      	ldr	r3, [r4, #4]
 800147e:	4368      	muls	r0, r5
 8001480:	005b      	lsls	r3, r3, #1
 8001482:	fbb0 f7f3 	udiv	r7, r0, r3
 8001486:	f7ff fc31 	bl	8000cec <HAL_RCC_GetPCLK1Freq>
 800148a:	6863      	ldr	r3, [r4, #4]
 800148c:	4368      	muls	r0, r5
 800148e:	005b      	lsls	r3, r3, #1
 8001490:	fbb0 f3f3 	udiv	r3, r0, r3
 8001494:	fbb3 f3f9 	udiv	r3, r3, r9
 8001498:	fb09 7313 	mls	r3, r9, r3, r7
 800149c:	00db      	lsls	r3, r3, #3
 800149e:	3332      	adds	r3, #50	; 0x32
 80014a0:	fbb3 f3f9 	udiv	r3, r3, r9
 80014a4:	005b      	lsls	r3, r3, #1
 80014a6:	f403 77f8 	and.w	r7, r3, #496	; 0x1f0
 80014aa:	f7ff fc1f 	bl	8000cec <HAL_RCC_GetPCLK1Freq>
 80014ae:	6862      	ldr	r2, [r4, #4]
 80014b0:	4368      	muls	r0, r5
 80014b2:	0052      	lsls	r2, r2, #1
 80014b4:	fbb0 faf2 	udiv	sl, r0, r2
 80014b8:	f7ff fc18 	bl	8000cec <HAL_RCC_GetPCLK1Freq>
 80014bc:	e7b9      	b.n	8001432 <UART_SetConfig+0xb2>
    if((huart->Instance == USART1) || (huart->Instance == USART6))
 80014be:	429e      	cmp	r6, r3
 80014c0:	d002      	beq.n	80014c8 <UART_SetConfig+0x148>
 80014c2:	4b3b      	ldr	r3, [pc, #236]	; (80015b0 <UART_SetConfig+0x230>)
 80014c4:	429e      	cmp	r6, r3
 80014c6:	d140      	bne.n	800154a <UART_SetConfig+0x1ca>
      huart->Instance->BRR = UART_BRR_SAMPLING16(HAL_RCC_GetPCLK2Freq(), huart->Init.BaudRate);
 80014c8:	f7ff fc20 	bl	8000d0c <HAL_RCC_GetPCLK2Freq>
 80014cc:	6867      	ldr	r7, [r4, #4]
 80014ce:	2519      	movs	r5, #25
 80014d0:	f04f 0964 	mov.w	r9, #100	; 0x64
 80014d4:	fb05 f300 	mul.w	r3, r5, r0
 80014d8:	00bf      	lsls	r7, r7, #2
 80014da:	fbb3 f3f7 	udiv	r3, r3, r7
 80014de:	fbb3 f3f9 	udiv	r3, r3, r9
 80014e2:	011f      	lsls	r7, r3, #4
 80014e4:	f7ff fc12 	bl	8000d0c <HAL_RCC_GetPCLK2Freq>
 80014e8:	6863      	ldr	r3, [r4, #4]
 80014ea:	4368      	muls	r0, r5
 80014ec:	009b      	lsls	r3, r3, #2
 80014ee:	fbb0 f8f3 	udiv	r8, r0, r3
 80014f2:	f7ff fc0b 	bl	8000d0c <HAL_RCC_GetPCLK2Freq>
 80014f6:	6863      	ldr	r3, [r4, #4]
 80014f8:	4368      	muls	r0, r5
 80014fa:	009b      	lsls	r3, r3, #2
 80014fc:	fbb0 f3f3 	udiv	r3, r0, r3
 8001500:	fbb3 f3f9 	udiv	r3, r3, r9
 8001504:	fb09 8313 	mls	r3, r9, r3, r8
 8001508:	011b      	lsls	r3, r3, #4
 800150a:	3332      	adds	r3, #50	; 0x32
 800150c:	fbb3 f3f9 	udiv	r3, r3, r9
 8001510:	f003 08f0 	and.w	r8, r3, #240	; 0xf0
 8001514:	f7ff fbfa 	bl	8000d0c <HAL_RCC_GetPCLK2Freq>
 8001518:	6862      	ldr	r2, [r4, #4]
 800151a:	4368      	muls	r0, r5
 800151c:	0092      	lsls	r2, r2, #2
 800151e:	fbb0 faf2 	udiv	sl, r0, r2
 8001522:	f7ff fbf3 	bl	8000d0c <HAL_RCC_GetPCLK2Freq>
      huart->Instance->BRR = UART_BRR_SAMPLING16(HAL_RCC_GetPCLK1Freq(), huart->Init.BaudRate);
 8001526:	6863      	ldr	r3, [r4, #4]
 8001528:	4368      	muls	r0, r5
 800152a:	009b      	lsls	r3, r3, #2
 800152c:	fbb0 f3f3 	udiv	r3, r0, r3
 8001530:	fbb3 f3f9 	udiv	r3, r3, r9
 8001534:	fb09 a313 	mls	r3, r9, r3, sl
 8001538:	011b      	lsls	r3, r3, #4
 800153a:	3332      	adds	r3, #50	; 0x32
 800153c:	fbb3 f3f9 	udiv	r3, r3, r9
 8001540:	f003 030f 	and.w	r3, r3, #15
 8001544:	ea43 0308 	orr.w	r3, r3, r8
 8001548:	e783      	b.n	8001452 <UART_SetConfig+0xd2>
 800154a:	f7ff fbcf 	bl	8000cec <HAL_RCC_GetPCLK1Freq>
 800154e:	6867      	ldr	r7, [r4, #4]
 8001550:	2519      	movs	r5, #25
 8001552:	f04f 0964 	mov.w	r9, #100	; 0x64
 8001556:	fb05 f300 	mul.w	r3, r5, r0
 800155a:	00bf      	lsls	r7, r7, #2
 800155c:	fbb3 f3f7 	udiv	r3, r3, r7
 8001560:	fbb3 f3f9 	udiv	r3, r3, r9
 8001564:	011f      	lsls	r7, r3, #4
 8001566:	f7ff fbc1 	bl	8000cec <HAL_RCC_GetPCLK1Freq>
 800156a:	6863      	ldr	r3, [r4, #4]
 800156c:	4368      	muls	r0, r5
 800156e:	009b      	lsls	r3, r3, #2
 8001570:	fbb0 f8f3 	udiv	r8, r0, r3
 8001574:	f7ff fbba 	bl	8000cec <HAL_RCC_GetPCLK1Freq>
 8001578:	6863      	ldr	r3, [r4, #4]
 800157a:	4368      	muls	r0, r5
 800157c:	009b      	lsls	r3, r3, #2
 800157e:	fbb0 f3f3 	udiv	r3, r0, r3
 8001582:	fbb3 f3f9 	udiv	r3, r3, r9
 8001586:	fb09 8313 	mls	r3, r9, r3, r8
 800158a:	011b      	lsls	r3, r3, #4
 800158c:	3332      	adds	r3, #50	; 0x32
 800158e:	fbb3 f3f9 	udiv	r3, r3, r9
 8001592:	f003 08f0 	and.w	r8, r3, #240	; 0xf0
 8001596:	f7ff fba9 	bl	8000cec <HAL_RCC_GetPCLK1Freq>
 800159a:	6862      	ldr	r2, [r4, #4]
 800159c:	4368      	muls	r0, r5
 800159e:	0092      	lsls	r2, r2, #2
 80015a0:	fbb0 faf2 	udiv	sl, r0, r2
 80015a4:	f7ff fba2 	bl	8000cec <HAL_RCC_GetPCLK1Freq>
 80015a8:	e7bd      	b.n	8001526 <UART_SetConfig+0x1a6>
 80015aa:	bf00      	nop
 80015ac:	40011000 	.word	0x40011000
 80015b0:	40011400 	.word	0x40011400

080015b4 <HAL_UART_Init>:
{
 80015b4:	b510      	push	{r4, lr}
  if(huart == NULL)
 80015b6:	4604      	mov	r4, r0
 80015b8:	b340      	cbz	r0, 800160c <HAL_UART_Init+0x58>
  if(huart->gState == HAL_UART_STATE_RESET)
 80015ba:	f890 3039 	ldrb.w	r3, [r0, #57]	; 0x39
 80015be:	f003 02ff 	and.w	r2, r3, #255	; 0xff
 80015c2:	b91b      	cbnz	r3, 80015cc <HAL_UART_Init+0x18>
    huart->Lock = HAL_UNLOCKED;
 80015c4:	f880 2038 	strb.w	r2, [r0, #56]	; 0x38
    HAL_UART_MspInit(huart);
 80015c8:	f000 f9da 	bl	8001980 <HAL_UART_MspInit>
  __HAL_UART_DISABLE(huart);
 80015cc:	6822      	ldr	r2, [r4, #0]
  huart->gState = HAL_UART_STATE_BUSY;
 80015ce:	2324      	movs	r3, #36	; 0x24
 80015d0:	f884 3039 	strb.w	r3, [r4, #57]	; 0x39
  __HAL_UART_DISABLE(huart);
 80015d4:	68d3      	ldr	r3, [r2, #12]
 80015d6:	f423 5300 	bic.w	r3, r3, #8192	; 0x2000
 80015da:	60d3      	str	r3, [r2, #12]
  UART_SetConfig(huart);
 80015dc:	4620      	mov	r0, r4
 80015de:	f7ff fecf 	bl	8001380 <UART_SetConfig>
  CLEAR_BIT(huart->Instance->CR2, (USART_CR2_LINEN | USART_CR2_CLKEN));
 80015e2:	6823      	ldr	r3, [r4, #0]
 80015e4:	691a      	ldr	r2, [r3, #16]
 80015e6:	f422 4290 	bic.w	r2, r2, #18432	; 0x4800
 80015ea:	611a      	str	r2, [r3, #16]
  CLEAR_BIT(huart->Instance->CR3, (USART_CR3_SCEN | USART_CR3_HDSEL | USART_CR3_IREN));
 80015ec:	695a      	ldr	r2, [r3, #20]
 80015ee:	f022 022a 	bic.w	r2, r2, #42	; 0x2a
 80015f2:	615a      	str	r2, [r3, #20]
  __HAL_UART_ENABLE(huart);
 80015f4:	68da      	ldr	r2, [r3, #12]
 80015f6:	f442 5200 	orr.w	r2, r2, #8192	; 0x2000
 80015fa:	60da      	str	r2, [r3, #12]
  huart->ErrorCode = HAL_UART_ERROR_NONE;
 80015fc:	2000      	movs	r0, #0
  huart->gState= HAL_UART_STATE_READY;
 80015fe:	2320      	movs	r3, #32
  huart->ErrorCode = HAL_UART_ERROR_NONE;
 8001600:	63e0      	str	r0, [r4, #60]	; 0x3c
  huart->gState= HAL_UART_STATE_READY;
 8001602:	f884 3039 	strb.w	r3, [r4, #57]	; 0x39
  huart->RxState= HAL_UART_STATE_READY;
 8001606:	f884 303a 	strb.w	r3, [r4, #58]	; 0x3a
  return HAL_OK;
 800160a:	bd10      	pop	{r4, pc}
    return HAL_ERROR;
 800160c:	2001      	movs	r0, #1
}
 800160e:	bd10      	pop	{r4, pc}

08001610 <SystemClock_Config>:
/**
  * @brief System Clock Configuration
  * @retval None
  */
void SystemClock_Config(void)
{
 8001610:	b530      	push	{r4, r5, lr}
 8001612:	b095      	sub	sp, #84	; 0x54
  RCC_OscInitTypeDef RCC_OscInitStruct;
  RCC_ClkInitTypeDef RCC_ClkInitStruct;

    /**Configure the main internal regulator output voltage 
    */
  __HAL_RCC_PWR_CLK_ENABLE();
 8001614:	4b28      	ldr	r3, [pc, #160]	; (80016b8 <SystemClock_Config+0xa8>)
 8001616:	2100      	movs	r1, #0
 8001618:	9101      	str	r1, [sp, #4]
 800161a:	6c1a      	ldr	r2, [r3, #64]	; 0x40
 800161c:	f042 5280 	orr.w	r2, r2, #268435456	; 0x10000000
 8001620:	641a      	str	r2, [r3, #64]	; 0x40
 8001622:	6c1b      	ldr	r3, [r3, #64]	; 0x40

  __HAL_PWR_VOLTAGESCALING_CONFIG(PWR_REGULATOR_VOLTAGE_SCALE2);
 8001624:	4a25      	ldr	r2, [pc, #148]	; (80016bc <SystemClock_Config+0xac>)
  __HAL_RCC_PWR_CLK_ENABLE();
 8001626:	f003 5380 	and.w	r3, r3, #268435456	; 0x10000000
 800162a:	9301      	str	r3, [sp, #4]
 800162c:	9b01      	ldr	r3, [sp, #4]
  __HAL_PWR_VOLTAGESCALING_CONFIG(PWR_REGULATOR_VOLTAGE_SCALE2);
 800162e:	9102      	str	r1, [sp, #8]
 8001630:	6813      	ldr	r3, [r2, #0]
 8001632:	f423 4340 	bic.w	r3, r3, #49152	; 0xc000
 8001636:	f443 4300 	orr.w	r3, r3, #32768	; 0x8000
 800163a:	6013      	str	r3, [r2, #0]
 800163c:	6813      	ldr	r3, [r2, #0]
 800163e:	f403 4340 	and.w	r3, r3, #49152	; 0xc000
 8001642:	9302      	str	r3, [sp, #8]
 8001644:	9b02      	ldr	r3, [sp, #8]

    /**Initializes the CPU, AHB and APB busses clocks 
    */
  RCC_OscInitStruct.OscillatorType = RCC_OSCILLATORTYPE_HSE;
 8001646:	2301      	movs	r3, #1
 8001648:	9308      	str	r3, [sp, #32]
  RCC_OscInitStruct.HSEState = RCC_HSE_ON;
 800164a:	f44f 3380 	mov.w	r3, #65536	; 0x10000
 800164e:	9309      	str	r3, [sp, #36]	; 0x24
  RCC_OscInitStruct.PLL.PLLState = RCC_PLL_ON;
  RCC_OscInitStruct.PLL.PLLSource = RCC_PLLSOURCE_HSE;
 8001650:	f44f 0380 	mov.w	r3, #4194304	; 0x400000
 8001654:	930f      	str	r3, [sp, #60]	; 0x3c
  RCC_OscInitStruct.PLL.PLLM = 4;
  RCC_OscInitStruct.PLL.PLLN = 84;
 8001656:	2354      	movs	r3, #84	; 0x54
  RCC_OscInitStruct.PLL.PLLState = RCC_PLL_ON;
 8001658:	2402      	movs	r4, #2
  RCC_OscInitStruct.PLL.PLLM = 4;
 800165a:	2504      	movs	r5, #4
  RCC_OscInitStruct.PLL.PLLN = 84;
 800165c:	9311      	str	r3, [sp, #68]	; 0x44
  RCC_OscInitStruct.PLL.PLLP = RCC_PLLP_DIV2;
  RCC_OscInitStruct.PLL.PLLQ = 7;
  if (HAL_RCC_OscConfig(&RCC_OscInitStruct) != HAL_OK)
 800165e:	a808      	add	r0, sp, #32
  RCC_OscInitStruct.PLL.PLLQ = 7;
 8001660:	2307      	movs	r3, #7
  RCC_OscInitStruct.PLL.PLLState = RCC_PLL_ON;
 8001662:	940e      	str	r4, [sp, #56]	; 0x38
  RCC_OscInitStruct.PLL.PLLM = 4;
 8001664:	9510      	str	r5, [sp, #64]	; 0x40
  RCC_OscInitStruct.PLL.PLLP = RCC_PLLP_DIV2;
 8001666:	9412      	str	r4, [sp, #72]	; 0x48
  RCC_OscInitStruct.PLL.PLLQ = 7;
 8001668:	9313      	str	r3, [sp, #76]	; 0x4c
  if (HAL_RCC_OscConfig(&RCC_OscInitStruct) != HAL_OK)
 800166a:	f7ff f8ef 	bl	800084c <HAL_RCC_OscConfig>
 800166e:	b100      	cbz	r0, 8001672 <SystemClock_Config+0x62>
 8001670:	e7fe      	b.n	8001670 <SystemClock_Config+0x60>
    _Error_Handler(__FILE__, __LINE__);
  }

    /**Initializes the CPU, AHB and APB busses clocks 
    */
  RCC_ClkInitStruct.ClockType = RCC_CLOCKTYPE_HCLK|RCC_CLOCKTYPE_SYSCLK
 8001672:	230f      	movs	r3, #15
 8001674:	9303      	str	r3, [sp, #12]
                              |RCC_CLOCKTYPE_PCLK1|RCC_CLOCKTYPE_PCLK2;
  RCC_ClkInitStruct.SYSCLKSource = RCC_SYSCLKSOURCE_PLLCLK;
  RCC_ClkInitStruct.AHBCLKDivider = RCC_SYSCLK_DIV1;
 8001676:	9005      	str	r0, [sp, #20]
  RCC_ClkInitStruct.APB1CLKDivider = RCC_HCLK_DIV2;
 8001678:	f44f 5380 	mov.w	r3, #4096	; 0x1000
  RCC_ClkInitStruct.APB2CLKDivider = RCC_HCLK_DIV1;
 800167c:	9007      	str	r0, [sp, #28]

  if (HAL_RCC_ClockConfig(&RCC_ClkInitStruct, FLASH_LATENCY_2) != HAL_OK)
 800167e:	4621      	mov	r1, r4
 8001680:	a803      	add	r0, sp, #12
  RCC_ClkInitStruct.SYSCLKSource = RCC_SYSCLKSOURCE_PLLCLK;
 8001682:	9404      	str	r4, [sp, #16]
  RCC_ClkInitStruct.APB1CLKDivider = RCC_HCLK_DIV2;
 8001684:	9306      	str	r3, [sp, #24]
  if (HAL_RCC_ClockConfig(&RCC_ClkInitStruct, FLASH_LATENCY_2) != HAL_OK)
 8001686:	f7ff fa91 	bl	8000bac <HAL_RCC_ClockConfig>
 800168a:	4604      	mov	r4, r0
 800168c:	b100      	cbz	r0, 8001690 <SystemClock_Config+0x80>
 800168e:	e7fe      	b.n	800168e <SystemClock_Config+0x7e>
    _Error_Handler(__FILE__, __LINE__);
  }

    /**Configure the Systick interrupt time 
    */
  HAL_SYSTICK_Config(HAL_RCC_GetHCLKFreq()/1000);
 8001690:	f7ff fb26 	bl	8000ce0 <HAL_RCC_GetHCLKFreq>
 8001694:	f44f 737a 	mov.w	r3, #1000	; 0x3e8
 8001698:	fbb0 f0f3 	udiv	r0, r0, r3
 800169c:	f7fe ffd8 	bl	8000650 <HAL_SYSTICK_Config>

    /**Configure the Systick 
    */
  HAL_SYSTICK_CLKSourceConfig(SYSTICK_CLKSOURCE_HCLK);
 80016a0:	4628      	mov	r0, r5
 80016a2:	f7fe ffeb 	bl	800067c <HAL_SYSTICK_CLKSourceConfig>

  /* SysTick_IRQn interrupt configuration */
  HAL_NVIC_SetPriority(SysTick_IRQn, 0, 0);
 80016a6:	4622      	mov	r2, r4
 80016a8:	4621      	mov	r1, r4
 80016aa:	f04f 30ff 	mov.w	r0, #4294967295
 80016ae:	f7fe ff8f 	bl	80005d0 <HAL_NVIC_SetPriority>
}
 80016b2:	b015      	add	sp, #84	; 0x54
 80016b4:	bd30      	pop	{r4, r5, pc}
 80016b6:	bf00      	nop
 80016b8:	40023800 	.word	0x40023800
 80016bc:	40007000 	.word	0x40007000

080016c0 <main>:
{
 80016c0:	b5f0      	push	{r4, r5, r6, r7, lr}
 80016c2:	b093      	sub	sp, #76	; 0x4c
{

  GPIO_InitTypeDef GPIO_InitStruct;

  /* GPIO Ports Clock Enable */
  __HAL_RCC_GPIOC_CLK_ENABLE();
 80016c4:	2400      	movs	r4, #0
  HAL_Init();
 80016c6:	f7fe ff31 	bl	800052c <HAL_Init>
  SystemClock_Config();
 80016ca:	f7ff ffa1 	bl	8001610 <SystemClock_Config>
  __HAL_RCC_GPIOC_CLK_ENABLE();
 80016ce:	4b62      	ldr	r3, [pc, #392]	; (8001858 <main+0x198>)
 80016d0:	9401      	str	r4, [sp, #4]
 80016d2:	6b1a      	ldr	r2, [r3, #48]	; 0x30

  /*Configure GPIO pin : B1_Pin */
  GPIO_InitStruct.Pin = B1_Pin;
  GPIO_InitStruct.Mode = GPIO_MODE_IT_FALLING;
  GPIO_InitStruct.Pull = GPIO_NOPULL;
  HAL_GPIO_Init(B1_GPIO_Port, &GPIO_InitStruct);
 80016d4:	4861      	ldr	r0, [pc, #388]	; (800185c <main+0x19c>)
  __HAL_RCC_GPIOC_CLK_ENABLE();
 80016d6:	f042 0204 	orr.w	r2, r2, #4
 80016da:	631a      	str	r2, [r3, #48]	; 0x30
 80016dc:	6b1a      	ldr	r2, [r3, #48]	; 0x30
 80016de:	f002 0204 	and.w	r2, r2, #4
 80016e2:	9201      	str	r2, [sp, #4]
 80016e4:	9a01      	ldr	r2, [sp, #4]
  __HAL_RCC_GPIOH_CLK_ENABLE();
 80016e6:	9402      	str	r4, [sp, #8]
 80016e8:	6b1a      	ldr	r2, [r3, #48]	; 0x30
 80016ea:	f042 0280 	orr.w	r2, r2, #128	; 0x80
 80016ee:	631a      	str	r2, [r3, #48]	; 0x30
 80016f0:	6b1a      	ldr	r2, [r3, #48]	; 0x30
 80016f2:	f002 0280 	and.w	r2, r2, #128	; 0x80
 80016f6:	9202      	str	r2, [sp, #8]
 80016f8:	9a02      	ldr	r2, [sp, #8]
  __HAL_RCC_GPIOA_CLK_ENABLE();
 80016fa:	9403      	str	r4, [sp, #12]
 80016fc:	6b1a      	ldr	r2, [r3, #48]	; 0x30
 80016fe:	f042 0201 	orr.w	r2, r2, #1
 8001702:	631a      	str	r2, [r3, #48]	; 0x30
 8001704:	6b1a      	ldr	r2, [r3, #48]	; 0x30
 8001706:	f002 0201 	and.w	r2, r2, #1
 800170a:	9203      	str	r2, [sp, #12]
 800170c:	9a03      	ldr	r2, [sp, #12]
  __HAL_RCC_GPIOB_CLK_ENABLE();
 800170e:	9404      	str	r4, [sp, #16]
 8001710:	6b1a      	ldr	r2, [r3, #48]	; 0x30
 8001712:	f042 0202 	orr.w	r2, r2, #2
 8001716:	631a      	str	r2, [r3, #48]	; 0x30
 8001718:	6b1b      	ldr	r3, [r3, #48]	; 0x30
  GPIO_InitStruct.Pull = GPIO_NOPULL;
 800171a:	940d      	str	r4, [sp, #52]	; 0x34
  __HAL_RCC_GPIOB_CLK_ENABLE();
 800171c:	f003 0302 	and.w	r3, r3, #2
 8001720:	9304      	str	r3, [sp, #16]
 8001722:	9b04      	ldr	r3, [sp, #16]
  GPIO_InitStruct.Pin = B1_Pin;
 8001724:	f44f 5300 	mov.w	r3, #8192	; 0x2000
 8001728:	930b      	str	r3, [sp, #44]	; 0x2c
  HAL_GPIO_Init(B1_GPIO_Port, &GPIO_InitStruct);
 800172a:	a90b      	add	r1, sp, #44	; 0x2c
  GPIO_InitStruct.Mode = GPIO_MODE_IT_FALLING;
 800172c:	4b4c      	ldr	r3, [pc, #304]	; (8001860 <main+0x1a0>)
 800172e:	930c      	str	r3, [sp, #48]	; 0x30
  HAL_GPIO_Init(B1_GPIO_Port, &GPIO_InitStruct);
 8001730:	f7fe ffb6 	bl	80006a0 <HAL_GPIO_Init>
  huart2.Instance = USART2;
 8001734:	484b      	ldr	r0, [pc, #300]	; (8001864 <main+0x1a4>)
  huart2.Init.BaudRate = 115200;
 8001736:	4a4c      	ldr	r2, [pc, #304]	; (8001868 <main+0x1a8>)
  huart2.Init.WordLength = UART_WORDLENGTH_8B;
 8001738:	6084      	str	r4, [r0, #8]
  huart2.Init.BaudRate = 115200;
 800173a:	f44f 33e1 	mov.w	r3, #115200	; 0x1c200
 800173e:	e880 000c 	stmia.w	r0, {r2, r3}
  huart2.Init.Mode = UART_MODE_TX_RX;
 8001742:	230c      	movs	r3, #12
  huart2.Init.StopBits = UART_STOPBITS_1;
 8001744:	60c4      	str	r4, [r0, #12]
  huart2.Init.Parity = UART_PARITY_NONE;
 8001746:	6104      	str	r4, [r0, #16]
  huart2.Init.Mode = UART_MODE_TX_RX;
 8001748:	6143      	str	r3, [r0, #20]
  huart2.Init.HwFlowCtl = UART_HWCONTROL_NONE;
 800174a:	6184      	str	r4, [r0, #24]
  huart2.Init.OverSampling = UART_OVERSAMPLING_16;
 800174c:	61c4      	str	r4, [r0, #28]
  if (HAL_UART_Init(&huart2) != HAL_OK)
 800174e:	f7ff ff31 	bl	80015b4 <HAL_UART_Init>
 8001752:	b100      	cbz	r0, 8001756 <main+0x96>
 8001754:	e7fe      	b.n	8001754 <main+0x94>
  htim2.Instance = TIM2;
 8001756:	4c45      	ldr	r4, [pc, #276]	; (800186c <main+0x1ac>)
 8001758:	f04f 4580 	mov.w	r5, #1073741824	; 0x40000000
  htim2.Init.Prescaler = 0;
 800175c:	6060      	str	r0, [r4, #4]
  htim2.Init.CounterMode = TIM_COUNTERMODE_UP;
 800175e:	60a0      	str	r0, [r4, #8]
  htim2.Init.Period = 65000;
 8001760:	f64f 53e8 	movw	r3, #65000	; 0xfde8
  htim2.Init.ClockDivision = TIM_CLOCKDIVISION_DIV1;
 8001764:	6120      	str	r0, [r4, #16]
  if (HAL_TIM_Base_Init(&htim2) != HAL_OK)
 8001766:	4620      	mov	r0, r4
  htim2.Instance = TIM2;
 8001768:	6025      	str	r5, [r4, #0]
  htim2.Init.Period = 65000;
 800176a:	60e3      	str	r3, [r4, #12]
  if (HAL_TIM_Base_Init(&htim2) != HAL_OK)
 800176c:	f7ff fd00 	bl	8001170 <HAL_TIM_Base_Init>
 8001770:	b100      	cbz	r0, 8001774 <main+0xb4>
 8001772:	e7fe      	b.n	8001772 <main+0xb2>
  sClockSourceConfig.ClockSource = TIM_CLOCKSOURCE_INTERNAL;
 8001774:	a912      	add	r1, sp, #72	; 0x48
 8001776:	f44f 5380 	mov.w	r3, #4096	; 0x1000
 800177a:	f841 3d2c 	str.w	r3, [r1, #-44]!
  if (HAL_TIM_ConfigClockSource(&htim2, &sClockSourceConfig) != HAL_OK)
 800177e:	4620      	mov	r0, r4
 8001780:	f7ff fb49 	bl	8000e16 <HAL_TIM_ConfigClockSource>
 8001784:	b100      	cbz	r0, 8001788 <main+0xc8>
 8001786:	e7fe      	b.n	8001786 <main+0xc6>
  if (HAL_TIM_PWM_Init(&htim2) != HAL_OK)
 8001788:	4620      	mov	r0, r4
 800178a:	f7ff fd0b 	bl	80011a4 <HAL_TIM_PWM_Init>
 800178e:	b100      	cbz	r0, 8001792 <main+0xd2>
 8001790:	e7fe      	b.n	8001790 <main+0xd0>
  sMasterConfig.MasterOutputTrigger = TIM_TRGO_RESET;
 8001792:	9005      	str	r0, [sp, #20]
  sMasterConfig.MasterSlaveMode = TIM_MASTERSLAVEMODE_DISABLE;
 8001794:	9006      	str	r0, [sp, #24]
  if (HAL_TIMEx_MasterConfigSynchronization(&htim2, &sMasterConfig) != HAL_OK)
 8001796:	a905      	add	r1, sp, #20
 8001798:	4620      	mov	r0, r4
 800179a:	f7ff fdcd 	bl	8001338 <HAL_TIMEx_MasterConfigSynchronization>
 800179e:	4602      	mov	r2, r0
 80017a0:	b100      	cbz	r0, 80017a4 <main+0xe4>
 80017a2:	e7fe      	b.n	80017a2 <main+0xe2>
  sConfigOC.OCMode = TIM_OCMODE_PWM1;
 80017a4:	2360      	movs	r3, #96	; 0x60
  sConfigOC.Pulse = 0;
 80017a6:	900c      	str	r0, [sp, #48]	; 0x30
  sConfigOC.OCPolarity = TIM_OCPOLARITY_HIGH;
 80017a8:	900d      	str	r0, [sp, #52]	; 0x34
  sConfigOC.OCFastMode = TIM_OCFAST_DISABLE;
 80017aa:	900f      	str	r0, [sp, #60]	; 0x3c
  if (HAL_TIM_PWM_ConfigChannel(&htim2, &sConfigOC, TIM_CHANNEL_1) != HAL_OK)
 80017ac:	a90b      	add	r1, sp, #44	; 0x2c
 80017ae:	4620      	mov	r0, r4
  sConfigOC.OCMode = TIM_OCMODE_PWM1;
 80017b0:	930b      	str	r3, [sp, #44]	; 0x2c
  if (HAL_TIM_PWM_ConfigChannel(&htim2, &sConfigOC, TIM_CHANNEL_1) != HAL_OK)
 80017b2:	f7ff fd3d 	bl	8001230 <HAL_TIM_PWM_ConfigChannel>
 80017b6:	b100      	cbz	r0, 80017ba <main+0xfa>
 80017b8:	e7fe      	b.n	80017b8 <main+0xf8>
  if (HAL_TIM_PWM_ConfigChannel(&htim2, &sConfigOC, TIM_CHANNEL_2) != HAL_OK)
 80017ba:	2204      	movs	r2, #4
 80017bc:	a90b      	add	r1, sp, #44	; 0x2c
 80017be:	4620      	mov	r0, r4
 80017c0:	f7ff fd36 	bl	8001230 <HAL_TIM_PWM_ConfigChannel>
 80017c4:	b100      	cbz	r0, 80017c8 <main+0x108>
 80017c6:	e7fe      	b.n	80017c6 <main+0x106>
  if (HAL_TIM_PWM_ConfigChannel(&htim2, &sConfigOC, TIM_CHANNEL_3) != HAL_OK)
 80017c8:	2208      	movs	r2, #8
 80017ca:	a90b      	add	r1, sp, #44	; 0x2c
 80017cc:	4620      	mov	r0, r4
 80017ce:	f7ff fd2f 	bl	8001230 <HAL_TIM_PWM_ConfigChannel>
 80017d2:	4606      	mov	r6, r0
 80017d4:	b100      	cbz	r0, 80017d8 <main+0x118>
 80017d6:	e7fe      	b.n	80017d6 <main+0x116>
  HAL_TIM_MspPostInit(&htim2);
 80017d8:	4620      	mov	r0, r4
 80017da:	f000 f8ad 	bl	8001938 <HAL_TIM_MspPostInit>
  HAL_TIM_PWM_Start (&htim2, TIM_CHANNEL_1);
 80017de:	4631      	mov	r1, r6
 80017e0:	4620      	mov	r0, r4
 80017e2:	f7ff fd93 	bl	800130c <HAL_TIM_PWM_Start>
  HAL_TIM_PWM_Start (&htim2, TIM_CHANNEL_2);
 80017e6:	2104      	movs	r1, #4
 80017e8:	4620      	mov	r0, r4
 80017ea:	f7ff fd8f 	bl	800130c <HAL_TIM_PWM_Start>
  HAL_TIM_PWM_Start (&htim2, TIM_CHANNEL_3);
 80017ee:	2108      	movs	r1, #8
 80017f0:	4620      	mov	r0, r4
 80017f2:	f7ff fd8b 	bl	800130c <HAL_TIM_PWM_Start>
    HAL_Delay(1000);
 80017f6:	f44f 707a 	mov.w	r0, #1000	; 0x3e8
 80017fa:	f7fe fec3 	bl	8000584 <HAL_Delay>
	  		  	  				   TIM2->CCR1=i;
 80017fe:	462c      	mov	r4, r5
 8001800:	2500      	movs	r5, #0
	  		  		  for (i=0; i<65000; i=i+10)
 8001802:	f64f 57e8 	movw	r7, #65000	; 0xfde8
	  		  	  			   TIM2->CCR1=i;
 8001806:	6365      	str	r5, [r4, #52]	; 0x34
	  		  	  			   HAL_Delay(1);
 8001808:	2001      	movs	r0, #1
	  		  		  for (i=0; i<65000; i=i+10)
 800180a:	350a      	adds	r5, #10
	  		  	  			   HAL_Delay(1);
 800180c:	f7fe feba 	bl	8000584 <HAL_Delay>
	  		  		  for (i=0; i<65000; i=i+10)
 8001810:	42bd      	cmp	r5, r7
 8001812:	d1f8      	bne.n	8001806 <main+0x146>
	  	  		  	  				   TIM2->CCR2=i;
 8001814:	63a6      	str	r6, [r4, #56]	; 0x38
	  	  		  	  				   HAL_Delay(1);
 8001816:	2001      	movs	r0, #1
 8001818:	f7fe feb4 	bl	8000584 <HAL_Delay>
 800181c:	2500      	movs	r5, #0
	  	  		  		  for (i=0; i<65000; i=i+10)
 800181e:	f64f 57e8 	movw	r7, #65000	; 0xfde8
	  	  		  	  			   TIM2->CCR3=i;
 8001822:	63e5      	str	r5, [r4, #60]	; 0x3c
	  	  		  	  			   HAL_Delay(1);
 8001824:	2001      	movs	r0, #1
	  	  		  		  for (i=0; i<65000; i=i+10)
 8001826:	350a      	adds	r5, #10
	  	  		  	  			   HAL_Delay(1);
 8001828:	f7fe feac 	bl	8000584 <HAL_Delay>
	  	  		  		  for (i=0; i<65000; i=i+10)
 800182c:	42bd      	cmp	r5, r7
 800182e:	d1f8      	bne.n	8001822 <main+0x162>
	  		  	  				   TIM2->CCR1=i;
 8001830:	6366      	str	r6, [r4, #52]	; 0x34
	  		  	  				   HAL_Delay(1);
 8001832:	2001      	movs	r0, #1
 8001834:	f7fe fea6 	bl	8000584 <HAL_Delay>
 8001838:	2500      	movs	r5, #0
	  	  		  		  for (i=0; i<65000; i=i+10)
 800183a:	f64f 57e8 	movw	r7, #65000	; 0xfde8
	  	  		  	  			   TIM2->CCR2=i;
 800183e:	63a5      	str	r5, [r4, #56]	; 0x38
	  	  		  	  			   HAL_Delay(1);
 8001840:	2001      	movs	r0, #1
	  	  		  		  for (i=0; i<65000; i=i+10)
 8001842:	350a      	adds	r5, #10
	  	  		  	  			   HAL_Delay(1);
 8001844:	f7fe fe9e 	bl	8000584 <HAL_Delay>
	  	  		  		  for (i=0; i<65000; i=i+10)
 8001848:	42bd      	cmp	r5, r7
 800184a:	d1f8      	bne.n	800183e <main+0x17e>
	  	  		  	  				   TIM2->CCR3=i;
 800184c:	63e6      	str	r6, [r4, #60]	; 0x3c
	  	  		  	  				   HAL_Delay(1);
 800184e:	2001      	movs	r0, #1
 8001850:	f7fe fe98 	bl	8000584 <HAL_Delay>
 8001854:	e7d4      	b.n	8001800 <main+0x140>
 8001856:	bf00      	nop
 8001858:	40023800 	.word	0x40023800
 800185c:	40020800 	.word	0x40020800
 8001860:	10210000 	.word	0x10210000
 8001864:	20000068 	.word	0x20000068
 8001868:	40004400 	.word	0x40004400
 800186c:	2000002c 	.word	0x2000002c

08001870 <HAL_MspInit>:
/* USER CODE END 0 */
/**
  * Initializes the Global MSP.
  */
void HAL_MspInit(void)
{
 8001870:	b513      	push	{r0, r1, r4, lr}
  /* USER CODE BEGIN MspInit 0 */

  /* USER CODE END MspInit 0 */

  __HAL_RCC_SYSCFG_CLK_ENABLE();
 8001872:	4b22      	ldr	r3, [pc, #136]	; (80018fc <HAL_MspInit+0x8c>)
 8001874:	2400      	movs	r4, #0
 8001876:	9400      	str	r4, [sp, #0]
 8001878:	6c5a      	ldr	r2, [r3, #68]	; 0x44
 800187a:	f442 4280 	orr.w	r2, r2, #16384	; 0x4000
 800187e:	645a      	str	r2, [r3, #68]	; 0x44
 8001880:	6c5a      	ldr	r2, [r3, #68]	; 0x44
 8001882:	f402 4280 	and.w	r2, r2, #16384	; 0x4000
 8001886:	9200      	str	r2, [sp, #0]
 8001888:	9a00      	ldr	r2, [sp, #0]
  __HAL_RCC_PWR_CLK_ENABLE();
 800188a:	9401      	str	r4, [sp, #4]
 800188c:	6c1a      	ldr	r2, [r3, #64]	; 0x40
 800188e:	f042 5280 	orr.w	r2, r2, #268435456	; 0x10000000
 8001892:	641a      	str	r2, [r3, #64]	; 0x40
 8001894:	6c1b      	ldr	r3, [r3, #64]	; 0x40
 8001896:	f003 5380 	and.w	r3, r3, #268435456	; 0x10000000
 800189a:	9301      	str	r3, [sp, #4]

  HAL_NVIC_SetPriorityGrouping(NVIC_PRIORITYGROUP_4);
 800189c:	2003      	movs	r0, #3
  __HAL_RCC_PWR_CLK_ENABLE();
 800189e:	9b01      	ldr	r3, [sp, #4]
  HAL_NVIC_SetPriorityGrouping(NVIC_PRIORITYGROUP_4);
 80018a0:	f7fe fe84 	bl	80005ac <HAL_NVIC_SetPriorityGrouping>

  /* System interrupt init*/
  /* MemoryManagement_IRQn interrupt configuration */
  HAL_NVIC_SetPriority(MemoryManagement_IRQn, 0, 0);
 80018a4:	4622      	mov	r2, r4
 80018a6:	4621      	mov	r1, r4
 80018a8:	f06f 000b 	mvn.w	r0, #11
 80018ac:	f7fe fe90 	bl	80005d0 <HAL_NVIC_SetPriority>
  /* BusFault_IRQn interrupt configuration */
  HAL_NVIC_SetPriority(BusFault_IRQn, 0, 0);
 80018b0:	4622      	mov	r2, r4
 80018b2:	4621      	mov	r1, r4
 80018b4:	f06f 000a 	mvn.w	r0, #10
 80018b8:	f7fe fe8a 	bl	80005d0 <HAL_NVIC_SetPriority>
  /* UsageFault_IRQn interrupt configuration */
  HAL_NVIC_SetPriority(UsageFault_IRQn, 0, 0);
 80018bc:	4622      	mov	r2, r4
 80018be:	4621      	mov	r1, r4
 80018c0:	f06f 0009 	mvn.w	r0, #9
 80018c4:	f7fe fe84 	bl	80005d0 <HAL_NVIC_SetPriority>
  /* SVCall_IRQn interrupt configuration */
  HAL_NVIC_SetPriority(SVCall_IRQn, 0, 0);
 80018c8:	4622      	mov	r2, r4
 80018ca:	4621      	mov	r1, r4
 80018cc:	f06f 0004 	mvn.w	r0, #4
 80018d0:	f7fe fe7e 	bl	80005d0 <HAL_NVIC_SetPriority>
  /* DebugMonitor_IRQn interrupt configuration */
  HAL_NVIC_SetPriority(DebugMonitor_IRQn, 0, 0);
 80018d4:	4622      	mov	r2, r4
 80018d6:	4621      	mov	r1, r4
 80018d8:	f06f 0003 	mvn.w	r0, #3
 80018dc:	f7fe fe78 	bl	80005d0 <HAL_NVIC_SetPriority>
  /* PendSV_IRQn interrupt configuration */
  HAL_NVIC_SetPriority(PendSV_IRQn, 0, 0);
 80018e0:	4622      	mov	r2, r4
 80018e2:	4621      	mov	r1, r4
 80018e4:	f06f 0001 	mvn.w	r0, #1
 80018e8:	f7fe fe72 	bl	80005d0 <HAL_NVIC_SetPriority>
  /* SysTick_IRQn interrupt configuration */
  HAL_NVIC_SetPriority(SysTick_IRQn, 0, 0);
 80018ec:	4622      	mov	r2, r4
 80018ee:	4621      	mov	r1, r4
 80018f0:	f04f 30ff 	mov.w	r0, #4294967295
 80018f4:	f7fe fe6c 	bl	80005d0 <HAL_NVIC_SetPriority>

  /* USER CODE BEGIN MspInit 1 */

  /* USER CODE END MspInit 1 */
}
 80018f8:	b002      	add	sp, #8
 80018fa:	bd10      	pop	{r4, pc}
 80018fc:	40023800 	.word	0x40023800

08001900 <HAL_TIM_Base_MspInit>:

void HAL_TIM_Base_MspInit(TIM_HandleTypeDef* htim_base)
{

  if(htim_base->Instance==TIM2)
 8001900:	6803      	ldr	r3, [r0, #0]
 8001902:	f1b3 4f80 	cmp.w	r3, #1073741824	; 0x40000000
{
 8001906:	b507      	push	{r0, r1, r2, lr}
  if(htim_base->Instance==TIM2)
 8001908:	d113      	bne.n	8001932 <HAL_TIM_Base_MspInit+0x32>
  {
  /* USER CODE BEGIN TIM2_MspInit 0 */

  /* USER CODE END TIM2_MspInit 0 */
    /* Peripheral clock enable */
    __HAL_RCC_TIM2_CLK_ENABLE();
 800190a:	2200      	movs	r2, #0
 800190c:	f503 330e 	add.w	r3, r3, #145408	; 0x23800
 8001910:	9201      	str	r2, [sp, #4]
 8001912:	6c19      	ldr	r1, [r3, #64]	; 0x40
 8001914:	f041 0101 	orr.w	r1, r1, #1
 8001918:	6419      	str	r1, [r3, #64]	; 0x40
 800191a:	6c1b      	ldr	r3, [r3, #64]	; 0x40
 800191c:	f003 0301 	and.w	r3, r3, #1
 8001920:	9301      	str	r3, [sp, #4]
    /* TIM2 interrupt Init */
    HAL_NVIC_SetPriority(TIM2_IRQn, 0, 0);
 8001922:	201c      	movs	r0, #28
 8001924:	4611      	mov	r1, r2
    __HAL_RCC_TIM2_CLK_ENABLE();
 8001926:	9b01      	ldr	r3, [sp, #4]
    HAL_NVIC_SetPriority(TIM2_IRQn, 0, 0);
 8001928:	f7fe fe52 	bl	80005d0 <HAL_NVIC_SetPriority>
    HAL_NVIC_EnableIRQ(TIM2_IRQn);
 800192c:	201c      	movs	r0, #28
 800192e:	f7fe fe83 	bl	8000638 <HAL_NVIC_EnableIRQ>
  /* USER CODE BEGIN TIM2_MspInit 1 */

  /* USER CODE END TIM2_MspInit 1 */
  }

}
 8001932:	b003      	add	sp, #12
 8001934:	f85d fb04 	ldr.w	pc, [sp], #4

08001938 <HAL_TIM_MspPostInit>:

void HAL_TIM_MspPostInit(TIM_HandleTypeDef* htim)
{
 8001938:	b570      	push	{r4, r5, r6, lr}

  GPIO_InitTypeDef GPIO_InitStruct;
  if(htim->Instance==TIM2)
 800193a:	6803      	ldr	r3, [r0, #0]
 800193c:	f1b3 4f80 	cmp.w	r3, #1073741824	; 0x40000000
{
 8001940:	b086      	sub	sp, #24
  if(htim->Instance==TIM2)
 8001942:	d117      	bne.n	8001974 <HAL_TIM_MspPostInit+0x3c>
    PA1     ------> TIM2_CH2
    PA5     ------> TIM2_CH1
    PB10     ------> TIM2_CH3 
    */
    GPIO_InitStruct.Pin = GPIO_PIN_1|GPIO_PIN_5;
    GPIO_InitStruct.Mode = GPIO_MODE_AF_PP;
 8001944:	2402      	movs	r4, #2
    GPIO_InitStruct.Pin = GPIO_PIN_1|GPIO_PIN_5;
 8001946:	2322      	movs	r3, #34	; 0x22
    GPIO_InitStruct.Pull = GPIO_NOPULL;
 8001948:	2600      	movs	r6, #0
    GPIO_InitStruct.Speed = GPIO_SPEED_FREQ_HIGH;
    GPIO_InitStruct.Alternate = GPIO_AF1_TIM2;
 800194a:	2501      	movs	r5, #1
    HAL_GPIO_Init(GPIOA, &GPIO_InitStruct);
 800194c:	a901      	add	r1, sp, #4
 800194e:	480a      	ldr	r0, [pc, #40]	; (8001978 <HAL_TIM_MspPostInit+0x40>)
    GPIO_InitStruct.Pin = GPIO_PIN_1|GPIO_PIN_5;
 8001950:	9301      	str	r3, [sp, #4]
    GPIO_InitStruct.Mode = GPIO_MODE_AF_PP;
 8001952:	9402      	str	r4, [sp, #8]
    GPIO_InitStruct.Pull = GPIO_NOPULL;
 8001954:	9603      	str	r6, [sp, #12]
    GPIO_InitStruct.Speed = GPIO_SPEED_FREQ_HIGH;
 8001956:	9404      	str	r4, [sp, #16]
    GPIO_InitStruct.Alternate = GPIO_AF1_TIM2;
 8001958:	9505      	str	r5, [sp, #20]
    HAL_GPIO_Init(GPIOA, &GPIO_InitStruct);
 800195a:	f7fe fea1 	bl	80006a0 <HAL_GPIO_Init>

    GPIO_InitStruct.Pin = GPIO_PIN_10;
 800195e:	f44f 6380 	mov.w	r3, #1024	; 0x400
    GPIO_InitStruct.Mode = GPIO_MODE_AF_PP;
    GPIO_InitStruct.Pull = GPIO_NOPULL;
    GPIO_InitStruct.Speed = GPIO_SPEED_FREQ_HIGH;
    GPIO_InitStruct.Alternate = GPIO_AF1_TIM2;
    HAL_GPIO_Init(GPIOB, &GPIO_InitStruct);
 8001962:	a901      	add	r1, sp, #4
 8001964:	4805      	ldr	r0, [pc, #20]	; (800197c <HAL_TIM_MspPostInit+0x44>)
    GPIO_InitStruct.Pin = GPIO_PIN_10;
 8001966:	9301      	str	r3, [sp, #4]
    GPIO_InitStruct.Mode = GPIO_MODE_AF_PP;
 8001968:	9402      	str	r4, [sp, #8]
    GPIO_InitStruct.Pull = GPIO_NOPULL;
 800196a:	9603      	str	r6, [sp, #12]
    GPIO_InitStruct.Speed = GPIO_SPEED_FREQ_HIGH;
 800196c:	9404      	str	r4, [sp, #16]
    GPIO_InitStruct.Alternate = GPIO_AF1_TIM2;
 800196e:	9505      	str	r5, [sp, #20]
    HAL_GPIO_Init(GPIOB, &GPIO_InitStruct);
 8001970:	f7fe fe96 	bl	80006a0 <HAL_GPIO_Init>
  /* USER CODE BEGIN TIM2_MspPostInit 1 */

  /* USER CODE END TIM2_MspPostInit 1 */
  }

}
 8001974:	b006      	add	sp, #24
 8001976:	bd70      	pop	{r4, r5, r6, pc}
 8001978:	40020000 	.word	0x40020000
 800197c:	40020400 	.word	0x40020400

08001980 <HAL_UART_MspInit>:
  }

}

void HAL_UART_MspInit(UART_HandleTypeDef* huart)
{
 8001980:	b57f      	push	{r0, r1, r2, r3, r4, r5, r6, lr}

  GPIO_InitTypeDef GPIO_InitStruct;
  if(huart->Instance==USART2)
 8001982:	6802      	ldr	r2, [r0, #0]
 8001984:	4b0e      	ldr	r3, [pc, #56]	; (80019c0 <HAL_UART_MspInit+0x40>)
 8001986:	429a      	cmp	r2, r3
 8001988:	d117      	bne.n	80019ba <HAL_UART_MspInit+0x3a>
  {
  /* USER CODE BEGIN USART2_MspInit 0 */

  /* USER CODE END USART2_MspInit 0 */
    /* Peripheral clock enable */
    __HAL_RCC_USART2_CLK_ENABLE();
 800198a:	2300      	movs	r3, #0
 800198c:	4a0d      	ldr	r2, [pc, #52]	; (80019c4 <HAL_UART_MspInit+0x44>)
 800198e:	9300      	str	r3, [sp, #0]
 8001990:	6c11      	ldr	r1, [r2, #64]	; 0x40
    GPIO_InitStruct.Pin = USART_TX_Pin|USART_RX_Pin;
    GPIO_InitStruct.Mode = GPIO_MODE_AF_PP;
    GPIO_InitStruct.Pull = GPIO_NOPULL;
    GPIO_InitStruct.Speed = GPIO_SPEED_FREQ_LOW;
    GPIO_InitStruct.Alternate = GPIO_AF7_USART2;
    HAL_GPIO_Init(GPIOA, &GPIO_InitStruct);
 8001992:	480d      	ldr	r0, [pc, #52]	; (80019c8 <HAL_UART_MspInit+0x48>)
    __HAL_RCC_USART2_CLK_ENABLE();
 8001994:	f441 3100 	orr.w	r1, r1, #131072	; 0x20000
 8001998:	6411      	str	r1, [r2, #64]	; 0x40
 800199a:	6c12      	ldr	r2, [r2, #64]	; 0x40
    GPIO_InitStruct.Pull = GPIO_NOPULL;
 800199c:	9303      	str	r3, [sp, #12]
    __HAL_RCC_USART2_CLK_ENABLE();
 800199e:	f402 3200 	and.w	r2, r2, #131072	; 0x20000
 80019a2:	9200      	str	r2, [sp, #0]
 80019a4:	9a00      	ldr	r2, [sp, #0]
    GPIO_InitStruct.Speed = GPIO_SPEED_FREQ_LOW;
 80019a6:	9304      	str	r3, [sp, #16]
    GPIO_InitStruct.Pin = USART_TX_Pin|USART_RX_Pin;
 80019a8:	220c      	movs	r2, #12
 80019aa:	9201      	str	r2, [sp, #4]
    GPIO_InitStruct.Alternate = GPIO_AF7_USART2;
 80019ac:	2307      	movs	r3, #7
    GPIO_InitStruct.Mode = GPIO_MODE_AF_PP;
 80019ae:	2202      	movs	r2, #2
    HAL_GPIO_Init(GPIOA, &GPIO_InitStruct);
 80019b0:	a901      	add	r1, sp, #4
    GPIO_InitStruct.Mode = GPIO_MODE_AF_PP;
 80019b2:	9202      	str	r2, [sp, #8]
    GPIO_InitStruct.Alternate = GPIO_AF7_USART2;
 80019b4:	9305      	str	r3, [sp, #20]
    HAL_GPIO_Init(GPIOA, &GPIO_InitStruct);
 80019b6:	f7fe fe73 	bl	80006a0 <HAL_GPIO_Init>
  /* USER CODE BEGIN USART2_MspInit 1 */

  /* USER CODE END USART2_MspInit 1 */
  }

}
 80019ba:	b007      	add	sp, #28
 80019bc:	f85d fb04 	ldr.w	pc, [sp], #4
 80019c0:	40004400 	.word	0x40004400
 80019c4:	40023800 	.word	0x40023800
 80019c8:	40020000 	.word	0x40020000

080019cc <SysTick_Handler>:

/**
* @brief This function handles System tick timer.
*/
void SysTick_Handler(void)
{
 80019cc:	b508      	push	{r3, lr}
  /* USER CODE BEGIN SysTick_IRQn 0 */

  /* USER CODE END SysTick_IRQn 0 */
  HAL_IncTick();
 80019ce:	f7fe fdc7 	bl	8000560 <HAL_IncTick>
  HAL_SYSTICK_IRQHandler();
  /* USER CODE BEGIN SysTick_IRQn 1 */

  /* USER CODE END SysTick_IRQn 1 */
}
 80019d2:	e8bd 4008 	ldmia.w	sp!, {r3, lr}
  HAL_SYSTICK_IRQHandler();
 80019d6:	f7fe be5e 	b.w	8000696 <HAL_SYSTICK_IRQHandler>
	...

080019dc <TIM2_IRQHandler>:
void TIM2_IRQHandler(void)
{
  /* USER CODE BEGIN TIM2_IRQn 0 */

  /* USER CODE END TIM2_IRQn 0 */
  HAL_TIM_IRQHandler(&htim2);
 80019dc:	4801      	ldr	r0, [pc, #4]	; (80019e4 <TIM2_IRQHandler+0x8>)
 80019de:	f7ff bad8 	b.w	8000f92 <HAL_TIM_IRQHandler>
 80019e2:	bf00      	nop
 80019e4:	2000002c 	.word	0x2000002c

080019e8 <SystemInit>:
  */
void SystemInit(void)
{
  /* FPU settings ------------------------------------------------------------*/
  #if (__FPU_PRESENT == 1) && (__FPU_USED == 1)
    SCB->CPACR |= ((3UL << 10*2)|(3UL << 11*2));  /* set CP10 and CP11 Full Access */
 80019e8:	490f      	ldr	r1, [pc, #60]	; (8001a28 <SystemInit+0x40>)
 80019ea:	f8d1 3088 	ldr.w	r3, [r1, #136]	; 0x88
 80019ee:	f443 0370 	orr.w	r3, r3, #15728640	; 0xf00000
 80019f2:	f8c1 3088 	str.w	r3, [r1, #136]	; 0x88
  #endif
  /* Reset the RCC clock configuration to the default reset state ------------*/
  /* Set HSION bit */
  RCC->CR |= (uint32_t)0x00000001;
 80019f6:	4b0d      	ldr	r3, [pc, #52]	; (8001a2c <SystemInit+0x44>)
 80019f8:	681a      	ldr	r2, [r3, #0]

  /* Reset CFGR register */
  RCC->CFGR = 0x00000000;
 80019fa:	2000      	movs	r0, #0
  RCC->CR |= (uint32_t)0x00000001;
 80019fc:	f042 0201 	orr.w	r2, r2, #1
 8001a00:	601a      	str	r2, [r3, #0]
  RCC->CFGR = 0x00000000;
 8001a02:	6098      	str	r0, [r3, #8]

  /* Reset HSEON, CSSON and PLLON bits */
  RCC->CR &= (uint32_t)0xFEF6FFFF;
 8001a04:	681a      	ldr	r2, [r3, #0]
 8001a06:	f022 7284 	bic.w	r2, r2, #17301504	; 0x1080000
 8001a0a:	f422 3280 	bic.w	r2, r2, #65536	; 0x10000
 8001a0e:	601a      	str	r2, [r3, #0]

  /* Reset PLLCFGR register */
  RCC->PLLCFGR = 0x24003010;
 8001a10:	4a07      	ldr	r2, [pc, #28]	; (8001a30 <SystemInit+0x48>)
 8001a12:	605a      	str	r2, [r3, #4]

  /* Reset HSEBYP bit */
  RCC->CR &= (uint32_t)0xFFFBFFFF;
 8001a14:	681a      	ldr	r2, [r3, #0]
 8001a16:	f422 2280 	bic.w	r2, r2, #262144	; 0x40000
 8001a1a:	601a      	str	r2, [r3, #0]

  /* Disable all interrupts */
  RCC->CIR = 0x00000000;
 8001a1c:	60d8      	str	r0, [r3, #12]

  /* Configure the Vector Table location add offset address ------------------*/
#ifdef VECT_TAB_SRAM
  SCB->VTOR = SRAM_BASE | VECT_TAB_OFFSET; /* Vector Table Relocation in Internal SRAM */
#else
  SCB->VTOR = FLASH_BASE | VECT_TAB_OFFSET; /* Vector Table Relocation in Internal FLASH */
 8001a1e:	f04f 6300 	mov.w	r3, #134217728	; 0x8000000
 8001a22:	608b      	str	r3, [r1, #8]
 8001a24:	4770      	bx	lr
 8001a26:	bf00      	nop
 8001a28:	e000ed00 	.word	0xe000ed00
 8001a2c:	40023800 	.word	0x40023800
 8001a30:	24003010 	.word	0x24003010

08001a34 <Reset_Handler>:

    .section  .text.Reset_Handler
  .weak  Reset_Handler
  .type  Reset_Handler, %function
Reset_Handler:  
  ldr   sp, =_estack    		 /* set stack pointer */
 8001a34:	f8df d034 	ldr.w	sp, [pc, #52]	; 8001a6c <LoopFillZerobss+0x14>

/* Copy the data segment initializers from flash to SRAM */  
  movs  r1, #0
 8001a38:	2100      	movs	r1, #0
  b  LoopCopyDataInit
 8001a3a:	e003      	b.n	8001a44 <LoopCopyDataInit>

08001a3c <CopyDataInit>:

CopyDataInit:
  ldr  r3, =_sidata
 8001a3c:	4b0c      	ldr	r3, [pc, #48]	; (8001a70 <LoopFillZerobss+0x18>)
  ldr  r3, [r3, r1]
 8001a3e:	585b      	ldr	r3, [r3, r1]
  str  r3, [r0, r1]
 8001a40:	5043      	str	r3, [r0, r1]
  adds  r1, r1, #4
 8001a42:	3104      	adds	r1, #4

08001a44 <LoopCopyDataInit>:
    
LoopCopyDataInit:
  ldr  r0, =_sdata
 8001a44:	480b      	ldr	r0, [pc, #44]	; (8001a74 <LoopFillZerobss+0x1c>)
  ldr  r3, =_edata
 8001a46:	4b0c      	ldr	r3, [pc, #48]	; (8001a78 <LoopFillZerobss+0x20>)
  adds  r2, r0, r1
 8001a48:	1842      	adds	r2, r0, r1
  cmp  r2, r3
 8001a4a:	429a      	cmp	r2, r3
  bcc  CopyDataInit
 8001a4c:	d3f6      	bcc.n	8001a3c <CopyDataInit>
  ldr  r2, =_sbss
 8001a4e:	4a0b      	ldr	r2, [pc, #44]	; (8001a7c <LoopFillZerobss+0x24>)
  b  LoopFillZerobss
 8001a50:	e002      	b.n	8001a58 <LoopFillZerobss>

08001a52 <FillZerobss>:
/* Zero fill the bss segment. */  
FillZerobss:
  movs  r3, #0
 8001a52:	2300      	movs	r3, #0
  str  r3, [r2], #4
 8001a54:	f842 3b04 	str.w	r3, [r2], #4

08001a58 <LoopFillZerobss>:
    
LoopFillZerobss:
  ldr  r3, = _ebss
 8001a58:	4b09      	ldr	r3, [pc, #36]	; (8001a80 <LoopFillZerobss+0x28>)
  cmp  r2, r3
 8001a5a:	429a      	cmp	r2, r3
  bcc  FillZerobss
 8001a5c:	d3f9      	bcc.n	8001a52 <FillZerobss>

/* Call the clock system intitialization function.*/
  bl  SystemInit   
 8001a5e:	f7ff ffc3 	bl	80019e8 <SystemInit>
/* Call static constructors */
    bl __libc_init_array
 8001a62:	f000 f811 	bl	8001a88 <__libc_init_array>
/* Call the application's entry point.*/
  bl  main
 8001a66:	f7ff fe2b 	bl	80016c0 <main>
  bx  lr    
 8001a6a:	4770      	bx	lr
  ldr   sp, =_estack    		 /* set stack pointer */
 8001a6c:	20018000 	.word	0x20018000
  ldr  r3, =_sidata
 8001a70:	08001b10 	.word	0x08001b10
  ldr  r0, =_sdata
 8001a74:	20000000 	.word	0x20000000
  ldr  r3, =_edata
 8001a78:	2000000c 	.word	0x2000000c
  ldr  r2, =_sbss
 8001a7c:	2000000c 	.word	0x2000000c
  ldr  r3, = _ebss
 8001a80:	200000a8 	.word	0x200000a8

08001a84 <ADC_IRQHandler>:
 * @retval None       
*/
    .section  .text.Default_Handler,"ax",%progbits
Default_Handler:
Infinite_Loop:
  b  Infinite_Loop
 8001a84:	e7fe      	b.n	8001a84 <ADC_IRQHandler>
	...

08001a88 <__libc_init_array>:
 8001a88:	b570      	push	{r4, r5, r6, lr}
 8001a8a:	4e0d      	ldr	r6, [pc, #52]	; (8001ac0 <__libc_init_array+0x38>)
 8001a8c:	4c0d      	ldr	r4, [pc, #52]	; (8001ac4 <__libc_init_array+0x3c>)
 8001a8e:	1ba4      	subs	r4, r4, r6
 8001a90:	10a4      	asrs	r4, r4, #2
 8001a92:	2500      	movs	r5, #0
 8001a94:	42a5      	cmp	r5, r4
 8001a96:	d109      	bne.n	8001aac <__libc_init_array+0x24>
 8001a98:	4e0b      	ldr	r6, [pc, #44]	; (8001ac8 <__libc_init_array+0x40>)
 8001a9a:	4c0c      	ldr	r4, [pc, #48]	; (8001acc <__libc_init_array+0x44>)
 8001a9c:	f000 f818 	bl	8001ad0 <_init>
 8001aa0:	1ba4      	subs	r4, r4, r6
 8001aa2:	10a4      	asrs	r4, r4, #2
 8001aa4:	2500      	movs	r5, #0
 8001aa6:	42a5      	cmp	r5, r4
 8001aa8:	d105      	bne.n	8001ab6 <__libc_init_array+0x2e>
 8001aaa:	bd70      	pop	{r4, r5, r6, pc}
 8001aac:	f856 3025 	ldr.w	r3, [r6, r5, lsl #2]
 8001ab0:	4798      	blx	r3
 8001ab2:	3501      	adds	r5, #1
 8001ab4:	e7ee      	b.n	8001a94 <__libc_init_array+0xc>
 8001ab6:	f856 3025 	ldr.w	r3, [r6, r5, lsl #2]
 8001aba:	4798      	blx	r3
 8001abc:	3501      	adds	r5, #1
 8001abe:	e7f2      	b.n	8001aa6 <__libc_init_array+0x1e>
 8001ac0:	08001b08 	.word	0x08001b08
 8001ac4:	08001b08 	.word	0x08001b08
 8001ac8:	08001b08 	.word	0x08001b08
 8001acc:	08001b0c 	.word	0x08001b0c

08001ad0 <_init>:
 8001ad0:	b5f8      	push	{r3, r4, r5, r6, r7, lr}
 8001ad2:	bf00      	nop
 8001ad4:	bcf8      	pop	{r3, r4, r5, r6, r7}
 8001ad6:	bc08      	pop	{r3}
 8001ad8:	469e      	mov	lr, r3
 8001ada:	4770      	bx	lr

08001adc <_fini>:
 8001adc:	b5f8      	push	{r3, r4, r5, r6, r7, lr}
 8001ade:	bf00      	nop
 8001ae0:	bcf8      	pop	{r3, r4, r5, r6, r7}
 8001ae2:	bc08      	pop	{r3}
 8001ae4:	469e      	mov	lr, r3
 8001ae6:	4770      	bx	lr
